{
  "contracts/Sailors.sol": {
    "Sailors": {
      "abi": [
        {
          "inputs": [],
          "stateMutability": "nonpayable",
          "type": "constructor"
        },
        {
          "anonymous": false,
          "inputs": [
            {
              "indexed": false,
              "internalType": "uint256",
              "name": "votesUp",
              "type": "uint256"
            },
            {
              "indexed": false,
              "internalType": "uint256",
              "name": "votesDown",
              "type": "uint256"
            },
            {
              "indexed": false,
              "internalType": "address",
              "name": "voter",
              "type": "address"
            },
            {
              "indexed": false,
              "internalType": "uint256",
              "name": "proposal",
              "type": "uint256"
            },
            {
              "indexed": false,
              "internalType": "bool",
              "name": "votedFor",
              "type": "bool"
            }
          ],
          "name": "newVote",
          "type": "event"
        },
        {
          "anonymous": false,
          "inputs": [
            {
              "indexed": false,
              "internalType": "uint256",
              "name": "id",
              "type": "uint256"
            },
            {
              "indexed": false,
              "internalType": "bool",
              "name": "passed",
              "type": "bool"
            }
          ],
          "name": "proposalCount",
          "type": "event"
        },
        {
          "anonymous": false,
          "inputs": [
            {
              "indexed": false,
              "internalType": "uint256",
              "name": "id",
              "type": "uint256"
            },
            {
              "indexed": false,
              "internalType": "string",
              "name": "description",
              "type": "string"
            },
            {
              "indexed": false,
              "internalType": "uint256",
              "name": "maxVotes",
              "type": "uint256"
            },
            {
              "indexed": false,
              "internalType": "address",
              "name": "proposer",
              "type": "address"
            }
          ],
          "name": "proposalCreated",
          "type": "event"
        },
        {
          "inputs": [
            {
              "internalType": "uint256",
              "name": "",
              "type": "uint256"
            }
          ],
          "name": "Proposals",
          "outputs": [
            {
              "internalType": "uint256",
              "name": "id",
              "type": "uint256"
            },
            {
              "internalType": "bool",
              "name": "exists",
              "type": "bool"
            },
            {
              "internalType": "string",
              "name": "description",
              "type": "string"
            },
            {
              "internalType": "uint256",
              "name": "deadline",
              "type": "uint256"
            },
            {
              "internalType": "uint256",
              "name": "votesUp",
              "type": "uint256"
            },
            {
              "internalType": "uint256",
              "name": "votesDown",
              "type": "uint256"
            },
            {
              "internalType": "uint256",
              "name": "maxVotes",
              "type": "uint256"
            },
            {
              "internalType": "bool",
              "name": "countConducted",
              "type": "bool"
            },
            {
              "internalType": "bool",
              "name": "passed",
              "type": "bool"
            }
          ],
          "stateMutability": "view",
          "type": "function"
        },
        {
          "inputs": [
            {
              "internalType": "uint256",
              "name": "_tokenId",
              "type": "uint256"
            }
          ],
          "name": "addTokenId",
          "outputs": [],
          "stateMutability": "nonpayable",
          "type": "function"
        },
        {
          "inputs": [
            {
              "internalType": "uint256",
              "name": "_id",
              "type": "uint256"
            }
          ],
          "name": "countVotes",
          "outputs": [],
          "stateMutability": "nonpayable",
          "type": "function"
        },
        {
          "inputs": [
            {
              "internalType": "string",
              "name": "_description",
              "type": "string"
            },
            {
              "internalType": "address[]",
              "name": "_canVote",
              "type": "address[]"
            }
          ],
          "name": "createProposal",
          "outputs": [],
          "stateMutability": "nonpayable",
          "type": "function"
        },
        {
          "inputs": [],
          "name": "owner",
          "outputs": [
            {
              "internalType": "address",
              "name": "",
              "type": "address"
            }
          ],
          "stateMutability": "view",
          "type": "function"
        },
        {
          "inputs": [
            {
              "internalType": "uint256",
              "name": "",
              "type": "uint256"
            }
          ],
          "name": "validTokens",
          "outputs": [
            {
              "internalType": "uint256",
              "name": "",
              "type": "uint256"
            }
          ],
          "stateMutability": "view",
          "type": "function"
        },
        {
          "inputs": [
            {
              "internalType": "uint256",
              "name": "_id",
              "type": "uint256"
            },
            {
              "internalType": "bool",
              "name": "_vote",
              "type": "bool"
            }
          ],
          "name": "voteOnProposal",
          "outputs": [],
          "stateMutability": "nonpayable",
          "type": "function"
        }
      ],
      "evm": {
        "bytecode": {
          "linkReferences": {},
          "object": "60806040523480156200001157600080fd5b50336000806101000a81548173ffffffffffffffffffffffffffffffffffffffff021916908373ffffffffffffffffffffffffffffffffffffffff160217905550600180819055507367a8fe17db4d441f96f26094677763a2213a3b5f600360006101000a81548173ffffffffffffffffffffffffffffffffffffffff021916908373ffffffffffffffffffffffffffffffffffffffff16021790555060405180602001604052807fa0df1bcb0febc3b3fb2731a81926a5ba718b21450000000000000000000000018152506002906001620000ef929190620000f6565b5062000167565b82805482825590600052602060002090810192821562000135579160200282015b828111156200013457825182559160200191906001019062000117565b5b50905062000144919062000148565b5090565b5b808211156200016357600081600090555060010162000149565b5090565b6119d580620001776000396000f3fe608060405234801561001057600080fd5b506004361061007d5760003560e01c8063be8bb7ba1161005b578063be8bb7ba146100d8578063d1dbe7d8146100f4578063e9d3d16a1461012c578063fd0d101f1461015c5761007d565b80631614665c146100825780631840f0ca1461009e5780638da5cb5b146100ba575b600080fd5b61009c60048036038101906100979190610f19565b610178565b005b6100b860048036038101906100b39190610ebf565b61041b565b005b6100c261069c565b6040516100cf919061111d565b60405180910390f35b6100f260048036038101906100ed9190610e47565b6106c0565b005b61010e60048036038101906101099190610ebf565b6107f7565b604051610123999897969594939291906112e5565b60405180910390f35b61014660048036038101906101419190610ebf565b6108f4565b60405161015391906112a1565b60405180910390f35b61017660048036038101906101719190610ebf565b610918565b005b6004600083815260200190815260200160002060010160009054906101000a900460ff166101db576040517f08c379a00000000000000000000000000000000000000000000000000000000081526004016101d290611221565b60405180910390fd5b6101e582336109d2565b610224576040517f08c379a000000000000000000000000000000000000000000000000000000000815260040161021b90611261565b60405180910390fd5b6004600083815260200190815260200160002060080160003373ffffffffffffffffffffffffffffffffffffffff1673ffffffffffffffffffffffffffffffffffffffff16815260200190815260200160002060009054906101000a900460ff16156102c5576040517f08c379a00000000000000000000000000000000000000000000000000000000081526004016102bc90611161565b60405180910390fd5b600460008381526020019081526020016000206003015443111561031e576040517f08c379a0000000000000000000000000000000000000000000000000000000008152600401610315906111c1565b60405180910390fd5b6000600460008481526020019081526020016000209050811561035a57806004016000815480929190610350906115f9565b9190505550610375565b80600501600081548092919061036f906115f9565b91905055505b60018160080160003373ffffffffffffffffffffffffffffffffffffffff1673ffffffffffffffffffffffffffffffffffffffff16815260200190815260200160002060006101000a81548160ff0219169083151502179055507f97a3ed91f0b116dc155f238ac92aa5b825720a7bb096f53156e05d9c8ab6a30a8160040154826005015433868660405161040e9594939291906113c5565b60405180910390a1505050565b60008054906101000a900473ffffffffffffffffffffffffffffffffffffffff1673ffffffffffffffffffffffffffffffffffffffff163373ffffffffffffffffffffffffffffffffffffffff16146104a9576040517f08c379a00000000000000000000000000000000000000000000000000000000081526004016104a090611241565b60405180910390fd5b6004600082815260200190815260200160002060010160009054906101000a900460ff1661050c576040517f08c379a0000000000000000000000000000000000000000000000000000000008152600401610503906111a1565b60405180910390fd5b60046000828152602001908152602001600020600301544311610564576040517f08c379a000000000000000000000000000000000000000000000000000000000815260040161055b90611201565b60405180910390fd5b6004600082815260200190815260200160002060090160009054906101000a900460ff16156105c8576040517f08c379a00000000000000000000000000000000000000000000000000000000081526004016105bf906111e1565b60405180910390fd5b60006004600083815260200190815260200160002090506004600083815260200190815260200160002060040154600460008481526020019081526020016000206005015410156106315760018160090160016101000a81548160ff0219169083151502179055505b60018160090160006101000a81548160ff0219169083151502179055507f4556fcf667ee704924eea359363d28f06708b744ad113340982b07ef9919fb91828260090160019054906101000a900460ff166040516106909291906112bc565b60405180910390a15050565b60008054906101000a900473ffffffffffffffffffffffffffffffffffffffff1681565b6106c933610aaa565b610708576040517f08c379a00000000000000000000000000000000000000000000000000000000081526004016106ff90611281565b60405180910390fd5b60006004600060015481526020019081526020016000209050600154816000018190555060018160010160006101000a81548160ff02191690831515021790555082816002019080519060200190610761929190610bb8565b5060644361076f91906114b6565b81600301819055508181600601908051906020019061078f929190610c3e565b50815181600701819055507f3ec21697eb8018b62928e5f290d2bccf3af51e8b6cdf71fceab712977647bba9600154848451336040516107d29493929190611379565b60405180910390a1600160008154809291906107ed906115f9565b9190505550505050565b60046020528060005260406000206000915090508060000154908060010160009054906101000a900460ff169080600201805461083390611596565b80601f016020809104026020016040519081016040528092919081815260200182805461085f90611596565b80156108ac5780601f10610881576101008083540402835291602001916108ac565b820191906000526020600020905b81548152906001019060200180831161088f57829003601f168201915b5050505050908060030154908060040154908060050154908060070154908060090160009054906101000a900460ff16908060090160019054906101000a900460ff16905089565b6002818154811061090457600080fd5b906000526020600020016000915090505481565b60008054906101000a900473ffffffffffffffffffffffffffffffffffffffff1673ffffffffffffffffffffffffffffffffffffffff163373ffffffffffffffffffffffffffffffffffffffff16146109a6576040517f08c379a000000000000000000000000000000000000000000000000000000000815260040161099d90611181565b60405180910390fd5b600281908060018154018082558091505060019003906000526020600020016000909190919091505550565b600080600090505b6004600085815260200190815260200160002060060180549050811015610a9e578273ffffffffffffffffffffffffffffffffffffffff16600460008681526020019081526020016000206006018281548110610a3a57610a396116a0565b5b9060005260206000200160009054906101000a900473ffffffffffffffffffffffffffffffffffffffff1673ffffffffffffffffffffffffffffffffffffffff161415610a8b576001915050610aa4565b8080610a96906115f9565b9150506109da565b50600090505b92915050565b600080600090505b600280549050811015610bad576001600360009054906101000a900473ffffffffffffffffffffffffffffffffffffffff1673ffffffffffffffffffffffffffffffffffffffff1662fdd58e8560028581548110610b1357610b126116a0565b5b90600052602060002001546040518363ffffffff1660e01b8152600401610b3b929190611138565b60206040518083038186803b158015610b5357600080fd5b505afa158015610b67573d6000803e3d6000fd5b505050506040513d601f19601f82011682018060405250810190610b8b9190610eec565b10610b9a576001915050610bb3565b8080610ba5906115f9565b915050610ab2565b50600090505b919050565b828054610bc490611596565b90600052602060002090601f016020900481019282610be65760008555610c2d565b82601f10610bff57805160ff1916838001178555610c2d565b82800160010185558215610c2d579182015b82811115610c2c578251825591602001919060010190610c11565b5b509050610c3a9190610cc8565b5090565b828054828255906000526020600020908101928215610cb7579160200282015b82811115610cb65782518260006101000a81548173ffffffffffffffffffffffffffffffffffffffff021916908373ffffffffffffffffffffffffffffffffffffffff16021790555091602001919060010190610c5e565b5b509050610cc49190610cc8565b5090565b5b80821115610ce1576000816000905550600101610cc9565b5090565b6000610cf8610cf38461143d565b611418565b90508083825260208201905082856020860282011115610d1b57610d1a611703565b5b60005b85811015610d4b5781610d318882610d97565b845260208401935060208301925050600181019050610d1e565b5050509392505050565b6000610d68610d6384611469565b611418565b905082815260208101848484011115610d8457610d83611708565b5b610d8f848285611554565b509392505050565b600081359050610da68161195a565b92915050565b600082601f830112610dc157610dc06116fe565b5b8135610dd1848260208601610ce5565b91505092915050565b600081359050610de981611971565b92915050565b600082601f830112610e0457610e036116fe565b5b8135610e14848260208601610d55565b91505092915050565b600081359050610e2c81611988565b92915050565b600081519050610e4181611988565b92915050565b60008060408385031215610e5e57610e5d611712565b5b600083013567ffffffffffffffff811115610e7c57610e7b61170d565b5b610e8885828601610def565b925050602083013567ffffffffffffffff811115610ea957610ea861170d565b5b610eb585828601610dac565b9150509250929050565b600060208284031215610ed557610ed4611712565b5b6000610ee384828501610e1d565b91505092915050565b600060208284031215610f0257610f01611712565b5b6000610f1084828501610e32565b91505092915050565b60008060408385031215610f3057610f2f611712565b5b6000610f3e85828601610e1d565b9250506020610f4f85828601610dda565b9150509250929050565b610f628161150c565b82525050565b610f718161151e565b82525050565b6000610f828261149a565b610f8c81856114a5565b9350610f9c818560208601611563565b610fa581611717565b840191505092915050565b6000610fbd6027836114a5565b9150610fc882611728565b604082019050919050565b6000610fe06024836114a5565b9150610feb82611777565b604082019050919050565b6000611003601c836114a5565b915061100e826117c6565b602082019050919050565b60006110266029836114a5565b9150611031826117ef565b604082019050919050565b60006110496017836114a5565b91506110548261183e565b602082019050919050565b600061106c6018836114a5565b915061107782611867565b602082019050919050565b600061108f601c836114a5565b915061109a82611890565b602082019050919050565b60006110b2601a836114a5565b91506110bd826118b9565b602082019050919050565b60006110d56020836114a5565b91506110e0826118e2565b602082019050919050565b60006110f86025836114a5565b91506111038261190b565b604082019050919050565b6111178161154a565b82525050565b60006020820190506111326000830184610f59565b92915050565b600060408201905061114d6000830185610f59565b61115a602083018461110e565b9392505050565b6000602082019050818103600083015261117a81610fb0565b9050919050565b6000602082019050818103600083015261119a81610fd3565b9050919050565b600060208201905081810360008301526111ba81610ff6565b9050919050565b600060208201905081810360008301526111da81611019565b9050919050565b600060208201905081810360008301526111fa8161103c565b9050919050565b6000602082019050818103600083015261121a8161105f565b9050919050565b6000602082019050818103600083015261123a81611082565b9050919050565b6000602082019050818103600083015261125a816110a5565b9050919050565b6000602082019050818103600083015261127a816110c8565b9050919050565b6000602082019050818103600083015261129a816110eb565b9050919050565b60006020820190506112b6600083018461110e565b92915050565b60006040820190506112d1600083018561110e565b6112de6020830184610f68565b9392505050565b6000610120820190506112fb600083018c61110e565b611308602083018b610f68565b818103604083015261131a818a610f77565b9050611329606083018961110e565b611336608083018861110e565b61134360a083018761110e565b61135060c083018661110e565b61135d60e0830185610f68565b61136b610100830184610f68565b9a9950505050505050505050565b600060808201905061138e600083018761110e565b81810360208301526113a08186610f77565b90506113af604083018561110e565b6113bc6060830184610f59565b95945050505050565b600060a0820190506113da600083018861110e565b6113e7602083018761110e565b6113f46040830186610f59565b611401606083018561110e565b61140e6080830184610f68565b9695505050505050565b6000611422611433565b905061142e82826115c8565b919050565b6000604051905090565b600067ffffffffffffffff821115611458576114576116cf565b5b602082029050602081019050919050565b600067ffffffffffffffff821115611484576114836116cf565b5b61148d82611717565b9050602081019050919050565b600081519050919050565b600082825260208201905092915050565b60006114c18261154a565b91506114cc8361154a565b9250827fffffffffffffffffffffffffffffffffffffffffffffffffffffffffffffffff0382111561150157611500611642565b5b828201905092915050565b60006115178261152a565b9050919050565b60008115159050919050565b600073ffffffffffffffffffffffffffffffffffffffff82169050919050565b6000819050919050565b82818337600083830152505050565b60005b83811015611581578082015181840152602081019050611566565b83811115611590576000848401525b50505050565b600060028204905060018216806115ae57607f821691505b602082108114156115c2576115c1611671565b5b50919050565b6115d182611717565b810181811067ffffffffffffffff821117156115f0576115ef6116cf565b5b80604052505050565b60006116048261154a565b91507fffffffffffffffffffffffffffffffffffffffffffffffffffffffffffffffff82141561163757611636611642565b5b600182019050919050565b7f4e487b7100000000000000000000000000000000000000000000000000000000600052601160045260246000fd5b7f4e487b7100000000000000000000000000000000000000000000000000000000600052602260045260246000fd5b7f4e487b7100000000000000000000000000000000000000000000000000000000600052603260045260246000fd5b7f4e487b7100000000000000000000000000000000000000000000000000000000600052604160045260246000fd5b600080fd5b600080fd5b600080fd5b600080fd5b600080fd5b6000601f19601f8301169050919050565b7f596f75206861766520616c726561647920766f746564206f6e2074686973205060008201527f726f706f73616c00000000000000000000000000000000000000000000000000602082015250565b7f4f6e6c79204f776e65722063616e2061646420746f6b656e7320746f2074686560008201527f2044414f00000000000000000000000000000000000000000000000000000000602082015250565b7f546869732050726f706f73616c20646f6573206e6f7420657869737400000000600082015250565b7f54686520646561646c696e65206861732070617373656420666f72207468697360008201527f2050726f706f73616c0000000000000000000000000000000000000000000000602082015250565b7f436f756e7420616c726561647920636f6e647563746564000000000000000000600082015250565b7f566f74696e6720686173206e6f7420636f6e636c756465640000000000000000600082015250565b7f546869732070726f706f73616c20646f6573206e6f7420657869737400000000600082015250565b7f4f6e6c79204f776e65722043616e20436f756e7420566f746573000000000000600082015250565b7f596f752063616e6e6f7420766f7465206f6e20746869732050726f706f73616c600082015250565b7f4f6e6c79204e465420686f6c646572732063616e206372656174652070726f7060008201527f6f73616c73000000000000000000000000000000000000000000000000000000602082015250565b6119638161150c565b811461196e57600080fd5b50565b61197a8161151e565b811461198557600080fd5b50565b6119918161154a565b811461199c57600080fd5b5056fea26469706673582212200138da3b9e226c66cdefc5206eaa8dad2ec58a47b6e4699d58b3642a9bc2f6f664736f6c63430008070033",
          "opcodes": "PUSH1 0x80 PUSH1 0x40 MSTORE CALLVALUE DUP1 ISZERO PUSH3 0x11 JUMPI PUSH1 0x0 DUP1 REVERT JUMPDEST POP CALLER PUSH1 0x0 DUP1 PUSH2 0x100 EXP DUP2 SLOAD DUP2 PUSH20 0xFFFFFFFFFFFFFFFFFFFFFFFFFFFFFFFFFFFFFFFF MUL NOT AND SWAP1 DUP4 PUSH20 0xFFFFFFFFFFFFFFFFFFFFFFFFFFFFFFFFFFFFFFFF AND MUL OR SWAP1 SSTORE POP PUSH1 0x1 DUP1 DUP2 SWAP1 SSTORE POP PUSH20 0x67A8FE17DB4D441F96F26094677763A2213A3B5F PUSH1 0x3 PUSH1 0x0 PUSH2 0x100 EXP DUP2 SLOAD DUP2 PUSH20 0xFFFFFFFFFFFFFFFFFFFFFFFFFFFFFFFFFFFFFFFF MUL NOT AND SWAP1 DUP4 PUSH20 0xFFFFFFFFFFFFFFFFFFFFFFFFFFFFFFFFFFFFFFFF AND MUL OR SWAP1 SSTORE POP PUSH1 0x40 MLOAD DUP1 PUSH1 0x20 ADD PUSH1 0x40 MSTORE DUP1 PUSH32 0xA0DF1BCB0FEBC3B3FB2731A81926A5BA718B2145000000000000000000000001 DUP2 MSTORE POP PUSH1 0x2 SWAP1 PUSH1 0x1 PUSH3 0xEF SWAP3 SWAP2 SWAP1 PUSH3 0xF6 JUMP JUMPDEST POP PUSH3 0x167 JUMP JUMPDEST DUP3 DUP1 SLOAD DUP3 DUP3 SSTORE SWAP1 PUSH1 0x0 MSTORE PUSH1 0x20 PUSH1 0x0 KECCAK256 SWAP1 DUP2 ADD SWAP3 DUP3 ISZERO PUSH3 0x135 JUMPI SWAP2 PUSH1 0x20 MUL DUP3 ADD JUMPDEST DUP3 DUP2 GT ISZERO PUSH3 0x134 JUMPI DUP3 MLOAD DUP3 SSTORE SWAP2 PUSH1 0x20 ADD SWAP2 SWAP1 PUSH1 0x1 ADD SWAP1 PUSH3 0x117 JUMP JUMPDEST JUMPDEST POP SWAP1 POP PUSH3 0x144 SWAP2 SWAP1 PUSH3 0x148 JUMP JUMPDEST POP SWAP1 JUMP JUMPDEST JUMPDEST DUP1 DUP3 GT ISZERO PUSH3 0x163 JUMPI PUSH1 0x0 DUP2 PUSH1 0x0 SWAP1 SSTORE POP PUSH1 0x1 ADD PUSH3 0x149 JUMP JUMPDEST POP SWAP1 JUMP JUMPDEST PUSH2 0x19D5 DUP1 PUSH3 0x177 PUSH1 0x0 CODECOPY PUSH1 0x0 RETURN INVALID PUSH1 0x80 PUSH1 0x40 MSTORE CALLVALUE DUP1 ISZERO PUSH2 0x10 JUMPI PUSH1 0x0 DUP1 REVERT JUMPDEST POP PUSH1 0x4 CALLDATASIZE LT PUSH2 0x7D JUMPI PUSH1 0x0 CALLDATALOAD PUSH1 0xE0 SHR DUP1 PUSH4 0xBE8BB7BA GT PUSH2 0x5B JUMPI DUP1 PUSH4 0xBE8BB7BA EQ PUSH2 0xD8 JUMPI DUP1 PUSH4 0xD1DBE7D8 EQ PUSH2 0xF4 JUMPI DUP1 PUSH4 0xE9D3D16A EQ PUSH2 0x12C JUMPI DUP1 PUSH4 0xFD0D101F EQ PUSH2 0x15C JUMPI PUSH2 0x7D JUMP JUMPDEST DUP1 PUSH4 0x1614665C EQ PUSH2 0x82 JUMPI DUP1 PUSH4 0x1840F0CA EQ PUSH2 0x9E JUMPI DUP1 PUSH4 0x8DA5CB5B EQ PUSH2 0xBA JUMPI JUMPDEST PUSH1 0x0 DUP1 REVERT JUMPDEST PUSH2 0x9C PUSH1 0x4 DUP1 CALLDATASIZE SUB DUP2 ADD SWAP1 PUSH2 0x97 SWAP2 SWAP1 PUSH2 0xF19 JUMP JUMPDEST PUSH2 0x178 JUMP JUMPDEST STOP JUMPDEST PUSH2 0xB8 PUSH1 0x4 DUP1 CALLDATASIZE SUB DUP2 ADD SWAP1 PUSH2 0xB3 SWAP2 SWAP1 PUSH2 0xEBF JUMP JUMPDEST PUSH2 0x41B JUMP JUMPDEST STOP JUMPDEST PUSH2 0xC2 PUSH2 0x69C JUMP JUMPDEST PUSH1 0x40 MLOAD PUSH2 0xCF SWAP2 SWAP1 PUSH2 0x111D JUMP JUMPDEST PUSH1 0x40 MLOAD DUP1 SWAP2 SUB SWAP1 RETURN JUMPDEST PUSH2 0xF2 PUSH1 0x4 DUP1 CALLDATASIZE SUB DUP2 ADD SWAP1 PUSH2 0xED SWAP2 SWAP1 PUSH2 0xE47 JUMP JUMPDEST PUSH2 0x6C0 JUMP JUMPDEST STOP JUMPDEST PUSH2 0x10E PUSH1 0x4 DUP1 CALLDATASIZE SUB DUP2 ADD SWAP1 PUSH2 0x109 SWAP2 SWAP1 PUSH2 0xEBF JUMP JUMPDEST PUSH2 0x7F7 JUMP JUMPDEST PUSH1 0x40 MLOAD PUSH2 0x123 SWAP10 SWAP9 SWAP8 SWAP7 SWAP6 SWAP5 SWAP4 SWAP3 SWAP2 SWAP1 PUSH2 0x12E5 JUMP JUMPDEST PUSH1 0x40 MLOAD DUP1 SWAP2 SUB SWAP1 RETURN JUMPDEST PUSH2 0x146 PUSH1 0x4 DUP1 CALLDATASIZE SUB DUP2 ADD SWAP1 PUSH2 0x141 SWAP2 SWAP1 PUSH2 0xEBF JUMP JUMPDEST PUSH2 0x8F4 JUMP JUMPDEST PUSH1 0x40 MLOAD PUSH2 0x153 SWAP2 SWAP1 PUSH2 0x12A1 JUMP JUMPDEST PUSH1 0x40 MLOAD DUP1 SWAP2 SUB SWAP1 RETURN JUMPDEST PUSH2 0x176 PUSH1 0x4 DUP1 CALLDATASIZE SUB DUP2 ADD SWAP1 PUSH2 0x171 SWAP2 SWAP1 PUSH2 0xEBF JUMP JUMPDEST PUSH2 0x918 JUMP JUMPDEST STOP JUMPDEST PUSH1 0x4 PUSH1 0x0 DUP4 DUP2 MSTORE PUSH1 0x20 ADD SWAP1 DUP2 MSTORE PUSH1 0x20 ADD PUSH1 0x0 KECCAK256 PUSH1 0x1 ADD PUSH1 0x0 SWAP1 SLOAD SWAP1 PUSH2 0x100 EXP SWAP1 DIV PUSH1 0xFF AND PUSH2 0x1DB JUMPI PUSH1 0x40 MLOAD PUSH32 0x8C379A000000000000000000000000000000000000000000000000000000000 DUP2 MSTORE PUSH1 0x4 ADD PUSH2 0x1D2 SWAP1 PUSH2 0x1221 JUMP JUMPDEST PUSH1 0x40 MLOAD DUP1 SWAP2 SUB SWAP1 REVERT JUMPDEST PUSH2 0x1E5 DUP3 CALLER PUSH2 0x9D2 JUMP JUMPDEST PUSH2 0x224 JUMPI PUSH1 0x40 MLOAD PUSH32 0x8C379A000000000000000000000000000000000000000000000000000000000 DUP2 MSTORE PUSH1 0x4 ADD PUSH2 0x21B SWAP1 PUSH2 0x1261 JUMP JUMPDEST PUSH1 0x40 MLOAD DUP1 SWAP2 SUB SWAP1 REVERT JUMPDEST PUSH1 0x4 PUSH1 0x0 DUP4 DUP2 MSTORE PUSH1 0x20 ADD SWAP1 DUP2 MSTORE PUSH1 0x20 ADD PUSH1 0x0 KECCAK256 PUSH1 0x8 ADD PUSH1 0x0 CALLER PUSH20 0xFFFFFFFFFFFFFFFFFFFFFFFFFFFFFFFFFFFFFFFF AND PUSH20 0xFFFFFFFFFFFFFFFFFFFFFFFFFFFFFFFFFFFFFFFF AND DUP2 MSTORE PUSH1 0x20 ADD SWAP1 DUP2 MSTORE PUSH1 0x20 ADD PUSH1 0x0 KECCAK256 PUSH1 0x0 SWAP1 SLOAD SWAP1 PUSH2 0x100 EXP SWAP1 DIV PUSH1 0xFF AND ISZERO PUSH2 0x2C5 JUMPI PUSH1 0x40 MLOAD PUSH32 0x8C379A000000000000000000000000000000000000000000000000000000000 DUP2 MSTORE PUSH1 0x4 ADD PUSH2 0x2BC SWAP1 PUSH2 0x1161 JUMP JUMPDEST PUSH1 0x40 MLOAD DUP1 SWAP2 SUB SWAP1 REVERT JUMPDEST PUSH1 0x4 PUSH1 0x0 DUP4 DUP2 MSTORE PUSH1 0x20 ADD SWAP1 DUP2 MSTORE PUSH1 0x20 ADD PUSH1 0x0 KECCAK256 PUSH1 0x3 ADD SLOAD NUMBER GT ISZERO PUSH2 0x31E JUMPI PUSH1 0x40 MLOAD PUSH32 0x8C379A000000000000000000000000000000000000000000000000000000000 DUP2 MSTORE PUSH1 0x4 ADD PUSH2 0x315 SWAP1 PUSH2 0x11C1 JUMP JUMPDEST PUSH1 0x40 MLOAD DUP1 SWAP2 SUB SWAP1 REVERT JUMPDEST PUSH1 0x0 PUSH1 0x4 PUSH1 0x0 DUP5 DUP2 MSTORE PUSH1 0x20 ADD SWAP1 DUP2 MSTORE PUSH1 0x20 ADD PUSH1 0x0 KECCAK256 SWAP1 POP DUP2 ISZERO PUSH2 0x35A JUMPI DUP1 PUSH1 0x4 ADD PUSH1 0x0 DUP2 SLOAD DUP1 SWAP3 SWAP2 SWAP1 PUSH2 0x350 SWAP1 PUSH2 0x15F9 JUMP JUMPDEST SWAP2 SWAP1 POP SSTORE POP PUSH2 0x375 JUMP JUMPDEST DUP1 PUSH1 0x5 ADD PUSH1 0x0 DUP2 SLOAD DUP1 SWAP3 SWAP2 SWAP1 PUSH2 0x36F SWAP1 PUSH2 0x15F9 JUMP JUMPDEST SWAP2 SWAP1 POP SSTORE POP JUMPDEST PUSH1 0x1 DUP2 PUSH1 0x8 ADD PUSH1 0x0 CALLER PUSH20 0xFFFFFFFFFFFFFFFFFFFFFFFFFFFFFFFFFFFFFFFF AND PUSH20 0xFFFFFFFFFFFFFFFFFFFFFFFFFFFFFFFFFFFFFFFF AND DUP2 MSTORE PUSH1 0x20 ADD SWAP1 DUP2 MSTORE PUSH1 0x20 ADD PUSH1 0x0 KECCAK256 PUSH1 0x0 PUSH2 0x100 EXP DUP2 SLOAD DUP2 PUSH1 0xFF MUL NOT AND SWAP1 DUP4 ISZERO ISZERO MUL OR SWAP1 SSTORE POP PUSH32 0x97A3ED91F0B116DC155F238AC92AA5B825720A7BB096F53156E05D9C8AB6A30A DUP2 PUSH1 0x4 ADD SLOAD DUP3 PUSH1 0x5 ADD SLOAD CALLER DUP7 DUP7 PUSH1 0x40 MLOAD PUSH2 0x40E SWAP6 SWAP5 SWAP4 SWAP3 SWAP2 SWAP1 PUSH2 0x13C5 JUMP JUMPDEST PUSH1 0x40 MLOAD DUP1 SWAP2 SUB SWAP1 LOG1 POP POP POP JUMP JUMPDEST PUSH1 0x0 DUP1 SLOAD SWAP1 PUSH2 0x100 EXP SWAP1 DIV PUSH20 0xFFFFFFFFFFFFFFFFFFFFFFFFFFFFFFFFFFFFFFFF AND PUSH20 0xFFFFFFFFFFFFFFFFFFFFFFFFFFFFFFFFFFFFFFFF AND CALLER PUSH20 0xFFFFFFFFFFFFFFFFFFFFFFFFFFFFFFFFFFFFFFFF AND EQ PUSH2 0x4A9 JUMPI PUSH1 0x40 MLOAD PUSH32 0x8C379A000000000000000000000000000000000000000000000000000000000 DUP2 MSTORE PUSH1 0x4 ADD PUSH2 0x4A0 SWAP1 PUSH2 0x1241 JUMP JUMPDEST PUSH1 0x40 MLOAD DUP1 SWAP2 SUB SWAP1 REVERT JUMPDEST PUSH1 0x4 PUSH1 0x0 DUP3 DUP2 MSTORE PUSH1 0x20 ADD SWAP1 DUP2 MSTORE PUSH1 0x20 ADD PUSH1 0x0 KECCAK256 PUSH1 0x1 ADD PUSH1 0x0 SWAP1 SLOAD SWAP1 PUSH2 0x100 EXP SWAP1 DIV PUSH1 0xFF AND PUSH2 0x50C JUMPI PUSH1 0x40 MLOAD PUSH32 0x8C379A000000000000000000000000000000000000000000000000000000000 DUP2 MSTORE PUSH1 0x4 ADD PUSH2 0x503 SWAP1 PUSH2 0x11A1 JUMP JUMPDEST PUSH1 0x40 MLOAD DUP1 SWAP2 SUB SWAP1 REVERT JUMPDEST PUSH1 0x4 PUSH1 0x0 DUP3 DUP2 MSTORE PUSH1 0x20 ADD SWAP1 DUP2 MSTORE PUSH1 0x20 ADD PUSH1 0x0 KECCAK256 PUSH1 0x3 ADD SLOAD NUMBER GT PUSH2 0x564 JUMPI PUSH1 0x40 MLOAD PUSH32 0x8C379A000000000000000000000000000000000000000000000000000000000 DUP2 MSTORE PUSH1 0x4 ADD PUSH2 0x55B SWAP1 PUSH2 0x1201 JUMP JUMPDEST PUSH1 0x40 MLOAD DUP1 SWAP2 SUB SWAP1 REVERT JUMPDEST PUSH1 0x4 PUSH1 0x0 DUP3 DUP2 MSTORE PUSH1 0x20 ADD SWAP1 DUP2 MSTORE PUSH1 0x20 ADD PUSH1 0x0 KECCAK256 PUSH1 0x9 ADD PUSH1 0x0 SWAP1 SLOAD SWAP1 PUSH2 0x100 EXP SWAP1 DIV PUSH1 0xFF AND ISZERO PUSH2 0x5C8 JUMPI PUSH1 0x40 MLOAD PUSH32 0x8C379A000000000000000000000000000000000000000000000000000000000 DUP2 MSTORE PUSH1 0x4 ADD PUSH2 0x5BF SWAP1 PUSH2 0x11E1 JUMP JUMPDEST PUSH1 0x40 MLOAD DUP1 SWAP2 SUB SWAP1 REVERT JUMPDEST PUSH1 0x0 PUSH1 0x4 PUSH1 0x0 DUP4 DUP2 MSTORE PUSH1 0x20 ADD SWAP1 DUP2 MSTORE PUSH1 0x20 ADD PUSH1 0x0 KECCAK256 SWAP1 POP PUSH1 0x4 PUSH1 0x0 DUP4 DUP2 MSTORE PUSH1 0x20 ADD SWAP1 DUP2 MSTORE PUSH1 0x20 ADD PUSH1 0x0 KECCAK256 PUSH1 0x4 ADD SLOAD PUSH1 0x4 PUSH1 0x0 DUP5 DUP2 MSTORE PUSH1 0x20 ADD SWAP1 DUP2 MSTORE PUSH1 0x20 ADD PUSH1 0x0 KECCAK256 PUSH1 0x5 ADD SLOAD LT ISZERO PUSH2 0x631 JUMPI PUSH1 0x1 DUP2 PUSH1 0x9 ADD PUSH1 0x1 PUSH2 0x100 EXP DUP2 SLOAD DUP2 PUSH1 0xFF MUL NOT AND SWAP1 DUP4 ISZERO ISZERO MUL OR SWAP1 SSTORE POP JUMPDEST PUSH1 0x1 DUP2 PUSH1 0x9 ADD PUSH1 0x0 PUSH2 0x100 EXP DUP2 SLOAD DUP2 PUSH1 0xFF MUL NOT AND SWAP1 DUP4 ISZERO ISZERO MUL OR SWAP1 SSTORE POP PUSH32 0x4556FCF667EE704924EEA359363D28F06708B744AD113340982B07EF9919FB91 DUP3 DUP3 PUSH1 0x9 ADD PUSH1 0x1 SWAP1 SLOAD SWAP1 PUSH2 0x100 EXP SWAP1 DIV PUSH1 0xFF AND PUSH1 0x40 MLOAD PUSH2 0x690 SWAP3 SWAP2 SWAP1 PUSH2 0x12BC JUMP JUMPDEST PUSH1 0x40 MLOAD DUP1 SWAP2 SUB SWAP1 LOG1 POP POP JUMP JUMPDEST PUSH1 0x0 DUP1 SLOAD SWAP1 PUSH2 0x100 EXP SWAP1 DIV PUSH20 0xFFFFFFFFFFFFFFFFFFFFFFFFFFFFFFFFFFFFFFFF AND DUP2 JUMP JUMPDEST PUSH2 0x6C9 CALLER PUSH2 0xAAA JUMP JUMPDEST PUSH2 0x708 JUMPI PUSH1 0x40 MLOAD PUSH32 0x8C379A000000000000000000000000000000000000000000000000000000000 DUP2 MSTORE PUSH1 0x4 ADD PUSH2 0x6FF SWAP1 PUSH2 0x1281 JUMP JUMPDEST PUSH1 0x40 MLOAD DUP1 SWAP2 SUB SWAP1 REVERT JUMPDEST PUSH1 0x0 PUSH1 0x4 PUSH1 0x0 PUSH1 0x1 SLOAD DUP2 MSTORE PUSH1 0x20 ADD SWAP1 DUP2 MSTORE PUSH1 0x20 ADD PUSH1 0x0 KECCAK256 SWAP1 POP PUSH1 0x1 SLOAD DUP2 PUSH1 0x0 ADD DUP2 SWAP1 SSTORE POP PUSH1 0x1 DUP2 PUSH1 0x1 ADD PUSH1 0x0 PUSH2 0x100 EXP DUP2 SLOAD DUP2 PUSH1 0xFF MUL NOT AND SWAP1 DUP4 ISZERO ISZERO MUL OR SWAP1 SSTORE POP DUP3 DUP2 PUSH1 0x2 ADD SWAP1 DUP1 MLOAD SWAP1 PUSH1 0x20 ADD SWAP1 PUSH2 0x761 SWAP3 SWAP2 SWAP1 PUSH2 0xBB8 JUMP JUMPDEST POP PUSH1 0x64 NUMBER PUSH2 0x76F SWAP2 SWAP1 PUSH2 0x14B6 JUMP JUMPDEST DUP2 PUSH1 0x3 ADD DUP2 SWAP1 SSTORE POP DUP2 DUP2 PUSH1 0x6 ADD SWAP1 DUP1 MLOAD SWAP1 PUSH1 0x20 ADD SWAP1 PUSH2 0x78F SWAP3 SWAP2 SWAP1 PUSH2 0xC3E JUMP JUMPDEST POP DUP2 MLOAD DUP2 PUSH1 0x7 ADD DUP2 SWAP1 SSTORE POP PUSH32 0x3EC21697EB8018B62928E5F290D2BCCF3AF51E8B6CDF71FCEAB712977647BBA9 PUSH1 0x1 SLOAD DUP5 DUP5 MLOAD CALLER PUSH1 0x40 MLOAD PUSH2 0x7D2 SWAP5 SWAP4 SWAP3 SWAP2 SWAP1 PUSH2 0x1379 JUMP JUMPDEST PUSH1 0x40 MLOAD DUP1 SWAP2 SUB SWAP1 LOG1 PUSH1 0x1 PUSH1 0x0 DUP2 SLOAD DUP1 SWAP3 SWAP2 SWAP1 PUSH2 0x7ED SWAP1 PUSH2 0x15F9 JUMP JUMPDEST SWAP2 SWAP1 POP SSTORE POP POP POP POP JUMP JUMPDEST PUSH1 0x4 PUSH1 0x20 MSTORE DUP1 PUSH1 0x0 MSTORE PUSH1 0x40 PUSH1 0x0 KECCAK256 PUSH1 0x0 SWAP2 POP SWAP1 POP DUP1 PUSH1 0x0 ADD SLOAD SWAP1 DUP1 PUSH1 0x1 ADD PUSH1 0x0 SWAP1 SLOAD SWAP1 PUSH2 0x100 EXP SWAP1 DIV PUSH1 0xFF AND SWAP1 DUP1 PUSH1 0x2 ADD DUP1 SLOAD PUSH2 0x833 SWAP1 PUSH2 0x1596 JUMP JUMPDEST DUP1 PUSH1 0x1F ADD PUSH1 0x20 DUP1 SWAP2 DIV MUL PUSH1 0x20 ADD PUSH1 0x40 MLOAD SWAP1 DUP2 ADD PUSH1 0x40 MSTORE DUP1 SWAP3 SWAP2 SWAP1 DUP2 DUP2 MSTORE PUSH1 0x20 ADD DUP3 DUP1 SLOAD PUSH2 0x85F SWAP1 PUSH2 0x1596 JUMP JUMPDEST DUP1 ISZERO PUSH2 0x8AC JUMPI DUP1 PUSH1 0x1F LT PUSH2 0x881 JUMPI PUSH2 0x100 DUP1 DUP4 SLOAD DIV MUL DUP4 MSTORE SWAP2 PUSH1 0x20 ADD SWAP2 PUSH2 0x8AC JUMP JUMPDEST DUP3 ADD SWAP2 SWAP1 PUSH1 0x0 MSTORE PUSH1 0x20 PUSH1 0x0 KECCAK256 SWAP1 JUMPDEST DUP2 SLOAD DUP2 MSTORE SWAP1 PUSH1 0x1 ADD SWAP1 PUSH1 0x20 ADD DUP1 DUP4 GT PUSH2 0x88F JUMPI DUP3 SWAP1 SUB PUSH1 0x1F AND DUP3 ADD SWAP2 JUMPDEST POP POP POP POP POP SWAP1 DUP1 PUSH1 0x3 ADD SLOAD SWAP1 DUP1 PUSH1 0x4 ADD SLOAD SWAP1 DUP1 PUSH1 0x5 ADD SLOAD SWAP1 DUP1 PUSH1 0x7 ADD SLOAD SWAP1 DUP1 PUSH1 0x9 ADD PUSH1 0x0 SWAP1 SLOAD SWAP1 PUSH2 0x100 EXP SWAP1 DIV PUSH1 0xFF AND SWAP1 DUP1 PUSH1 0x9 ADD PUSH1 0x1 SWAP1 SLOAD SWAP1 PUSH2 0x100 EXP SWAP1 DIV PUSH1 0xFF AND SWAP1 POP DUP10 JUMP JUMPDEST PUSH1 0x2 DUP2 DUP2 SLOAD DUP2 LT PUSH2 0x904 JUMPI PUSH1 0x0 DUP1 REVERT JUMPDEST SWAP1 PUSH1 0x0 MSTORE PUSH1 0x20 PUSH1 0x0 KECCAK256 ADD PUSH1 0x0 SWAP2 POP SWAP1 POP SLOAD DUP2 JUMP JUMPDEST PUSH1 0x0 DUP1 SLOAD SWAP1 PUSH2 0x100 EXP SWAP1 DIV PUSH20 0xFFFFFFFFFFFFFFFFFFFFFFFFFFFFFFFFFFFFFFFF AND PUSH20 0xFFFFFFFFFFFFFFFFFFFFFFFFFFFFFFFFFFFFFFFF AND CALLER PUSH20 0xFFFFFFFFFFFFFFFFFFFFFFFFFFFFFFFFFFFFFFFF AND EQ PUSH2 0x9A6 JUMPI PUSH1 0x40 MLOAD PUSH32 0x8C379A000000000000000000000000000000000000000000000000000000000 DUP2 MSTORE PUSH1 0x4 ADD PUSH2 0x99D SWAP1 PUSH2 0x1181 JUMP JUMPDEST PUSH1 0x40 MLOAD DUP1 SWAP2 SUB SWAP1 REVERT JUMPDEST PUSH1 0x2 DUP2 SWAP1 DUP1 PUSH1 0x1 DUP2 SLOAD ADD DUP1 DUP3 SSTORE DUP1 SWAP2 POP POP PUSH1 0x1 SWAP1 SUB SWAP1 PUSH1 0x0 MSTORE PUSH1 0x20 PUSH1 0x0 KECCAK256 ADD PUSH1 0x0 SWAP1 SWAP2 SWAP1 SWAP2 SWAP1 SWAP2 POP SSTORE POP JUMP JUMPDEST PUSH1 0x0 DUP1 PUSH1 0x0 SWAP1 POP JUMPDEST PUSH1 0x4 PUSH1 0x0 DUP6 DUP2 MSTORE PUSH1 0x20 ADD SWAP1 DUP2 MSTORE PUSH1 0x20 ADD PUSH1 0x0 KECCAK256 PUSH1 0x6 ADD DUP1 SLOAD SWAP1 POP DUP2 LT ISZERO PUSH2 0xA9E JUMPI DUP3 PUSH20 0xFFFFFFFFFFFFFFFFFFFFFFFFFFFFFFFFFFFFFFFF AND PUSH1 0x4 PUSH1 0x0 DUP7 DUP2 MSTORE PUSH1 0x20 ADD SWAP1 DUP2 MSTORE PUSH1 0x20 ADD PUSH1 0x0 KECCAK256 PUSH1 0x6 ADD DUP3 DUP2 SLOAD DUP2 LT PUSH2 0xA3A JUMPI PUSH2 0xA39 PUSH2 0x16A0 JUMP JUMPDEST JUMPDEST SWAP1 PUSH1 0x0 MSTORE PUSH1 0x20 PUSH1 0x0 KECCAK256 ADD PUSH1 0x0 SWAP1 SLOAD SWAP1 PUSH2 0x100 EXP SWAP1 DIV PUSH20 0xFFFFFFFFFFFFFFFFFFFFFFFFFFFFFFFFFFFFFFFF AND PUSH20 0xFFFFFFFFFFFFFFFFFFFFFFFFFFFFFFFFFFFFFFFF AND EQ ISZERO PUSH2 0xA8B JUMPI PUSH1 0x1 SWAP2 POP POP PUSH2 0xAA4 JUMP JUMPDEST DUP1 DUP1 PUSH2 0xA96 SWAP1 PUSH2 0x15F9 JUMP JUMPDEST SWAP2 POP POP PUSH2 0x9DA JUMP JUMPDEST POP PUSH1 0x0 SWAP1 POP JUMPDEST SWAP3 SWAP2 POP POP JUMP JUMPDEST PUSH1 0x0 DUP1 PUSH1 0x0 SWAP1 POP JUMPDEST PUSH1 0x2 DUP1 SLOAD SWAP1 POP DUP2 LT ISZERO PUSH2 0xBAD JUMPI PUSH1 0x1 PUSH1 0x3 PUSH1 0x0 SWAP1 SLOAD SWAP1 PUSH2 0x100 EXP SWAP1 DIV PUSH20 0xFFFFFFFFFFFFFFFFFFFFFFFFFFFFFFFFFFFFFFFF AND PUSH20 0xFFFFFFFFFFFFFFFFFFFFFFFFFFFFFFFFFFFFFFFF AND PUSH3 0xFDD58E DUP6 PUSH1 0x2 DUP6 DUP2 SLOAD DUP2 LT PUSH2 0xB13 JUMPI PUSH2 0xB12 PUSH2 0x16A0 JUMP JUMPDEST JUMPDEST SWAP1 PUSH1 0x0 MSTORE PUSH1 0x20 PUSH1 0x0 KECCAK256 ADD SLOAD PUSH1 0x40 MLOAD DUP4 PUSH4 0xFFFFFFFF AND PUSH1 0xE0 SHL DUP2 MSTORE PUSH1 0x4 ADD PUSH2 0xB3B SWAP3 SWAP2 SWAP1 PUSH2 0x1138 JUMP JUMPDEST PUSH1 0x20 PUSH1 0x40 MLOAD DUP1 DUP4 SUB DUP2 DUP7 DUP1 EXTCODESIZE ISZERO DUP1 ISZERO PUSH2 0xB53 JUMPI PUSH1 0x0 DUP1 REVERT JUMPDEST POP GAS STATICCALL ISZERO DUP1 ISZERO PUSH2 0xB67 JUMPI RETURNDATASIZE PUSH1 0x0 DUP1 RETURNDATACOPY RETURNDATASIZE PUSH1 0x0 REVERT JUMPDEST POP POP POP POP PUSH1 0x40 MLOAD RETURNDATASIZE PUSH1 0x1F NOT PUSH1 0x1F DUP3 ADD AND DUP3 ADD DUP1 PUSH1 0x40 MSTORE POP DUP2 ADD SWAP1 PUSH2 0xB8B SWAP2 SWAP1 PUSH2 0xEEC JUMP JUMPDEST LT PUSH2 0xB9A JUMPI PUSH1 0x1 SWAP2 POP POP PUSH2 0xBB3 JUMP JUMPDEST DUP1 DUP1 PUSH2 0xBA5 SWAP1 PUSH2 0x15F9 JUMP JUMPDEST SWAP2 POP POP PUSH2 0xAB2 JUMP JUMPDEST POP PUSH1 0x0 SWAP1 POP JUMPDEST SWAP2 SWAP1 POP JUMP JUMPDEST DUP3 DUP1 SLOAD PUSH2 0xBC4 SWAP1 PUSH2 0x1596 JUMP JUMPDEST SWAP1 PUSH1 0x0 MSTORE PUSH1 0x20 PUSH1 0x0 KECCAK256 SWAP1 PUSH1 0x1F ADD PUSH1 0x20 SWAP1 DIV DUP2 ADD SWAP3 DUP3 PUSH2 0xBE6 JUMPI PUSH1 0x0 DUP6 SSTORE PUSH2 0xC2D JUMP JUMPDEST DUP3 PUSH1 0x1F LT PUSH2 0xBFF JUMPI DUP1 MLOAD PUSH1 0xFF NOT AND DUP4 DUP1 ADD OR DUP6 SSTORE PUSH2 0xC2D JUMP JUMPDEST DUP3 DUP1 ADD PUSH1 0x1 ADD DUP6 SSTORE DUP3 ISZERO PUSH2 0xC2D JUMPI SWAP2 DUP3 ADD JUMPDEST DUP3 DUP2 GT ISZERO PUSH2 0xC2C JUMPI DUP3 MLOAD DUP3 SSTORE SWAP2 PUSH1 0x20 ADD SWAP2 SWAP1 PUSH1 0x1 ADD SWAP1 PUSH2 0xC11 JUMP JUMPDEST JUMPDEST POP SWAP1 POP PUSH2 0xC3A SWAP2 SWAP1 PUSH2 0xCC8 JUMP JUMPDEST POP SWAP1 JUMP JUMPDEST DUP3 DUP1 SLOAD DUP3 DUP3 SSTORE SWAP1 PUSH1 0x0 MSTORE PUSH1 0x20 PUSH1 0x0 KECCAK256 SWAP1 DUP2 ADD SWAP3 DUP3 ISZERO PUSH2 0xCB7 JUMPI SWAP2 PUSH1 0x20 MUL DUP3 ADD JUMPDEST DUP3 DUP2 GT ISZERO PUSH2 0xCB6 JUMPI DUP3 MLOAD DUP3 PUSH1 0x0 PUSH2 0x100 EXP DUP2 SLOAD DUP2 PUSH20 0xFFFFFFFFFFFFFFFFFFFFFFFFFFFFFFFFFFFFFFFF MUL NOT AND SWAP1 DUP4 PUSH20 0xFFFFFFFFFFFFFFFFFFFFFFFFFFFFFFFFFFFFFFFF AND MUL OR SWAP1 SSTORE POP SWAP2 PUSH1 0x20 ADD SWAP2 SWAP1 PUSH1 0x1 ADD SWAP1 PUSH2 0xC5E JUMP JUMPDEST JUMPDEST POP SWAP1 POP PUSH2 0xCC4 SWAP2 SWAP1 PUSH2 0xCC8 JUMP JUMPDEST POP SWAP1 JUMP JUMPDEST JUMPDEST DUP1 DUP3 GT ISZERO PUSH2 0xCE1 JUMPI PUSH1 0x0 DUP2 PUSH1 0x0 SWAP1 SSTORE POP PUSH1 0x1 ADD PUSH2 0xCC9 JUMP JUMPDEST POP SWAP1 JUMP JUMPDEST PUSH1 0x0 PUSH2 0xCF8 PUSH2 0xCF3 DUP5 PUSH2 0x143D JUMP JUMPDEST PUSH2 0x1418 JUMP JUMPDEST SWAP1 POP DUP1 DUP4 DUP3 MSTORE PUSH1 0x20 DUP3 ADD SWAP1 POP DUP3 DUP6 PUSH1 0x20 DUP7 MUL DUP3 ADD GT ISZERO PUSH2 0xD1B JUMPI PUSH2 0xD1A PUSH2 0x1703 JUMP JUMPDEST JUMPDEST PUSH1 0x0 JUMPDEST DUP6 DUP2 LT ISZERO PUSH2 0xD4B JUMPI DUP2 PUSH2 0xD31 DUP9 DUP3 PUSH2 0xD97 JUMP JUMPDEST DUP5 MSTORE PUSH1 0x20 DUP5 ADD SWAP4 POP PUSH1 0x20 DUP4 ADD SWAP3 POP POP PUSH1 0x1 DUP2 ADD SWAP1 POP PUSH2 0xD1E JUMP JUMPDEST POP POP POP SWAP4 SWAP3 POP POP POP JUMP JUMPDEST PUSH1 0x0 PUSH2 0xD68 PUSH2 0xD63 DUP5 PUSH2 0x1469 JUMP JUMPDEST PUSH2 0x1418 JUMP JUMPDEST SWAP1 POP DUP3 DUP2 MSTORE PUSH1 0x20 DUP2 ADD DUP5 DUP5 DUP5 ADD GT ISZERO PUSH2 0xD84 JUMPI PUSH2 0xD83 PUSH2 0x1708 JUMP JUMPDEST JUMPDEST PUSH2 0xD8F DUP5 DUP3 DUP6 PUSH2 0x1554 JUMP JUMPDEST POP SWAP4 SWAP3 POP POP POP JUMP JUMPDEST PUSH1 0x0 DUP2 CALLDATALOAD SWAP1 POP PUSH2 0xDA6 DUP2 PUSH2 0x195A JUMP JUMPDEST SWAP3 SWAP2 POP POP JUMP JUMPDEST PUSH1 0x0 DUP3 PUSH1 0x1F DUP4 ADD SLT PUSH2 0xDC1 JUMPI PUSH2 0xDC0 PUSH2 0x16FE JUMP JUMPDEST JUMPDEST DUP2 CALLDATALOAD PUSH2 0xDD1 DUP5 DUP3 PUSH1 0x20 DUP7 ADD PUSH2 0xCE5 JUMP JUMPDEST SWAP2 POP POP SWAP3 SWAP2 POP POP JUMP JUMPDEST PUSH1 0x0 DUP2 CALLDATALOAD SWAP1 POP PUSH2 0xDE9 DUP2 PUSH2 0x1971 JUMP JUMPDEST SWAP3 SWAP2 POP POP JUMP JUMPDEST PUSH1 0x0 DUP3 PUSH1 0x1F DUP4 ADD SLT PUSH2 0xE04 JUMPI PUSH2 0xE03 PUSH2 0x16FE JUMP JUMPDEST JUMPDEST DUP2 CALLDATALOAD PUSH2 0xE14 DUP5 DUP3 PUSH1 0x20 DUP7 ADD PUSH2 0xD55 JUMP JUMPDEST SWAP2 POP POP SWAP3 SWAP2 POP POP JUMP JUMPDEST PUSH1 0x0 DUP2 CALLDATALOAD SWAP1 POP PUSH2 0xE2C DUP2 PUSH2 0x1988 JUMP JUMPDEST SWAP3 SWAP2 POP POP JUMP JUMPDEST PUSH1 0x0 DUP2 MLOAD SWAP1 POP PUSH2 0xE41 DUP2 PUSH2 0x1988 JUMP JUMPDEST SWAP3 SWAP2 POP POP JUMP JUMPDEST PUSH1 0x0 DUP1 PUSH1 0x40 DUP4 DUP6 SUB SLT ISZERO PUSH2 0xE5E JUMPI PUSH2 0xE5D PUSH2 0x1712 JUMP JUMPDEST JUMPDEST PUSH1 0x0 DUP4 ADD CALLDATALOAD PUSH8 0xFFFFFFFFFFFFFFFF DUP2 GT ISZERO PUSH2 0xE7C JUMPI PUSH2 0xE7B PUSH2 0x170D JUMP JUMPDEST JUMPDEST PUSH2 0xE88 DUP6 DUP3 DUP7 ADD PUSH2 0xDEF JUMP JUMPDEST SWAP3 POP POP PUSH1 0x20 DUP4 ADD CALLDATALOAD PUSH8 0xFFFFFFFFFFFFFFFF DUP2 GT ISZERO PUSH2 0xEA9 JUMPI PUSH2 0xEA8 PUSH2 0x170D JUMP JUMPDEST JUMPDEST PUSH2 0xEB5 DUP6 DUP3 DUP7 ADD PUSH2 0xDAC JUMP JUMPDEST SWAP2 POP POP SWAP3 POP SWAP3 SWAP1 POP JUMP JUMPDEST PUSH1 0x0 PUSH1 0x20 DUP3 DUP5 SUB SLT ISZERO PUSH2 0xED5 JUMPI PUSH2 0xED4 PUSH2 0x1712 JUMP JUMPDEST JUMPDEST PUSH1 0x0 PUSH2 0xEE3 DUP5 DUP3 DUP6 ADD PUSH2 0xE1D JUMP JUMPDEST SWAP2 POP POP SWAP3 SWAP2 POP POP JUMP JUMPDEST PUSH1 0x0 PUSH1 0x20 DUP3 DUP5 SUB SLT ISZERO PUSH2 0xF02 JUMPI PUSH2 0xF01 PUSH2 0x1712 JUMP JUMPDEST JUMPDEST PUSH1 0x0 PUSH2 0xF10 DUP5 DUP3 DUP6 ADD PUSH2 0xE32 JUMP JUMPDEST SWAP2 POP POP SWAP3 SWAP2 POP POP JUMP JUMPDEST PUSH1 0x0 DUP1 PUSH1 0x40 DUP4 DUP6 SUB SLT ISZERO PUSH2 0xF30 JUMPI PUSH2 0xF2F PUSH2 0x1712 JUMP JUMPDEST JUMPDEST PUSH1 0x0 PUSH2 0xF3E DUP6 DUP3 DUP7 ADD PUSH2 0xE1D JUMP JUMPDEST SWAP3 POP POP PUSH1 0x20 PUSH2 0xF4F DUP6 DUP3 DUP7 ADD PUSH2 0xDDA JUMP JUMPDEST SWAP2 POP POP SWAP3 POP SWAP3 SWAP1 POP JUMP JUMPDEST PUSH2 0xF62 DUP2 PUSH2 0x150C JUMP JUMPDEST DUP3 MSTORE POP POP JUMP JUMPDEST PUSH2 0xF71 DUP2 PUSH2 0x151E JUMP JUMPDEST DUP3 MSTORE POP POP JUMP JUMPDEST PUSH1 0x0 PUSH2 0xF82 DUP3 PUSH2 0x149A JUMP JUMPDEST PUSH2 0xF8C DUP2 DUP6 PUSH2 0x14A5 JUMP JUMPDEST SWAP4 POP PUSH2 0xF9C DUP2 DUP6 PUSH1 0x20 DUP7 ADD PUSH2 0x1563 JUMP JUMPDEST PUSH2 0xFA5 DUP2 PUSH2 0x1717 JUMP JUMPDEST DUP5 ADD SWAP2 POP POP SWAP3 SWAP2 POP POP JUMP JUMPDEST PUSH1 0x0 PUSH2 0xFBD PUSH1 0x27 DUP4 PUSH2 0x14A5 JUMP JUMPDEST SWAP2 POP PUSH2 0xFC8 DUP3 PUSH2 0x1728 JUMP JUMPDEST PUSH1 0x40 DUP3 ADD SWAP1 POP SWAP2 SWAP1 POP JUMP JUMPDEST PUSH1 0x0 PUSH2 0xFE0 PUSH1 0x24 DUP4 PUSH2 0x14A5 JUMP JUMPDEST SWAP2 POP PUSH2 0xFEB DUP3 PUSH2 0x1777 JUMP JUMPDEST PUSH1 0x40 DUP3 ADD SWAP1 POP SWAP2 SWAP1 POP JUMP JUMPDEST PUSH1 0x0 PUSH2 0x1003 PUSH1 0x1C DUP4 PUSH2 0x14A5 JUMP JUMPDEST SWAP2 POP PUSH2 0x100E DUP3 PUSH2 0x17C6 JUMP JUMPDEST PUSH1 0x20 DUP3 ADD SWAP1 POP SWAP2 SWAP1 POP JUMP JUMPDEST PUSH1 0x0 PUSH2 0x1026 PUSH1 0x29 DUP4 PUSH2 0x14A5 JUMP JUMPDEST SWAP2 POP PUSH2 0x1031 DUP3 PUSH2 0x17EF JUMP JUMPDEST PUSH1 0x40 DUP3 ADD SWAP1 POP SWAP2 SWAP1 POP JUMP JUMPDEST PUSH1 0x0 PUSH2 0x1049 PUSH1 0x17 DUP4 PUSH2 0x14A5 JUMP JUMPDEST SWAP2 POP PUSH2 0x1054 DUP3 PUSH2 0x183E JUMP JUMPDEST PUSH1 0x20 DUP3 ADD SWAP1 POP SWAP2 SWAP1 POP JUMP JUMPDEST PUSH1 0x0 PUSH2 0x106C PUSH1 0x18 DUP4 PUSH2 0x14A5 JUMP JUMPDEST SWAP2 POP PUSH2 0x1077 DUP3 PUSH2 0x1867 JUMP JUMPDEST PUSH1 0x20 DUP3 ADD SWAP1 POP SWAP2 SWAP1 POP JUMP JUMPDEST PUSH1 0x0 PUSH2 0x108F PUSH1 0x1C DUP4 PUSH2 0x14A5 JUMP JUMPDEST SWAP2 POP PUSH2 0x109A DUP3 PUSH2 0x1890 JUMP JUMPDEST PUSH1 0x20 DUP3 ADD SWAP1 POP SWAP2 SWAP1 POP JUMP JUMPDEST PUSH1 0x0 PUSH2 0x10B2 PUSH1 0x1A DUP4 PUSH2 0x14A5 JUMP JUMPDEST SWAP2 POP PUSH2 0x10BD DUP3 PUSH2 0x18B9 JUMP JUMPDEST PUSH1 0x20 DUP3 ADD SWAP1 POP SWAP2 SWAP1 POP JUMP JUMPDEST PUSH1 0x0 PUSH2 0x10D5 PUSH1 0x20 DUP4 PUSH2 0x14A5 JUMP JUMPDEST SWAP2 POP PUSH2 0x10E0 DUP3 PUSH2 0x18E2 JUMP JUMPDEST PUSH1 0x20 DUP3 ADD SWAP1 POP SWAP2 SWAP1 POP JUMP JUMPDEST PUSH1 0x0 PUSH2 0x10F8 PUSH1 0x25 DUP4 PUSH2 0x14A5 JUMP JUMPDEST SWAP2 POP PUSH2 0x1103 DUP3 PUSH2 0x190B JUMP JUMPDEST PUSH1 0x40 DUP3 ADD SWAP1 POP SWAP2 SWAP1 POP JUMP JUMPDEST PUSH2 0x1117 DUP2 PUSH2 0x154A JUMP JUMPDEST DUP3 MSTORE POP POP JUMP JUMPDEST PUSH1 0x0 PUSH1 0x20 DUP3 ADD SWAP1 POP PUSH2 0x1132 PUSH1 0x0 DUP4 ADD DUP5 PUSH2 0xF59 JUMP JUMPDEST SWAP3 SWAP2 POP POP JUMP JUMPDEST PUSH1 0x0 PUSH1 0x40 DUP3 ADD SWAP1 POP PUSH2 0x114D PUSH1 0x0 DUP4 ADD DUP6 PUSH2 0xF59 JUMP JUMPDEST PUSH2 0x115A PUSH1 0x20 DUP4 ADD DUP5 PUSH2 0x110E JUMP JUMPDEST SWAP4 SWAP3 POP POP POP JUMP JUMPDEST PUSH1 0x0 PUSH1 0x20 DUP3 ADD SWAP1 POP DUP2 DUP2 SUB PUSH1 0x0 DUP4 ADD MSTORE PUSH2 0x117A DUP2 PUSH2 0xFB0 JUMP JUMPDEST SWAP1 POP SWAP2 SWAP1 POP JUMP JUMPDEST PUSH1 0x0 PUSH1 0x20 DUP3 ADD SWAP1 POP DUP2 DUP2 SUB PUSH1 0x0 DUP4 ADD MSTORE PUSH2 0x119A DUP2 PUSH2 0xFD3 JUMP JUMPDEST SWAP1 POP SWAP2 SWAP1 POP JUMP JUMPDEST PUSH1 0x0 PUSH1 0x20 DUP3 ADD SWAP1 POP DUP2 DUP2 SUB PUSH1 0x0 DUP4 ADD MSTORE PUSH2 0x11BA DUP2 PUSH2 0xFF6 JUMP JUMPDEST SWAP1 POP SWAP2 SWAP1 POP JUMP JUMPDEST PUSH1 0x0 PUSH1 0x20 DUP3 ADD SWAP1 POP DUP2 DUP2 SUB PUSH1 0x0 DUP4 ADD MSTORE PUSH2 0x11DA DUP2 PUSH2 0x1019 JUMP JUMPDEST SWAP1 POP SWAP2 SWAP1 POP JUMP JUMPDEST PUSH1 0x0 PUSH1 0x20 DUP3 ADD SWAP1 POP DUP2 DUP2 SUB PUSH1 0x0 DUP4 ADD MSTORE PUSH2 0x11FA DUP2 PUSH2 0x103C JUMP JUMPDEST SWAP1 POP SWAP2 SWAP1 POP JUMP JUMPDEST PUSH1 0x0 PUSH1 0x20 DUP3 ADD SWAP1 POP DUP2 DUP2 SUB PUSH1 0x0 DUP4 ADD MSTORE PUSH2 0x121A DUP2 PUSH2 0x105F JUMP JUMPDEST SWAP1 POP SWAP2 SWAP1 POP JUMP JUMPDEST PUSH1 0x0 PUSH1 0x20 DUP3 ADD SWAP1 POP DUP2 DUP2 SUB PUSH1 0x0 DUP4 ADD MSTORE PUSH2 0x123A DUP2 PUSH2 0x1082 JUMP JUMPDEST SWAP1 POP SWAP2 SWAP1 POP JUMP JUMPDEST PUSH1 0x0 PUSH1 0x20 DUP3 ADD SWAP1 POP DUP2 DUP2 SUB PUSH1 0x0 DUP4 ADD MSTORE PUSH2 0x125A DUP2 PUSH2 0x10A5 JUMP JUMPDEST SWAP1 POP SWAP2 SWAP1 POP JUMP JUMPDEST PUSH1 0x0 PUSH1 0x20 DUP3 ADD SWAP1 POP DUP2 DUP2 SUB PUSH1 0x0 DUP4 ADD MSTORE PUSH2 0x127A DUP2 PUSH2 0x10C8 JUMP JUMPDEST SWAP1 POP SWAP2 SWAP1 POP JUMP JUMPDEST PUSH1 0x0 PUSH1 0x20 DUP3 ADD SWAP1 POP DUP2 DUP2 SUB PUSH1 0x0 DUP4 ADD MSTORE PUSH2 0x129A DUP2 PUSH2 0x10EB JUMP JUMPDEST SWAP1 POP SWAP2 SWAP1 POP JUMP JUMPDEST PUSH1 0x0 PUSH1 0x20 DUP3 ADD SWAP1 POP PUSH2 0x12B6 PUSH1 0x0 DUP4 ADD DUP5 PUSH2 0x110E JUMP JUMPDEST SWAP3 SWAP2 POP POP JUMP JUMPDEST PUSH1 0x0 PUSH1 0x40 DUP3 ADD SWAP1 POP PUSH2 0x12D1 PUSH1 0x0 DUP4 ADD DUP6 PUSH2 0x110E JUMP JUMPDEST PUSH2 0x12DE PUSH1 0x20 DUP4 ADD DUP5 PUSH2 0xF68 JUMP JUMPDEST SWAP4 SWAP3 POP POP POP JUMP JUMPDEST PUSH1 0x0 PUSH2 0x120 DUP3 ADD SWAP1 POP PUSH2 0x12FB PUSH1 0x0 DUP4 ADD DUP13 PUSH2 0x110E JUMP JUMPDEST PUSH2 0x1308 PUSH1 0x20 DUP4 ADD DUP12 PUSH2 0xF68 JUMP JUMPDEST DUP2 DUP2 SUB PUSH1 0x40 DUP4 ADD MSTORE PUSH2 0x131A DUP2 DUP11 PUSH2 0xF77 JUMP JUMPDEST SWAP1 POP PUSH2 0x1329 PUSH1 0x60 DUP4 ADD DUP10 PUSH2 0x110E JUMP JUMPDEST PUSH2 0x1336 PUSH1 0x80 DUP4 ADD DUP9 PUSH2 0x110E JUMP JUMPDEST PUSH2 0x1343 PUSH1 0xA0 DUP4 ADD DUP8 PUSH2 0x110E JUMP JUMPDEST PUSH2 0x1350 PUSH1 0xC0 DUP4 ADD DUP7 PUSH2 0x110E JUMP JUMPDEST PUSH2 0x135D PUSH1 0xE0 DUP4 ADD DUP6 PUSH2 0xF68 JUMP JUMPDEST PUSH2 0x136B PUSH2 0x100 DUP4 ADD DUP5 PUSH2 0xF68 JUMP JUMPDEST SWAP11 SWAP10 POP POP POP POP POP POP POP POP POP POP JUMP JUMPDEST PUSH1 0x0 PUSH1 0x80 DUP3 ADD SWAP1 POP PUSH2 0x138E PUSH1 0x0 DUP4 ADD DUP8 PUSH2 0x110E JUMP JUMPDEST DUP2 DUP2 SUB PUSH1 0x20 DUP4 ADD MSTORE PUSH2 0x13A0 DUP2 DUP7 PUSH2 0xF77 JUMP JUMPDEST SWAP1 POP PUSH2 0x13AF PUSH1 0x40 DUP4 ADD DUP6 PUSH2 0x110E JUMP JUMPDEST PUSH2 0x13BC PUSH1 0x60 DUP4 ADD DUP5 PUSH2 0xF59 JUMP JUMPDEST SWAP6 SWAP5 POP POP POP POP POP JUMP JUMPDEST PUSH1 0x0 PUSH1 0xA0 DUP3 ADD SWAP1 POP PUSH2 0x13DA PUSH1 0x0 DUP4 ADD DUP9 PUSH2 0x110E JUMP JUMPDEST PUSH2 0x13E7 PUSH1 0x20 DUP4 ADD DUP8 PUSH2 0x110E JUMP JUMPDEST PUSH2 0x13F4 PUSH1 0x40 DUP4 ADD DUP7 PUSH2 0xF59 JUMP JUMPDEST PUSH2 0x1401 PUSH1 0x60 DUP4 ADD DUP6 PUSH2 0x110E JUMP JUMPDEST PUSH2 0x140E PUSH1 0x80 DUP4 ADD DUP5 PUSH2 0xF68 JUMP JUMPDEST SWAP7 SWAP6 POP POP POP POP POP POP JUMP JUMPDEST PUSH1 0x0 PUSH2 0x1422 PUSH2 0x1433 JUMP JUMPDEST SWAP1 POP PUSH2 0x142E DUP3 DUP3 PUSH2 0x15C8 JUMP JUMPDEST SWAP2 SWAP1 POP JUMP JUMPDEST PUSH1 0x0 PUSH1 0x40 MLOAD SWAP1 POP SWAP1 JUMP JUMPDEST PUSH1 0x0 PUSH8 0xFFFFFFFFFFFFFFFF DUP3 GT ISZERO PUSH2 0x1458 JUMPI PUSH2 0x1457 PUSH2 0x16CF JUMP JUMPDEST JUMPDEST PUSH1 0x20 DUP3 MUL SWAP1 POP PUSH1 0x20 DUP2 ADD SWAP1 POP SWAP2 SWAP1 POP JUMP JUMPDEST PUSH1 0x0 PUSH8 0xFFFFFFFFFFFFFFFF DUP3 GT ISZERO PUSH2 0x1484 JUMPI PUSH2 0x1483 PUSH2 0x16CF JUMP JUMPDEST JUMPDEST PUSH2 0x148D DUP3 PUSH2 0x1717 JUMP JUMPDEST SWAP1 POP PUSH1 0x20 DUP2 ADD SWAP1 POP SWAP2 SWAP1 POP JUMP JUMPDEST PUSH1 0x0 DUP2 MLOAD SWAP1 POP SWAP2 SWAP1 POP JUMP JUMPDEST PUSH1 0x0 DUP3 DUP3 MSTORE PUSH1 0x20 DUP3 ADD SWAP1 POP SWAP3 SWAP2 POP POP JUMP JUMPDEST PUSH1 0x0 PUSH2 0x14C1 DUP3 PUSH2 0x154A JUMP JUMPDEST SWAP2 POP PUSH2 0x14CC DUP4 PUSH2 0x154A JUMP JUMPDEST SWAP3 POP DUP3 PUSH32 0xFFFFFFFFFFFFFFFFFFFFFFFFFFFFFFFFFFFFFFFFFFFFFFFFFFFFFFFFFFFFFFFF SUB DUP3 GT ISZERO PUSH2 0x1501 JUMPI PUSH2 0x1500 PUSH2 0x1642 JUMP JUMPDEST JUMPDEST DUP3 DUP3 ADD SWAP1 POP SWAP3 SWAP2 POP POP JUMP JUMPDEST PUSH1 0x0 PUSH2 0x1517 DUP3 PUSH2 0x152A JUMP JUMPDEST SWAP1 POP SWAP2 SWAP1 POP JUMP JUMPDEST PUSH1 0x0 DUP2 ISZERO ISZERO SWAP1 POP SWAP2 SWAP1 POP JUMP JUMPDEST PUSH1 0x0 PUSH20 0xFFFFFFFFFFFFFFFFFFFFFFFFFFFFFFFFFFFFFFFF DUP3 AND SWAP1 POP SWAP2 SWAP1 POP JUMP JUMPDEST PUSH1 0x0 DUP2 SWAP1 POP SWAP2 SWAP1 POP JUMP JUMPDEST DUP3 DUP2 DUP4 CALLDATACOPY PUSH1 0x0 DUP4 DUP4 ADD MSTORE POP POP POP JUMP JUMPDEST PUSH1 0x0 JUMPDEST DUP4 DUP2 LT ISZERO PUSH2 0x1581 JUMPI DUP1 DUP3 ADD MLOAD DUP2 DUP5 ADD MSTORE PUSH1 0x20 DUP2 ADD SWAP1 POP PUSH2 0x1566 JUMP JUMPDEST DUP4 DUP2 GT ISZERO PUSH2 0x1590 JUMPI PUSH1 0x0 DUP5 DUP5 ADD MSTORE JUMPDEST POP POP POP POP JUMP JUMPDEST PUSH1 0x0 PUSH1 0x2 DUP3 DIV SWAP1 POP PUSH1 0x1 DUP3 AND DUP1 PUSH2 0x15AE JUMPI PUSH1 0x7F DUP3 AND SWAP2 POP JUMPDEST PUSH1 0x20 DUP3 LT DUP2 EQ ISZERO PUSH2 0x15C2 JUMPI PUSH2 0x15C1 PUSH2 0x1671 JUMP JUMPDEST JUMPDEST POP SWAP2 SWAP1 POP JUMP JUMPDEST PUSH2 0x15D1 DUP3 PUSH2 0x1717 JUMP JUMPDEST DUP2 ADD DUP2 DUP2 LT PUSH8 0xFFFFFFFFFFFFFFFF DUP3 GT OR ISZERO PUSH2 0x15F0 JUMPI PUSH2 0x15EF PUSH2 0x16CF JUMP JUMPDEST JUMPDEST DUP1 PUSH1 0x40 MSTORE POP POP POP JUMP JUMPDEST PUSH1 0x0 PUSH2 0x1604 DUP3 PUSH2 0x154A JUMP JUMPDEST SWAP2 POP PUSH32 0xFFFFFFFFFFFFFFFFFFFFFFFFFFFFFFFFFFFFFFFFFFFFFFFFFFFFFFFFFFFFFFFF DUP3 EQ ISZERO PUSH2 0x1637 JUMPI PUSH2 0x1636 PUSH2 0x1642 JUMP JUMPDEST JUMPDEST PUSH1 0x1 DUP3 ADD SWAP1 POP SWAP2 SWAP1 POP JUMP JUMPDEST PUSH32 0x4E487B7100000000000000000000000000000000000000000000000000000000 PUSH1 0x0 MSTORE PUSH1 0x11 PUSH1 0x4 MSTORE PUSH1 0x24 PUSH1 0x0 REVERT JUMPDEST PUSH32 0x4E487B7100000000000000000000000000000000000000000000000000000000 PUSH1 0x0 MSTORE PUSH1 0x22 PUSH1 0x4 MSTORE PUSH1 0x24 PUSH1 0x0 REVERT JUMPDEST PUSH32 0x4E487B7100000000000000000000000000000000000000000000000000000000 PUSH1 0x0 MSTORE PUSH1 0x32 PUSH1 0x4 MSTORE PUSH1 0x24 PUSH1 0x0 REVERT JUMPDEST PUSH32 0x4E487B7100000000000000000000000000000000000000000000000000000000 PUSH1 0x0 MSTORE PUSH1 0x41 PUSH1 0x4 MSTORE PUSH1 0x24 PUSH1 0x0 REVERT JUMPDEST PUSH1 0x0 DUP1 REVERT JUMPDEST PUSH1 0x0 DUP1 REVERT JUMPDEST PUSH1 0x0 DUP1 REVERT JUMPDEST PUSH1 0x0 DUP1 REVERT JUMPDEST PUSH1 0x0 DUP1 REVERT JUMPDEST PUSH1 0x0 PUSH1 0x1F NOT PUSH1 0x1F DUP4 ADD AND SWAP1 POP SWAP2 SWAP1 POP JUMP JUMPDEST PUSH32 0x596F75206861766520616C726561647920766F746564206F6E20746869732050 PUSH1 0x0 DUP3 ADD MSTORE PUSH32 0x726F706F73616C00000000000000000000000000000000000000000000000000 PUSH1 0x20 DUP3 ADD MSTORE POP JUMP JUMPDEST PUSH32 0x4F6E6C79204F776E65722063616E2061646420746F6B656E7320746F20746865 PUSH1 0x0 DUP3 ADD MSTORE PUSH32 0x2044414F00000000000000000000000000000000000000000000000000000000 PUSH1 0x20 DUP3 ADD MSTORE POP JUMP JUMPDEST PUSH32 0x546869732050726F706F73616C20646F6573206E6F7420657869737400000000 PUSH1 0x0 DUP3 ADD MSTORE POP JUMP JUMPDEST PUSH32 0x54686520646561646C696E65206861732070617373656420666F722074686973 PUSH1 0x0 DUP3 ADD MSTORE PUSH32 0x2050726F706F73616C0000000000000000000000000000000000000000000000 PUSH1 0x20 DUP3 ADD MSTORE POP JUMP JUMPDEST PUSH32 0x436F756E7420616C726561647920636F6E647563746564000000000000000000 PUSH1 0x0 DUP3 ADD MSTORE POP JUMP JUMPDEST PUSH32 0x566F74696E6720686173206E6F7420636F6E636C756465640000000000000000 PUSH1 0x0 DUP3 ADD MSTORE POP JUMP JUMPDEST PUSH32 0x546869732070726F706F73616C20646F6573206E6F7420657869737400000000 PUSH1 0x0 DUP3 ADD MSTORE POP JUMP JUMPDEST PUSH32 0x4F6E6C79204F776E65722043616E20436F756E7420566F746573000000000000 PUSH1 0x0 DUP3 ADD MSTORE POP JUMP JUMPDEST PUSH32 0x596F752063616E6E6F7420766F7465206F6E20746869732050726F706F73616C PUSH1 0x0 DUP3 ADD MSTORE POP JUMP JUMPDEST PUSH32 0x4F6E6C79204E465420686F6C646572732063616E206372656174652070726F70 PUSH1 0x0 DUP3 ADD MSTORE PUSH32 0x6F73616C73000000000000000000000000000000000000000000000000000000 PUSH1 0x20 DUP3 ADD MSTORE POP JUMP JUMPDEST PUSH2 0x1963 DUP2 PUSH2 0x150C JUMP JUMPDEST DUP2 EQ PUSH2 0x196E JUMPI PUSH1 0x0 DUP1 REVERT JUMPDEST POP JUMP JUMPDEST PUSH2 0x197A DUP2 PUSH2 0x151E JUMP JUMPDEST DUP2 EQ PUSH2 0x1985 JUMPI PUSH1 0x0 DUP1 REVERT JUMPDEST POP JUMP JUMPDEST PUSH2 0x1991 DUP2 PUSH2 0x154A JUMP JUMPDEST DUP2 EQ PUSH2 0x199C JUMPI PUSH1 0x0 DUP1 REVERT JUMPDEST POP JUMP INVALID LOG2 PUSH5 0x6970667358 0x22 SLT KECCAK256 ADD CODESIZE 0xDA EXTCODESIZE SWAP15 0x22 PUSH13 0x66CDEFC5206EAA8DAD2EC58A47 0xB6 0xE4 PUSH10 0x9D58B3642A9BC2F6F664 PUSH20 0x6F6C634300080700330000000000000000000000 "
        },
        "methodIdentifiers": {
          "Proposals(uint256)": "d1dbe7d8",
          "addTokenId(uint256)": "fd0d101f",
          "countVotes(uint256)": "1840f0ca",
          "createProposal(string,address[])": "be8bb7ba",
          "owner()": "8da5cb5b",
          "validTokens(uint256)": "e9d3d16a",
          "voteOnProposal(uint256,bool)": "1614665c"
        }
      }
    }
  }
}