{
  "_format": "hh-sol-artifact-1",
  "contractName": "Sailors",
  "sourceName": "contracts/Sailors.sol",
  "abi": [
    {
      "inputs": [],
      "stateMutability": "nonpayable",
      "type": "constructor"
    },
    {
      "anonymous": false,
      "inputs": [
        {
          "indexed": false,
          "internalType": "uint256",
          "name": "votesUp",
          "type": "uint256"
        },
        {
          "indexed": false,
          "internalType": "uint256",
          "name": "votesDown",
          "type": "uint256"
        },
        {
          "indexed": false,
          "internalType": "address",
          "name": "voter",
          "type": "address"
        },
        {
          "indexed": false,
          "internalType": "uint256",
          "name": "proposal",
          "type": "uint256"
        },
        {
          "indexed": false,
          "internalType": "bool",
          "name": "votedFor",
          "type": "bool"
        }
      ],
      "name": "newVote",
      "type": "event"
    },
    {
      "anonymous": false,
      "inputs": [
        {
          "indexed": false,
          "internalType": "uint256",
          "name": "id",
          "type": "uint256"
        },
        {
          "indexed": false,
          "internalType": "bool",
          "name": "passed",
          "type": "bool"
        }
      ],
      "name": "proposalCount",
      "type": "event"
    },
    {
      "anonymous": false,
      "inputs": [
        {
          "indexed": false,
          "internalType": "uint256",
          "name": "id",
          "type": "uint256"
        },
        {
          "indexed": false,
          "internalType": "string",
          "name": "description",
          "type": "string"
        },
        {
          "indexed": false,
          "internalType": "uint256",
          "name": "maxVotes",
          "type": "uint256"
        },
        {
          "indexed": false,
          "internalType": "address",
          "name": "proposer",
          "type": "address"
        }
      ],
      "name": "proposalCreated",
      "type": "event"
    },
    {
      "inputs": [
        {
          "internalType": "uint256",
          "name": "",
          "type": "uint256"
        }
      ],
      "name": "Proposals",
      "outputs": [
        {
          "internalType": "uint256",
          "name": "id",
          "type": "uint256"
        },
        {
          "internalType": "bool",
          "name": "exists",
          "type": "bool"
        },
        {
          "internalType": "string",
          "name": "description",
          "type": "string"
        },
        {
          "internalType": "uint256",
          "name": "deadline",
          "type": "uint256"
        },
        {
          "internalType": "uint256",
          "name": "votesUp",
          "type": "uint256"
        },
        {
          "internalType": "uint256",
          "name": "votesDown",
          "type": "uint256"
        },
        {
          "internalType": "uint256",
          "name": "maxVotes",
          "type": "uint256"
        },
        {
          "internalType": "bool",
          "name": "countConducted",
          "type": "bool"
        },
        {
          "internalType": "bool",
          "name": "passed",
          "type": "bool"
        }
      ],
      "stateMutability": "view",
      "type": "function"
    },
    {
      "inputs": [
        {
          "internalType": "uint256",
          "name": "_tokenId",
          "type": "uint256"
        }
      ],
      "name": "addTokenId",
      "outputs": [],
      "stateMutability": "nonpayable",
      "type": "function"
    },
    {
      "inputs": [
        {
          "internalType": "uint256",
          "name": "_id",
          "type": "uint256"
        }
      ],
      "name": "countVotes",
      "outputs": [],
      "stateMutability": "nonpayable",
      "type": "function"
    },
    {
      "inputs": [
        {
          "internalType": "string",
          "name": "_description",
          "type": "string"
        },
        {
          "internalType": "address[]",
          "name": "_canVote",
          "type": "address[]"
        }
      ],
      "name": "createProposal",
      "outputs": [],
      "stateMutability": "nonpayable",
      "type": "function"
    },
    {
      "inputs": [],
      "name": "owner",
      "outputs": [
        {
          "internalType": "address",
          "name": "",
          "type": "address"
        }
      ],
      "stateMutability": "view",
      "type": "function"
    },
    {
      "inputs": [
        {
          "internalType": "uint256",
          "name": "",
          "type": "uint256"
        }
      ],
      "name": "validTokens",
      "outputs": [
        {
          "internalType": "uint256",
          "name": "",
          "type": "uint256"
        }
      ],
      "stateMutability": "view",
      "type": "function"
    },
    {
      "inputs": [
        {
          "internalType": "uint256",
          "name": "_id",
          "type": "uint256"
        },
        {
          "internalType": "bool",
          "name": "_vote",
          "type": "bool"
        }
      ],
      "name": "voteOnProposal",
      "outputs": [],
      "stateMutability": "nonpayable",
      "type": "function"
    }
  ],
  "bytecode": "0x60806040523480156200001157600080fd5b50336000806101000a81548173ffffffffffffffffffffffffffffffffffffffff021916908373ffffffffffffffffffffffffffffffffffffffff160217905550600180819055507367a8fe17db4d441f96f26094677763a2213a3b5f600360006101000a81548173ffffffffffffffffffffffffffffffffffffffff021916908373ffffffffffffffffffffffffffffffffffffffff16021790555060405180602001604052807fa0df1bcb0febc3b3fb2731a81926a5ba718b21450000000000000000000000018152506002906001620000ef929190620000f6565b5062000167565b82805482825590600052602060002090810192821562000135579160200282015b828111156200013457825182559160200191906001019062000117565b5b50905062000144919062000148565b5090565b5b808211156200016357600081600090555060010162000149565b5090565b6119d580620001776000396000f3fe608060405234801561001057600080fd5b506004361061007d5760003560e01c8063be8bb7ba1161005b578063be8bb7ba146100d8578063d1dbe7d8146100f4578063e9d3d16a1461012c578063fd0d101f1461015c5761007d565b80631614665c146100825780631840f0ca1461009e5780638da5cb5b146100ba575b600080fd5b61009c60048036038101906100979190610f19565b610178565b005b6100b860048036038101906100b39190610ebf565b61041b565b005b6100c261069c565b6040516100cf919061111d565b60405180910390f35b6100f260048036038101906100ed9190610e47565b6106c0565b005b61010e60048036038101906101099190610ebf565b6107f7565b604051610123999897969594939291906112e5565b60405180910390f35b61014660048036038101906101419190610ebf565b6108f4565b60405161015391906112a1565b60405180910390f35b61017660048036038101906101719190610ebf565b610918565b005b6004600083815260200190815260200160002060010160009054906101000a900460ff166101db576040517f08c379a00000000000000000000000000000000000000000000000000000000081526004016101d290611221565b60405180910390fd5b6101e582336109d2565b610224576040517f08c379a000000000000000000000000000000000000000000000000000000000815260040161021b90611261565b60405180910390fd5b6004600083815260200190815260200160002060080160003373ffffffffffffffffffffffffffffffffffffffff1673ffffffffffffffffffffffffffffffffffffffff16815260200190815260200160002060009054906101000a900460ff16156102c5576040517f08c379a00000000000000000000000000000000000000000000000000000000081526004016102bc90611161565b60405180910390fd5b600460008381526020019081526020016000206003015443111561031e576040517f08c379a0000000000000000000000000000000000000000000000000000000008152600401610315906111c1565b60405180910390fd5b6000600460008481526020019081526020016000209050811561035a57806004016000815480929190610350906115f9565b9190505550610375565b80600501600081548092919061036f906115f9565b91905055505b60018160080160003373ffffffffffffffffffffffffffffffffffffffff1673ffffffffffffffffffffffffffffffffffffffff16815260200190815260200160002060006101000a81548160ff0219169083151502179055507f97a3ed91f0b116dc155f238ac92aa5b825720a7bb096f53156e05d9c8ab6a30a8160040154826005015433868660405161040e9594939291906113c5565b60405180910390a1505050565b60008054906101000a900473ffffffffffffffffffffffffffffffffffffffff1673ffffffffffffffffffffffffffffffffffffffff163373ffffffffffffffffffffffffffffffffffffffff16146104a9576040517f08c379a00000000000000000000000000000000000000000000000000000000081526004016104a090611241565b60405180910390fd5b6004600082815260200190815260200160002060010160009054906101000a900460ff1661050c576040517f08c379a0000000000000000000000000000000000000000000000000000000008152600401610503906111a1565b60405180910390fd5b60046000828152602001908152602001600020600301544311610564576040517f08c379a000000000000000000000000000000000000000000000000000000000815260040161055b90611201565b60405180910390fd5b6004600082815260200190815260200160002060090160009054906101000a900460ff16156105c8576040517f08c379a00000000000000000000000000000000000000000000000000000000081526004016105bf906111e1565b60405180910390fd5b60006004600083815260200190815260200160002090506004600083815260200190815260200160002060040154600460008481526020019081526020016000206005015410156106315760018160090160016101000a81548160ff0219169083151502179055505b60018160090160006101000a81548160ff0219169083151502179055507f4556fcf667ee704924eea359363d28f06708b744ad113340982b07ef9919fb91828260090160019054906101000a900460ff166040516106909291906112bc565b60405180910390a15050565b60008054906101000a900473ffffffffffffffffffffffffffffffffffffffff1681565b6106c933610aaa565b610708576040517f08c379a00000000000000000000000000000000000000000000000000000000081526004016106ff90611281565b60405180910390fd5b60006004600060015481526020019081526020016000209050600154816000018190555060018160010160006101000a81548160ff02191690831515021790555082816002019080519060200190610761929190610bb8565b5060644361076f91906114b6565b81600301819055508181600601908051906020019061078f929190610c3e565b50815181600701819055507f3ec21697eb8018b62928e5f290d2bccf3af51e8b6cdf71fceab712977647bba9600154848451336040516107d29493929190611379565b60405180910390a1600160008154809291906107ed906115f9565b9190505550505050565b60046020528060005260406000206000915090508060000154908060010160009054906101000a900460ff169080600201805461083390611596565b80601f016020809104026020016040519081016040528092919081815260200182805461085f90611596565b80156108ac5780601f10610881576101008083540402835291602001916108ac565b820191906000526020600020905b81548152906001019060200180831161088f57829003601f168201915b5050505050908060030154908060040154908060050154908060070154908060090160009054906101000a900460ff16908060090160019054906101000a900460ff16905089565b6002818154811061090457600080fd5b906000526020600020016000915090505481565b60008054906101000a900473ffffffffffffffffffffffffffffffffffffffff1673ffffffffffffffffffffffffffffffffffffffff163373ffffffffffffffffffffffffffffffffffffffff16146109a6576040517f08c379a000000000000000000000000000000000000000000000000000000000815260040161099d90611181565b60405180910390fd5b600281908060018154018082558091505060019003906000526020600020016000909190919091505550565b600080600090505b6004600085815260200190815260200160002060060180549050811015610a9e578273ffffffffffffffffffffffffffffffffffffffff16600460008681526020019081526020016000206006018281548110610a3a57610a396116a0565b5b9060005260206000200160009054906101000a900473ffffffffffffffffffffffffffffffffffffffff1673ffffffffffffffffffffffffffffffffffffffff161415610a8b576001915050610aa4565b8080610a96906115f9565b9150506109da565b50600090505b92915050565b600080600090505b600280549050811015610bad576001600360009054906101000a900473ffffffffffffffffffffffffffffffffffffffff1673ffffffffffffffffffffffffffffffffffffffff1662fdd58e8560028581548110610b1357610b126116a0565b5b90600052602060002001546040518363ffffffff1660e01b8152600401610b3b929190611138565b60206040518083038186803b158015610b5357600080fd5b505afa158015610b67573d6000803e3d6000fd5b505050506040513d601f19601f82011682018060405250810190610b8b9190610eec565b10610b9a576001915050610bb3565b8080610ba5906115f9565b915050610ab2565b50600090505b919050565b828054610bc490611596565b90600052602060002090601f016020900481019282610be65760008555610c2d565b82601f10610bff57805160ff1916838001178555610c2d565b82800160010185558215610c2d579182015b82811115610c2c578251825591602001919060010190610c11565b5b509050610c3a9190610cc8565b5090565b828054828255906000526020600020908101928215610cb7579160200282015b82811115610cb65782518260006101000a81548173ffffffffffffffffffffffffffffffffffffffff021916908373ffffffffffffffffffffffffffffffffffffffff16021790555091602001919060010190610c5e565b5b509050610cc49190610cc8565b5090565b5b80821115610ce1576000816000905550600101610cc9565b5090565b6000610cf8610cf38461143d565b611418565b90508083825260208201905082856020860282011115610d1b57610d1a611703565b5b60005b85811015610d4b5781610d318882610d97565b845260208401935060208301925050600181019050610d1e565b5050509392505050565b6000610d68610d6384611469565b611418565b905082815260208101848484011115610d8457610d83611708565b5b610d8f848285611554565b509392505050565b600081359050610da68161195a565b92915050565b600082601f830112610dc157610dc06116fe565b5b8135610dd1848260208601610ce5565b91505092915050565b600081359050610de981611971565b92915050565b600082601f830112610e0457610e036116fe565b5b8135610e14848260208601610d55565b91505092915050565b600081359050610e2c81611988565b92915050565b600081519050610e4181611988565b92915050565b60008060408385031215610e5e57610e5d611712565b5b600083013567ffffffffffffffff811115610e7c57610e7b61170d565b5b610e8885828601610def565b925050602083013567ffffffffffffffff811115610ea957610ea861170d565b5b610eb585828601610dac565b9150509250929050565b600060208284031215610ed557610ed4611712565b5b6000610ee384828501610e1d565b91505092915050565b600060208284031215610f0257610f01611712565b5b6000610f1084828501610e32565b91505092915050565b60008060408385031215610f3057610f2f611712565b5b6000610f3e85828601610e1d565b9250506020610f4f85828601610dda565b9150509250929050565b610f628161150c565b82525050565b610f718161151e565b82525050565b6000610f828261149a565b610f8c81856114a5565b9350610f9c818560208601611563565b610fa581611717565b840191505092915050565b6000610fbd6027836114a5565b9150610fc882611728565b604082019050919050565b6000610fe06024836114a5565b9150610feb82611777565b604082019050919050565b6000611003601c836114a5565b915061100e826117c6565b602082019050919050565b60006110266029836114a5565b9150611031826117ef565b604082019050919050565b60006110496017836114a5565b91506110548261183e565b602082019050919050565b600061106c6018836114a5565b915061107782611867565b602082019050919050565b600061108f601c836114a5565b915061109a82611890565b602082019050919050565b60006110b2601a836114a5565b91506110bd826118b9565b602082019050919050565b60006110d56020836114a5565b91506110e0826118e2565b602082019050919050565b60006110f86025836114a5565b91506111038261190b565b604082019050919050565b6111178161154a565b82525050565b60006020820190506111326000830184610f59565b92915050565b600060408201905061114d6000830185610f59565b61115a602083018461110e565b9392505050565b6000602082019050818103600083015261117a81610fb0565b9050919050565b6000602082019050818103600083015261119a81610fd3565b9050919050565b600060208201905081810360008301526111ba81610ff6565b9050919050565b600060208201905081810360008301526111da81611019565b9050919050565b600060208201905081810360008301526111fa8161103c565b9050919050565b6000602082019050818103600083015261121a8161105f565b9050919050565b6000602082019050818103600083015261123a81611082565b9050919050565b6000602082019050818103600083015261125a816110a5565b9050919050565b6000602082019050818103600083015261127a816110c8565b9050919050565b6000602082019050818103600083015261129a816110eb565b9050919050565b60006020820190506112b6600083018461110e565b92915050565b60006040820190506112d1600083018561110e565b6112de6020830184610f68565b9392505050565b6000610120820190506112fb600083018c61110e565b611308602083018b610f68565b818103604083015261131a818a610f77565b9050611329606083018961110e565b611336608083018861110e565b61134360a083018761110e565b61135060c083018661110e565b61135d60e0830185610f68565b61136b610100830184610f68565b9a9950505050505050505050565b600060808201905061138e600083018761110e565b81810360208301526113a08186610f77565b90506113af604083018561110e565b6113bc6060830184610f59565b95945050505050565b600060a0820190506113da600083018861110e565b6113e7602083018761110e565b6113f46040830186610f59565b611401606083018561110e565b61140e6080830184610f68565b9695505050505050565b6000611422611433565b905061142e82826115c8565b919050565b6000604051905090565b600067ffffffffffffffff821115611458576114576116cf565b5b602082029050602081019050919050565b600067ffffffffffffffff821115611484576114836116cf565b5b61148d82611717565b9050602081019050919050565b600081519050919050565b600082825260208201905092915050565b60006114c18261154a565b91506114cc8361154a565b9250827fffffffffffffffffffffffffffffffffffffffffffffffffffffffffffffffff0382111561150157611500611642565b5b828201905092915050565b60006115178261152a565b9050919050565b60008115159050919050565b600073ffffffffffffffffffffffffffffffffffffffff82169050919050565b6000819050919050565b82818337600083830152505050565b60005b83811015611581578082015181840152602081019050611566565b83811115611590576000848401525b50505050565b600060028204905060018216806115ae57607f821691505b602082108114156115c2576115c1611671565b5b50919050565b6115d182611717565b810181811067ffffffffffffffff821117156115f0576115ef6116cf565b5b80604052505050565b60006116048261154a565b91507fffffffffffffffffffffffffffffffffffffffffffffffffffffffffffffffff82141561163757611636611642565b5b600182019050919050565b7f4e487b7100000000000000000000000000000000000000000000000000000000600052601160045260246000fd5b7f4e487b7100000000000000000000000000000000000000000000000000000000600052602260045260246000fd5b7f4e487b7100000000000000000000000000000000000000000000000000000000600052603260045260246000fd5b7f4e487b7100000000000000000000000000000000000000000000000000000000600052604160045260246000fd5b600080fd5b600080fd5b600080fd5b600080fd5b600080fd5b6000601f19601f8301169050919050565b7f596f75206861766520616c726561647920766f746564206f6e2074686973205060008201527f726f706f73616c00000000000000000000000000000000000000000000000000602082015250565b7f4f6e6c79204f776e65722063616e2061646420746f6b656e7320746f2074686560008201527f2044414f00000000000000000000000000000000000000000000000000000000602082015250565b7f546869732050726f706f73616c20646f6573206e6f7420657869737400000000600082015250565b7f54686520646561646c696e65206861732070617373656420666f72207468697360008201527f2050726f706f73616c0000000000000000000000000000000000000000000000602082015250565b7f436f756e7420616c726561647920636f6e647563746564000000000000000000600082015250565b7f566f74696e6720686173206e6f7420636f6e636c756465640000000000000000600082015250565b7f546869732070726f706f73616c20646f6573206e6f7420657869737400000000600082015250565b7f4f6e6c79204f776e65722043616e20436f756e7420566f746573000000000000600082015250565b7f596f752063616e6e6f7420766f7465206f6e20746869732050726f706f73616c600082015250565b7f4f6e6c79204e465420686f6c646572732063616e206372656174652070726f7060008201527f6f73616c73000000000000000000000000000000000000000000000000000000602082015250565b6119638161150c565b811461196e57600080fd5b50565b61197a8161151e565b811461198557600080fd5b50565b6119918161154a565b811461199c57600080fd5b5056fea26469706673582212200138da3b9e226c66cdefc5206eaa8dad2ec58a47b6e4699d58b3642a9bc2f6f664736f6c63430008070033",
  "linkReferences": {},
  "deployedLinkReferences": {}
}