{
  "_format": "hh-sol-artifact-1",
  "contractName": "Sailors",
  "sourceName": "contracts/Sailors.sol",
  "abi": [
    {
      "inputs": [],
      "stateMutability": "nonpayable",
      "type": "constructor"
    },
    {
      "anonymous": false,
      "inputs": [
        {
          "components": [
            {
              "internalType": "uint32",
              "name": "id",
              "type": "uint32"
            },
            {
              "internalType": "string",
              "name": "topic",
              "type": "string"
            },
            {
              "internalType": "address",
              "name": "creator_address",
              "type": "address"
            },
            {
              "internalType": "string",
              "name": "message",
              "type": "string"
            },
            {
              "internalType": "uint256",
              "name": "created_at",
              "type": "uint256"
            }
          ],
          "indexed": false,
          "internalType": "struct Sailors.Comment",
          "name": "comment",
          "type": "tuple"
        }
      ],
      "name": "CommentAdded",
      "type": "event"
    },
    {
      "anonymous": false,
      "inputs": [
        {
          "indexed": false,
          "internalType": "uint256",
          "name": "votesUp",
          "type": "uint256"
        },
        {
          "indexed": false,
          "internalType": "uint256",
          "name": "votesDown",
          "type": "uint256"
        },
        {
          "indexed": false,
          "internalType": "address",
          "name": "voter",
          "type": "address"
        },
        {
          "indexed": false,
          "internalType": "uint256",
          "name": "proposal",
          "type": "uint256"
        },
        {
          "indexed": false,
          "internalType": "bool",
          "name": "votedFor",
          "type": "bool"
        }
      ],
      "name": "newVote",
      "type": "event"
    },
    {
      "anonymous": false,
      "inputs": [
        {
          "indexed": false,
          "internalType": "uint256",
          "name": "id",
          "type": "uint256"
        },
        {
          "indexed": false,
          "internalType": "bool",
          "name": "passed",
          "type": "bool"
        }
      ],
      "name": "proposalCount",
      "type": "event"
    },
    {
      "anonymous": false,
      "inputs": [
        {
          "indexed": false,
          "internalType": "uint256",
          "name": "id",
          "type": "uint256"
        },
        {
          "indexed": false,
          "internalType": "string",
          "name": "description",
          "type": "string"
        },
        {
          "indexed": false,
          "internalType": "uint256",
          "name": "maxVotes",
          "type": "uint256"
        },
        {
          "indexed": false,
          "internalType": "address",
          "name": "proposer",
          "type": "address"
        }
      ],
      "name": "proposalCreated",
      "type": "event"
    },
    {
      "inputs": [
        {
          "internalType": "uint256",
          "name": "",
          "type": "uint256"
        }
      ],
      "name": "Proposals",
      "outputs": [
        {
          "internalType": "uint256",
          "name": "id",
          "type": "uint256"
        },
        {
          "internalType": "bool",
          "name": "exists",
          "type": "bool"
        },
        {
          "internalType": "string",
          "name": "description",
          "type": "string"
        },
        {
          "internalType": "uint256",
          "name": "deadline",
          "type": "uint256"
        },
        {
          "internalType": "uint256",
          "name": "votesUp",
          "type": "uint256"
        },
        {
          "internalType": "uint256",
          "name": "votesDown",
          "type": "uint256"
        },
        {
          "internalType": "uint256",
          "name": "maxVotes",
          "type": "uint256"
        },
        {
          "internalType": "bool",
          "name": "countConducted",
          "type": "bool"
        },
        {
          "internalType": "bool",
          "name": "passed",
          "type": "bool"
        }
      ],
      "stateMutability": "view",
      "type": "function"
    },
    {
      "inputs": [
        {
          "internalType": "string",
          "name": "topic",
          "type": "string"
        },
        {
          "internalType": "string",
          "name": "message",
          "type": "string"
        }
      ],
      "name": "addComment",
      "outputs": [],
      "stateMutability": "nonpayable",
      "type": "function"
    },
    {
      "inputs": [
        {
          "internalType": "uint256",
          "name": "_tokenId",
          "type": "uint256"
        }
      ],
      "name": "addTokenId",
      "outputs": [],
      "stateMutability": "nonpayable",
      "type": "function"
    },
    {
      "inputs": [
        {
          "internalType": "uint256",
          "name": "_id",
          "type": "uint256"
        }
      ],
      "name": "countVotes",
      "outputs": [],
      "stateMutability": "nonpayable",
      "type": "function"
    },
    {
      "inputs": [
        {
          "internalType": "string",
          "name": "_description",
          "type": "string"
        },
        {
          "internalType": "address[]",
          "name": "_canVote",
          "type": "address[]"
        }
      ],
      "name": "createProposal",
      "outputs": [],
      "stateMutability": "nonpayable",
      "type": "function"
    },
    {
      "inputs": [
        {
          "internalType": "string",
          "name": "topic",
          "type": "string"
        }
      ],
      "name": "getComments",
      "outputs": [
        {
          "components": [
            {
              "internalType": "uint32",
              "name": "id",
              "type": "uint32"
            },
            {
              "internalType": "string",
              "name": "topic",
              "type": "string"
            },
            {
              "internalType": "address",
              "name": "creator_address",
              "type": "address"
            },
            {
              "internalType": "string",
              "name": "message",
              "type": "string"
            },
            {
              "internalType": "uint256",
              "name": "created_at",
              "type": "uint256"
            }
          ],
          "internalType": "struct Sailors.Comment[]",
          "name": "",
          "type": "tuple[]"
        }
      ],
      "stateMutability": "view",
      "type": "function"
    },
    {
      "inputs": [],
      "name": "owner",
      "outputs": [
        {
          "internalType": "address",
          "name": "",
          "type": "address"
        }
      ],
      "stateMutability": "view",
      "type": "function"
    },
    {
      "inputs": [
        {
          "internalType": "uint256",
          "name": "",
          "type": "uint256"
        }
      ],
      "name": "validTokens",
      "outputs": [
        {
          "internalType": "uint256",
          "name": "",
          "type": "uint256"
        }
      ],
      "stateMutability": "view",
      "type": "function"
    },
    {
      "inputs": [
        {
          "internalType": "uint256",
          "name": "_id",
          "type": "uint256"
        },
        {
          "internalType": "bool",
          "name": "_vote",
          "type": "bool"
        }
      ],
      "name": "voteOnProposal",
      "outputs": [],
      "stateMutability": "nonpayable",
      "type": "function"
    }
  ],
  "bytecode": "0x60806040523480156200001157600080fd5b50336000806101000a81548173ffffffffffffffffffffffffffffffffffffffff021916908373ffffffffffffffffffffffffffffffffffffffff160217905550600180819055507367a8fe17db4d441f96f26094677763a2213a3b5f600360006101000a81548173ffffffffffffffffffffffffffffffffffffffff021916908373ffffffffffffffffffffffffffffffffffffffff16021790555060405180602001604052807fa0df1bcb0febc3b3fb2731a81926a5ba718b21450000000000000000000000018152506002906001620000ef929190620000f6565b5062000167565b82805482825590600052602060002090810192821562000135579160200282015b828111156200013457825182559160200191906001019062000117565b5b50905062000144919062000148565b5090565b5b808211156200016357600081600090555060010162000149565b5090565b6122e580620001776000396000f3fe608060405234801561001057600080fd5b50600436106100935760003560e01c8063ae5ff90511610066578063ae5ff9051461011e578063be8bb7ba1461013a578063d1dbe7d814610156578063e9d3d16a1461018e578063fd0d101f146101be57610093565b80631614665c146100985780631840f0ca146100b457806370c63fcc146100d05780638da5cb5b14610100575b600080fd5b6100b260048036038101906100ad9190611527565b6101da565b005b6100ce60048036038101906100c991906114cd565b61047d565b005b6100ea60048036038101906100e59190611387565b6106fe565b6040516100f79190611996565b60405180910390f35b610108610928565b6040516101159190611952565b60405180910390f35b610138600480360381019061013391906113d4565b61094c565b005b610154600480360381019061014f9190611455565b610baa565b005b610170600480360381019061016b91906114cd565b610ce1565b60405161018599989796959493929190611b5e565b60405180910390f35b6101a860048036038101906101a391906114cd565b610dde565b6040516101b59190611b1a565b60405180910390f35b6101d860048036038101906101d391906114cd565b610e02565b005b6004600083815260200190815260200160002060010160009054906101000a900460ff1661023d576040517f08c379a000000000000000000000000000000000000000000000000000000000815260040161023490611a78565b60405180910390fd5b6102478233610ebc565b610286576040517f08c379a000000000000000000000000000000000000000000000000000000000815260040161027d90611ab8565b60405180910390fd5b6004600083815260200190815260200160002060080160003373ffffffffffffffffffffffffffffffffffffffff1673ffffffffffffffffffffffffffffffffffffffff16815260200190815260200160002060009054906101000a900460ff1615610327576040517f08c379a000000000000000000000000000000000000000000000000000000000815260040161031e906119b8565b60405180910390fd5b6004600083815260200190815260200160002060030154431115610380576040517f08c379a000000000000000000000000000000000000000000000000000000000815260040161037790611a18565b60405180910390fd5b600060046000848152602001908152602001600020905081156103bc578060040160008154809291906103b290611ed7565b91905055506103d7565b8060050160008154809291906103d190611ed7565b91905055505b60018160080160003373ffffffffffffffffffffffffffffffffffffffff1673ffffffffffffffffffffffffffffffffffffffff16815260200190815260200160002060006101000a81548160ff0219169083151502179055507f97a3ed91f0b116dc155f238ac92aa5b825720a7bb096f53156e05d9c8ab6a30a81600401548260050154338686604051610470959493929190611c3e565b60405180910390a1505050565b60008054906101000a900473ffffffffffffffffffffffffffffffffffffffff1673ffffffffffffffffffffffffffffffffffffffff163373ffffffffffffffffffffffffffffffffffffffff161461050b576040517f08c379a000000000000000000000000000000000000000000000000000000000815260040161050290611a98565b60405180910390fd5b6004600082815260200190815260200160002060010160009054906101000a900460ff1661056e576040517f08c379a0000000000000000000000000000000000000000000000000000000008152600401610565906119f8565b60405180910390fd5b600460008281526020019081526020016000206003015443116105c6576040517f08c379a00000000000000000000000000000000000000000000000000000000081526004016105bd90611a58565b60405180910390fd5b6004600082815260200190815260200160002060090160009054906101000a900460ff161561062a576040517f08c379a000000000000000000000000000000000000000000000000000000000815260040161062190611a38565b60405180910390fd5b60006004600083815260200190815260200160002090506004600083815260200190815260200160002060040154600460008481526020019081526020016000206005015410156106935760018160090160016101000a81548160ff0219169083151502179055505b60018160090160006101000a81548160ff0219169083151502179055507f4556fcf667ee704924eea359363d28f06708b744ad113340982b07ef9919fb91828260090160019054906101000a900460ff166040516106f2929190611b35565b60405180910390a15050565b606060058383604051610712929190611939565b9081526020016040518091039020805480602002602001604051908101604052809291908181526020016000905b8282101561091c57838290600052602060002090600502016040518060a00160405290816000820160009054906101000a900463ffffffff1663ffffffff1663ffffffff16815260200160018201805461079990611e74565b80601f01602080910402602001604051908101604052809291908181526020018280546107c590611e74565b80156108125780601f106107e757610100808354040283529160200191610812565b820191906000526020600020905b8154815290600101906020018083116107f557829003601f168201915b505050505081526020016002820160009054906101000a900473ffffffffffffffffffffffffffffffffffffffff1673ffffffffffffffffffffffffffffffffffffffff1673ffffffffffffffffffffffffffffffffffffffff16815260200160038201805461088190611e74565b80601f01602080910402602001604051908101604052809291908181526020018280546108ad90611e74565b80156108fa5780601f106108cf576101008083540402835291602001916108fa565b820191906000526020600020905b8154815290600101906020018083116108dd57829003601f168201915b5050505050815260200160048201548152505081526020019060010190610740565b50505050905092915050565b60008054906101000a900473ffffffffffffffffffffffffffffffffffffffff1681565b60006040518060a00160405280600660009054906101000a900463ffffffff1663ffffffff16815260200186868080601f016020809104026020016040519081016040528093929190818152602001838380828437600081840152601f19601f8201169050808301925050505050505081526020013373ffffffffffffffffffffffffffffffffffffffff16815260200184848080601f016020809104026020016040519081016040528093929190818152602001838380828437600081840152601f19601f82011690508083019250505050505050815260200142815250905060058585604051610a3f929190611939565b908152602001604051809103902081908060018154018082558091505060019003906000526020600020906005020160009091909190915060008201518160000160006101000a81548163ffffffff021916908363ffffffff1602179055506020820151816001019080519060200190610aba9291906110a2565b5060408201518160020160006101000a81548173ffffffffffffffffffffffffffffffffffffffff021916908373ffffffffffffffffffffffffffffffffffffffff1602179055506060820151816003019080519060200190610b1e9291906110a2565b506080820151816004015550506006600081819054906101000a900463ffffffff1680929190610b4d90611f20565b91906101000a81548163ffffffff021916908363ffffffff160217905550507fe77ab75f376cc3dcd9506272f00c91ec2ff78acb373dc7b53aedecb1da20702281604051610b9b9190611af8565b60405180910390a15050505050565b610bb333610f94565b610bf2576040517f08c379a0000000000000000000000000000000000000000000000000000000008152600401610be990611ad8565b60405180910390fd5b60006004600060015481526020019081526020016000209050600154816000018190555060018160010160006101000a81548160ff02191690831515021790555082816002019080519060200190610c4b9291906110a2565b50606443610c599190611d84565b816003018190555081816006019080519060200190610c79929190611128565b50815181600701819055507f3ec21697eb8018b62928e5f290d2bccf3af51e8b6cdf71fceab712977647bba960015484845133604051610cbc9493929190611bf2565b60405180910390a160016000815480929190610cd790611ed7565b9190505550505050565b60046020528060005260406000206000915090508060000154908060010160009054906101000a900460ff1690806002018054610d1d90611e74565b80601f0160208091040260200160405190810160405280929190818152602001828054610d4990611e74565b8015610d965780601f10610d6b57610100808354040283529160200191610d96565b820191906000526020600020905b815481529060010190602001808311610d7957829003601f168201915b5050505050908060030154908060040154908060050154908060070154908060090160009054906101000a900460ff16908060090160019054906101000a900460ff16905089565b60028181548110610dee57600080fd5b906000526020600020016000915090505481565b60008054906101000a900473ffffffffffffffffffffffffffffffffffffffff1673ffffffffffffffffffffffffffffffffffffffff163373ffffffffffffffffffffffffffffffffffffffff1614610e90576040517f08c379a0000000000000000000000000000000000000000000000000000000008152600401610e87906119d8565b60405180910390fd5b600281908060018154018082558091505060019003906000526020600020016000909190919091505550565b600080600090505b6004600085815260200190815260200160002060060180549050811015610f88578273ffffffffffffffffffffffffffffffffffffffff16600460008681526020019081526020016000206006018281548110610f2457610f23611fab565b5b9060005260206000200160009054906101000a900473ffffffffffffffffffffffffffffffffffffffff1673ffffffffffffffffffffffffffffffffffffffff161415610f75576001915050610f8e565b8080610f8090611ed7565b915050610ec4565b50600090505b92915050565b600080600090505b600280549050811015611097576001600360009054906101000a900473ffffffffffffffffffffffffffffffffffffffff1673ffffffffffffffffffffffffffffffffffffffff1662fdd58e8560028581548110610ffd57610ffc611fab565b5b90600052602060002001546040518363ffffffff1660e01b815260040161102592919061196d565b60206040518083038186803b15801561103d57600080fd5b505afa158015611051573d6000803e3d6000fd5b505050506040513d601f19601f8201168201806040525081019061107591906114fa565b1061108457600191505061109d565b808061108f90611ed7565b915050610f9c565b50600090505b919050565b8280546110ae90611e74565b90600052602060002090601f0160209004810192826110d05760008555611117565b82601f106110e957805160ff1916838001178555611117565b82800160010185558215611117579182015b828111156111165782518255916020019190600101906110fb565b5b50905061112491906111b2565b5090565b8280548282559060005260206000209081019282156111a1579160200282015b828111156111a05782518260006101000a81548173ffffffffffffffffffffffffffffffffffffffff021916908373ffffffffffffffffffffffffffffffffffffffff16021790555091602001919060010190611148565b5b5090506111ae91906111b2565b5090565b5b808211156111cb5760008160009055506001016111b3565b5090565b60006111e26111dd84611cb6565b611c91565b9050808382526020820190508285602086028201111561120557611204612013565b5b60005b85811015611235578161121b8882611281565b845260208401935060208301925050600181019050611208565b5050509392505050565b600061125261124d84611ce2565b611c91565b90508281526020810184848401111561126e5761126d612018565b5b611279848285611e32565b509392505050565b6000813590506112908161226a565b92915050565b600082601f8301126112ab576112aa61200e565b5b81356112bb8482602086016111cf565b91505092915050565b6000813590506112d381612281565b92915050565b60008083601f8401126112ef576112ee61200e565b5b8235905067ffffffffffffffff81111561130c5761130b612009565b5b60208301915083600182028301111561132857611327612013565b5b9250929050565b600082601f8301126113445761134361200e565b5b813561135484826020860161123f565b91505092915050565b60008135905061136c81612298565b92915050565b60008151905061138181612298565b92915050565b6000806020838503121561139e5761139d612022565b5b600083013567ffffffffffffffff8111156113bc576113bb61201d565b5b6113c8858286016112d9565b92509250509250929050565b600080600080604085870312156113ee576113ed612022565b5b600085013567ffffffffffffffff81111561140c5761140b61201d565b5b611418878288016112d9565b9450945050602085013567ffffffffffffffff81111561143b5761143a61201d565b5b611447878288016112d9565b925092505092959194509250565b6000806040838503121561146c5761146b612022565b5b600083013567ffffffffffffffff81111561148a5761148961201d565b5b6114968582860161132f565b925050602083013567ffffffffffffffff8111156114b7576114b661201d565b5b6114c385828601611296565b9150509250929050565b6000602082840312156114e3576114e2612022565b5b60006114f18482850161135d565b91505092915050565b6000602082840312156115105761150f612022565b5b600061151e84828501611372565b91505092915050565b6000806040838503121561153e5761153d612022565b5b600061154c8582860161135d565b925050602061155d858286016112c4565b9150509250929050565b60006115738383611812565b905092915050565b61158481611dda565b82525050565b61159381611dda565b82525050565b60006115a482611d23565b6115ae8185611d46565b9350836020820285016115c085611d13565b8060005b858110156115fc57848403895281516115dd8582611567565b94506115e883611d39565b925060208a019950506001810190506115c4565b50829750879550505050505092915050565b61161781611dec565b82525050565b60006116298385611d79565b9350611636838584611e32565b82840190509392505050565b600061164d82611d2e565b6116578185611d57565b9350611667818560208601611e41565b61167081612027565b840191505092915050565b600061168682611d2e565b6116908185611d68565b93506116a0818560208601611e41565b6116a981612027565b840191505092915050565b60006116c1602783611d68565b91506116cc82612038565b604082019050919050565b60006116e4602483611d68565b91506116ef82612087565b604082019050919050565b6000611707601c83611d68565b9150611712826120d6565b602082019050919050565b600061172a602983611d68565b9150611735826120ff565b604082019050919050565b600061174d601783611d68565b91506117588261214e565b602082019050919050565b6000611770601883611d68565b915061177b82612177565b602082019050919050565b6000611793601c83611d68565b915061179e826121a0565b602082019050919050565b60006117b6601a83611d68565b91506117c1826121c9565b602082019050919050565b60006117d9602083611d68565b91506117e4826121f2565b602082019050919050565b60006117fc602583611d68565b91506118078261221b565b604082019050919050565b600060a08301600083015161182a600086018261192a565b50602083015184820360208601526118428282611642565b9150506040830151611857604086018261157b565b506060830151848203606086015261186f8282611642565b9150506080830151611884608086018261190c565b508091505092915050565b600060a0830160008301516118a7600086018261192a565b50602083015184820360208601526118bf8282611642565b91505060408301516118d4604086018261157b565b50606083015184820360608601526118ec8282611642565b9150506080830151611901608086018261190c565b508091505092915050565b61191581611e18565b82525050565b61192481611e18565b82525050565b61193381611e22565b82525050565b600061194682848661161d565b91508190509392505050565b6000602082019050611967600083018461158a565b92915050565b6000604082019050611982600083018561158a565b61198f602083018461191b565b9392505050565b600060208201905081810360008301526119b08184611599565b905092915050565b600060208201905081810360008301526119d1816116b4565b9050919050565b600060208201905081810360008301526119f1816116d7565b9050919050565b60006020820190508181036000830152611a11816116fa565b9050919050565b60006020820190508181036000830152611a318161171d565b9050919050565b60006020820190508181036000830152611a5181611740565b9050919050565b60006020820190508181036000830152611a7181611763565b9050919050565b60006020820190508181036000830152611a9181611786565b9050919050565b60006020820190508181036000830152611ab1816117a9565b9050919050565b60006020820190508181036000830152611ad1816117cc565b9050919050565b60006020820190508181036000830152611af1816117ef565b9050919050565b60006020820190508181036000830152611b12818461188f565b905092915050565b6000602082019050611b2f600083018461191b565b92915050565b6000604082019050611b4a600083018561191b565b611b57602083018461160e565b9392505050565b600061012082019050611b74600083018c61191b565b611b81602083018b61160e565b8181036040830152611b93818a61167b565b9050611ba2606083018961191b565b611baf608083018861191b565b611bbc60a083018761191b565b611bc960c083018661191b565b611bd660e083018561160e565b611be461010083018461160e565b9a9950505050505050505050565b6000608082019050611c07600083018761191b565b8181036020830152611c19818661167b565b9050611c28604083018561191b565b611c35606083018461158a565b95945050505050565b600060a082019050611c53600083018861191b565b611c60602083018761191b565b611c6d604083018661158a565b611c7a606083018561191b565b611c87608083018461160e565b9695505050505050565b6000611c9b611cac565b9050611ca78282611ea6565b919050565b6000604051905090565b600067ffffffffffffffff821115611cd157611cd0611fda565b5b602082029050602081019050919050565b600067ffffffffffffffff821115611cfd57611cfc611fda565b5b611d0682612027565b9050602081019050919050565b6000819050602082019050919050565b600081519050919050565b600081519050919050565b6000602082019050919050565b600082825260208201905092915050565b600082825260208201905092915050565b600082825260208201905092915050565b600081905092915050565b6000611d8f82611e18565b9150611d9a83611e18565b9250827fffffffffffffffffffffffffffffffffffffffffffffffffffffffffffffffff03821115611dcf57611dce611f4d565b5b828201905092915050565b6000611de582611df8565b9050919050565b60008115159050919050565b600073ffffffffffffffffffffffffffffffffffffffff82169050919050565b6000819050919050565b600063ffffffff82169050919050565b82818337600083830152505050565b60005b83811015611e5f578082015181840152602081019050611e44565b83811115611e6e576000848401525b50505050565b60006002820490506001821680611e8c57607f821691505b60208210811415611ea057611e9f611f7c565b5b50919050565b611eaf82612027565b810181811067ffffffffffffffff82111715611ece57611ecd611fda565b5b80604052505050565b6000611ee282611e18565b91507fffffffffffffffffffffffffffffffffffffffffffffffffffffffffffffffff821415611f1557611f14611f4d565b5b600182019050919050565b6000611f2b82611e22565b915063ffffffff821415611f4257611f41611f4d565b5b600182019050919050565b7f4e487b7100000000000000000000000000000000000000000000000000000000600052601160045260246000fd5b7f4e487b7100000000000000000000000000000000000000000000000000000000600052602260045260246000fd5b7f4e487b7100000000000000000000000000000000000000000000000000000000600052603260045260246000fd5b7f4e487b7100000000000000000000000000000000000000000000000000000000600052604160045260246000fd5b600080fd5b600080fd5b600080fd5b600080fd5b600080fd5b600080fd5b6000601f19601f8301169050919050565b7f596f75206861766520616c726561647920766f746564206f6e2074686973205060008201527f726f706f73616c00000000000000000000000000000000000000000000000000602082015250565b7f4f6e6c79204f776e65722063616e2061646420746f6b656e7320746f2074686560008201527f2044414f00000000000000000000000000000000000000000000000000000000602082015250565b7f546869732050726f706f73616c20646f6573206e6f7420657869737400000000600082015250565b7f54686520646561646c696e65206861732070617373656420666f72207468697360008201527f2050726f706f73616c0000000000000000000000000000000000000000000000602082015250565b7f436f756e7420616c726561647920636f6e647563746564000000000000000000600082015250565b7f566f74696e6720686173206e6f7420636f6e636c756465640000000000000000600082015250565b7f546869732070726f706f73616c20646f6573206e6f7420657869737400000000600082015250565b7f4f6e6c79204f776e65722043616e20436f756e7420566f746573000000000000600082015250565b7f596f752063616e6e6f7420766f7465206f6e20746869732050726f706f73616c600082015250565b7f4f6e6c79204e465420686f6c646572732063616e206372656174652070726f7060008201527f6f73616c73000000000000000000000000000000000000000000000000000000602082015250565b61227381611dda565b811461227e57600080fd5b50565b61228a81611dec565b811461229557600080fd5b50565b6122a181611e18565b81146122ac57600080fd5b5056fea264697066735822122086456d46d7021d8a0687319313c32d656b1541130d50957b96f4cdcecda23bfd64736f6c63430008070033",
  "linkReferences": {},
  "deployedLinkReferences": {}
}