{
  "_format": "hh-sol-artifact-1",
  "contractName": "Token",
  "sourceName": "contracts/Planets.sol",
  "abi": [
    {
      "inputs": [
        {
          "internalType": "string",
          "name": "name",
          "type": "string"
        },
        {
          "internalType": "string",
          "name": "symbol",
          "type": "string"
        }
      ],
      "stateMutability": "nonpayable",
      "type": "constructor"
    },
    {
      "anonymous": false,
      "inputs": [
        {
          "indexed": true,
          "internalType": "address",
          "name": "owner",
          "type": "address"
        },
        {
          "indexed": true,
          "internalType": "address",
          "name": "approved",
          "type": "address"
        },
        {
          "indexed": true,
          "internalType": "uint256",
          "name": "tokenId",
          "type": "uint256"
        }
      ],
      "name": "Approval",
      "type": "event"
    },
    {
      "anonymous": false,
      "inputs": [
        {
          "indexed": true,
          "internalType": "address",
          "name": "owner",
          "type": "address"
        },
        {
          "indexed": true,
          "internalType": "address",
          "name": "operator",
          "type": "address"
        },
        {
          "indexed": false,
          "internalType": "bool",
          "name": "approved",
          "type": "bool"
        }
      ],
      "name": "ApprovalForAll",
      "type": "event"
    },
    {
      "anonymous": false,
      "inputs": [
        {
          "indexed": true,
          "internalType": "address",
          "name": "previousOwner",
          "type": "address"
        },
        {
          "indexed": true,
          "internalType": "address",
          "name": "newOwner",
          "type": "address"
        }
      ],
      "name": "OwnershipTransferred",
      "type": "event"
    },
    {
      "anonymous": false,
      "inputs": [
        {
          "indexed": true,
          "internalType": "address",
          "name": "from",
          "type": "address"
        },
        {
          "indexed": true,
          "internalType": "address",
          "name": "to",
          "type": "address"
        },
        {
          "indexed": true,
          "internalType": "uint256",
          "name": "tokenId",
          "type": "uint256"
        }
      ],
      "name": "Transfer",
      "type": "event"
    },
    {
      "inputs": [
        {
          "internalType": "address",
          "name": "to",
          "type": "address"
        },
        {
          "internalType": "uint256",
          "name": "tokenId",
          "type": "uint256"
        }
      ],
      "name": "approve",
      "outputs": [],
      "stateMutability": "nonpayable",
      "type": "function"
    },
    {
      "inputs": [
        {
          "internalType": "address",
          "name": "owner",
          "type": "address"
        }
      ],
      "name": "balanceOf",
      "outputs": [
        {
          "internalType": "uint256",
          "name": "",
          "type": "uint256"
        }
      ],
      "stateMutability": "view",
      "type": "function"
    },
    {
      "inputs": [
        {
          "internalType": "uint256",
          "name": "tokenId",
          "type": "uint256"
        }
      ],
      "name": "feed",
      "outputs": [],
      "stateMutability": "nonpayable",
      "type": "function"
    },
    {
      "inputs": [
        {
          "internalType": "uint256",
          "name": "tokenId",
          "type": "uint256"
        }
      ],
      "name": "getApproved",
      "outputs": [
        {
          "internalType": "address",
          "name": "",
          "type": "address"
        }
      ],
      "stateMutability": "view",
      "type": "function"
    },
    {
      "inputs": [
        {
          "internalType": "uint256",
          "name": "tokenId",
          "type": "uint256"
        }
      ],
      "name": "getTokenDetails",
      "outputs": [
        {
          "components": [
            {
              "internalType": "uint8",
              "name": "damage",
              "type": "uint8"
            },
            {
              "internalType": "uint8",
              "name": "magic",
              "type": "uint8"
            },
            {
              "internalType": "uint256",
              "name": "lastMeal",
              "type": "uint256"
            },
            {
              "internalType": "uint256",
              "name": "endurance",
              "type": "uint256"
            }
          ],
          "internalType": "struct Token.Planet",
          "name": "",
          "type": "tuple"
        }
      ],
      "stateMutability": "view",
      "type": "function"
    },
    {
      "inputs": [
        {
          "internalType": "address",
          "name": "owner",
          "type": "address"
        },
        {
          "internalType": "address",
          "name": "operator",
          "type": "address"
        }
      ],
      "name": "isApprovedForAll",
      "outputs": [
        {
          "internalType": "bool",
          "name": "",
          "type": "bool"
        }
      ],
      "stateMutability": "view",
      "type": "function"
    },
    {
      "inputs": [
        {
          "internalType": "uint8",
          "name": "damage",
          "type": "uint8"
        },
        {
          "internalType": "uint8",
          "name": "magic",
          "type": "uint8"
        },
        {
          "internalType": "uint8",
          "name": "fastingTime",
          "type": "uint8"
        },
        {
          "internalType": "uint256",
          "name": "endurance",
          "type": "uint256"
        }
      ],
      "name": "mint",
      "outputs": [],
      "stateMutability": "nonpayable",
      "type": "function"
    },
    {
      "inputs": [],
      "name": "name",
      "outputs": [
        {
          "internalType": "string",
          "name": "",
          "type": "string"
        }
      ],
      "stateMutability": "view",
      "type": "function"
    },
    {
      "inputs": [],
      "name": "owner",
      "outputs": [
        {
          "internalType": "address",
          "name": "",
          "type": "address"
        }
      ],
      "stateMutability": "view",
      "type": "function"
    },
    {
      "inputs": [
        {
          "internalType": "uint256",
          "name": "tokenId",
          "type": "uint256"
        }
      ],
      "name": "ownerOf",
      "outputs": [
        {
          "internalType": "address",
          "name": "",
          "type": "address"
        }
      ],
      "stateMutability": "view",
      "type": "function"
    },
    {
      "inputs": [],
      "name": "renounceOwnership",
      "outputs": [],
      "stateMutability": "nonpayable",
      "type": "function"
    },
    {
      "inputs": [
        {
          "internalType": "address",
          "name": "from",
          "type": "address"
        },
        {
          "internalType": "address",
          "name": "to",
          "type": "address"
        },
        {
          "internalType": "uint256",
          "name": "tokenId",
          "type": "uint256"
        }
      ],
      "name": "safeTransferFrom",
      "outputs": [],
      "stateMutability": "nonpayable",
      "type": "function"
    },
    {
      "inputs": [
        {
          "internalType": "address",
          "name": "from",
          "type": "address"
        },
        {
          "internalType": "address",
          "name": "to",
          "type": "address"
        },
        {
          "internalType": "uint256",
          "name": "tokenId",
          "type": "uint256"
        },
        {
          "internalType": "bytes",
          "name": "data",
          "type": "bytes"
        }
      ],
      "name": "safeTransferFrom",
      "outputs": [],
      "stateMutability": "nonpayable",
      "type": "function"
    },
    {
      "inputs": [
        {
          "internalType": "address",
          "name": "operator",
          "type": "address"
        },
        {
          "internalType": "bool",
          "name": "approved",
          "type": "bool"
        }
      ],
      "name": "setApprovalForAll",
      "outputs": [],
      "stateMutability": "nonpayable",
      "type": "function"
    },
    {
      "inputs": [
        {
          "internalType": "bytes4",
          "name": "interfaceId",
          "type": "bytes4"
        }
      ],
      "name": "supportsInterface",
      "outputs": [
        {
          "internalType": "bool",
          "name": "",
          "type": "bool"
        }
      ],
      "stateMutability": "view",
      "type": "function"
    },
    {
      "inputs": [],
      "name": "symbol",
      "outputs": [
        {
          "internalType": "string",
          "name": "",
          "type": "string"
        }
      ],
      "stateMutability": "view",
      "type": "function"
    },
    {
      "inputs": [
        {
          "internalType": "uint256",
          "name": "tokenId",
          "type": "uint256"
        }
      ],
      "name": "tokenURI",
      "outputs": [
        {
          "internalType": "string",
          "name": "",
          "type": "string"
        }
      ],
      "stateMutability": "view",
      "type": "function"
    },
    {
      "inputs": [
        {
          "internalType": "address",
          "name": "from",
          "type": "address"
        },
        {
          "internalType": "address",
          "name": "to",
          "type": "address"
        },
        {
          "internalType": "uint256",
          "name": "tokenId",
          "type": "uint256"
        }
      ],
      "name": "transferFrom",
      "outputs": [],
      "stateMutability": "nonpayable",
      "type": "function"
    },
    {
      "inputs": [
        {
          "internalType": "address",
          "name": "newOwner",
          "type": "address"
        }
      ],
      "name": "transferOwnership",
      "outputs": [],
      "stateMutability": "nonpayable",
      "type": "function"
    }
  ],
  "bytecode": "0x608060405260006007553480156200001657600080fd5b506040516200308e3803806200308e83398181016040528101906200003c919062000296565b818181600090805190602001906200005692919062000168565b5080600190805190602001906200006f92919062000168565b50505062000092620000866200009a60201b60201c565b620000a260201b60201c565b50506200049f565b600033905090565b6000600660009054906101000a900473ffffffffffffffffffffffffffffffffffffffff16905081600660006101000a81548173ffffffffffffffffffffffffffffffffffffffff021916908373ffffffffffffffffffffffffffffffffffffffff1602179055508173ffffffffffffffffffffffffffffffffffffffff168173ffffffffffffffffffffffffffffffffffffffff167f8be0079c531659141344cd1fd0a4f28419497f9722a3daafe3b4186f6b6457e060405160405180910390a35050565b8280546200017690620003b0565b90600052602060002090601f0160209004810192826200019a5760008555620001e6565b82601f10620001b557805160ff1916838001178555620001e6565b82800160010185558215620001e6579182015b82811115620001e5578251825591602001919060010190620001c8565b5b509050620001f59190620001f9565b5090565b5b8082111562000214576000816000905550600101620001fa565b5090565b60006200022f620002298462000344565b6200031b565b9050828152602081018484840111156200024e576200024d6200047f565b5b6200025b8482856200037a565b509392505050565b600082601f8301126200027b576200027a6200047a565b5b81516200028d84826020860162000218565b91505092915050565b60008060408385031215620002b057620002af62000489565b5b600083015167ffffffffffffffff811115620002d157620002d062000484565b5b620002df8582860162000263565b925050602083015167ffffffffffffffff81111562000303576200030262000484565b5b620003118582860162000263565b9150509250929050565b6000620003276200033a565b9050620003358282620003e6565b919050565b6000604051905090565b600067ffffffffffffffff8211156200036257620003616200044b565b5b6200036d826200048e565b9050602081019050919050565b60005b838110156200039a5780820151818401526020810190506200037d565b83811115620003aa576000848401525b50505050565b60006002820490506001821680620003c957607f821691505b60208210811415620003e057620003df6200041c565b5b50919050565b620003f1826200048e565b810181811067ffffffffffffffff821117156200041357620004126200044b565b5b80604052505050565b7f4e487b7100000000000000000000000000000000000000000000000000000000600052602260045260246000fd5b7f4e487b7100000000000000000000000000000000000000000000000000000000600052604160045260246000fd5b600080fd5b600080fd5b600080fd5b600080fd5b6000601f19601f8301169050919050565b612bdf80620004af6000396000f3fe608060405234801561001057600080fd5b50600436106101215760003560e01c80638da5cb5b116100ad578063c1e0372811610071578063c1e03728146102f2578063c87b56dd14610322578063e985e9c514610352578063f2fde38b14610382578063f59dfdfb1461039e57610121565b80638da5cb5b1461026257806395d89b4114610280578063a05e9ff81461029e578063a22cb465146102ba578063b88d4fde146102d657610121565b806323b872dd116100f457806323b872dd146101c057806342842e0e146101dc5780636352211e146101f857806370a0823114610228578063715018a61461025857610121565b806301ffc9a71461012657806306fdde0314610156578063081812fc14610174578063095ea7b3146101a4575b600080fd5b610140600480360381019061013b9190611d57565b6103ba565b60405161014d91906121da565b60405180910390f35b61015e61049c565b60405161016b91906121f5565b60405180910390f35b61018e60048036038101906101899190611db1565b61052e565b60405161019b9190612173565b60405180910390f35b6101be60048036038101906101b99190611d17565b610574565b005b6101da60048036038101906101d59190611c01565b61068c565b005b6101f660048036038101906101f19190611c01565b6106ec565b005b610212600480360381019061020d9190611db1565b61070c565b60405161021f9190612173565b60405180910390f35b610242600480360381019061023d9190611b94565b6107be565b60405161024f91906123d2565b60405180910390f35b610260610876565b005b61026a61088a565b6040516102779190612173565b60405180910390f35b6102886108b4565b60405161029591906121f5565b60405180910390f35b6102b860048036038101906102b39190611dde565b610946565b005b6102d460048036038101906102cf9190611cd7565b610a0d565b005b6102f060048036038101906102eb9190611c54565b610a23565b005b61030c60048036038101906103079190611db1565b610a85565b60405161031991906123b7565b60405180910390f35b61033c60048036038101906103379190611db1565b610b00565b60405161034991906121f5565b60405180910390f35b61036c60048036038101906103679190611bc1565b610b68565b60405161037991906121da565b60405180910390f35b61039c60048036038101906103979190611b94565b610bfc565b005b6103b860048036038101906103b39190611db1565b610c80565b005b60007f80ac58cd000000000000000000000000000000000000000000000000000000007bffffffffffffffffffffffffffffffffffffffffffffffffffffffff1916827bffffffffffffffffffffffffffffffffffffffffffffffffffffffff1916148061048557507f5b5e139f000000000000000000000000000000000000000000000000000000007bffffffffffffffffffffffffffffffffffffffffffffffffffffffff1916827bffffffffffffffffffffffffffffffffffffffffffffffffffffffff1916145b80610495575061049482610cc5565b5b9050919050565b6060600080546104ab90612604565b80601f01602080910402602001604051908101604052809291908181526020018280546104d790612604565b80156105245780601f106104f957610100808354040283529160200191610524565b820191906000526020600020905b81548152906001019060200180831161050757829003601f168201915b5050505050905090565b600061053982610d2f565b6004600083815260200190815260200160002060009054906101000a900473ffffffffffffffffffffffffffffffffffffffff169050919050565b600061057f8261070c565b90508073ffffffffffffffffffffffffffffffffffffffff168373ffffffffffffffffffffffffffffffffffffffff1614156105f0576040517f08c379a00000000000000000000000000000000000000000000000000000000081526004016105e790612377565b60405180910390fd5b8073ffffffffffffffffffffffffffffffffffffffff1661060f610d7a565b73ffffffffffffffffffffffffffffffffffffffff16148061063e575061063d81610638610d7a565b610b68565b5b61067d576040517f08c379a0000000000000000000000000000000000000000000000000000000008152600401610674906122f7565b60405180910390fd5b6106878383610d82565b505050565b61069d610697610d7a565b82610e3b565b6106dc576040517f08c379a00000000000000000000000000000000000000000000000000000000081526004016106d390612397565b60405180910390fd5b6106e7838383610ed0565b505050565b61070783838360405180602001604052806000815250610a23565b505050565b6000806002600084815260200190815260200160002060009054906101000a900473ffffffffffffffffffffffffffffffffffffffff169050600073ffffffffffffffffffffffffffffffffffffffff168173ffffffffffffffffffffffffffffffffffffffff1614156107b5576040517f08c379a00000000000000000000000000000000000000000000000000000000081526004016107ac90612357565b60405180910390fd5b80915050919050565b60008073ffffffffffffffffffffffffffffffffffffffff168273ffffffffffffffffffffffffffffffffffffffff16141561082f576040517f08c379a0000000000000000000000000000000000000000000000000000000008152600401610826906122d7565b60405180910390fd5b600360008373ffffffffffffffffffffffffffffffffffffffff1673ffffffffffffffffffffffffffffffffffffffff168152602001908152602001600020549050919050565b61087e611137565b61088860006111b5565b565b6000600660009054906101000a900473ffffffffffffffffffffffffffffffffffffffff16905090565b6060600180546108c390612604565b80601f01602080910402602001604051908101604052809291908181526020018280546108ef90612604565b801561093c5780601f106109115761010080835404028352916020019161093c565b820191906000526020600020905b81548152906001019060200180831161091f57829003601f168201915b5050505050905090565b61094e611137565b60405180608001604052808560ff1681526020018460ff1681526020014281526020018281525060086000600754815260200190815260200160002060008201518160000160006101000a81548160ff021916908360ff16021790555060208201518160000160016101000a81548160ff021916908360ff16021790555060408201518160010155606082015181600201559050506109ef3360075461127b565b60076000815480929190610a0290612667565b919050555050505050565b610a1f610a18610d7a565b8383611299565b5050565b610a34610a2e610d7a565b83610e3b565b610a73576040517f08c379a0000000000000000000000000000000000000000000000000000000008152600401610a6a90612397565b60405180910390fd5b610a7f84848484611406565b50505050565b610a8d611a78565b600860008381526020019081526020016000206040518060800160405290816000820160009054906101000a900460ff1660ff1660ff1681526020016000820160019054906101000a900460ff1660ff1660ff168152602001600182015481526020016002820154815250509050919050565b6060610b0b82610d2f565b6000610b15611462565b90506000815111610b355760405180602001604052806000815250610b60565b80610b3f84611479565b604051602001610b5092919061214f565b6040516020818303038152906040525b915050919050565b6000600560008473ffffffffffffffffffffffffffffffffffffffff1673ffffffffffffffffffffffffffffffffffffffff16815260200190815260200160002060008373ffffffffffffffffffffffffffffffffffffffff1673ffffffffffffffffffffffffffffffffffffffff16815260200190815260200160002060009054906101000a900460ff16905092915050565b610c04611137565b600073ffffffffffffffffffffffffffffffffffffffff168173ffffffffffffffffffffffffffffffffffffffff161415610c74576040517f08c379a0000000000000000000000000000000000000000000000000000000008152600401610c6b90612237565b60405180910390fd5b610c7d816111b5565b50565b600060086000600754815260200190815260200160002090504281600201548260010154610cae9190612486565b11610cb857600080fd5b4281600101819055505050565b60007f01ffc9a7000000000000000000000000000000000000000000000000000000007bffffffffffffffffffffffffffffffffffffffffffffffffffffffff1916827bffffffffffffffffffffffffffffffffffffffffffffffffffffffff1916149050919050565b610d38816115da565b610d77576040517f08c379a0000000000000000000000000000000000000000000000000000000008152600401610d6e90612357565b60405180910390fd5b50565b600033905090565b816004600083815260200190815260200160002060006101000a81548173ffffffffffffffffffffffffffffffffffffffff021916908373ffffffffffffffffffffffffffffffffffffffff160217905550808273ffffffffffffffffffffffffffffffffffffffff16610df58361070c565b73ffffffffffffffffffffffffffffffffffffffff167f8c5be1e5ebec7d5bd14f71427d1e84f3dd0314c0f7b2291e5b200ac8c7c3b92560405160405180910390a45050565b600080610e478361070c565b90508073ffffffffffffffffffffffffffffffffffffffff168473ffffffffffffffffffffffffffffffffffffffff161480610e895750610e888185610b68565b5b80610ec757508373ffffffffffffffffffffffffffffffffffffffff16610eaf8461052e565b73ffffffffffffffffffffffffffffffffffffffff16145b91505092915050565b8273ffffffffffffffffffffffffffffffffffffffff16610ef08261070c565b73ffffffffffffffffffffffffffffffffffffffff1614610f46576040517f08c379a0000000000000000000000000000000000000000000000000000000008152600401610f3d90612257565b60405180910390fd5b600073ffffffffffffffffffffffffffffffffffffffff168273ffffffffffffffffffffffffffffffffffffffff161415610fb6576040517f08c379a0000000000000000000000000000000000000000000000000000000008152600401610fad90612297565b60405180910390fd5b610fc1838383611646565b610fcc600082610d82565b6001600360008573ffffffffffffffffffffffffffffffffffffffff1673ffffffffffffffffffffffffffffffffffffffff168152602001908152602001600020600082825461101c919061250d565b925050819055506001600360008473ffffffffffffffffffffffffffffffffffffffff1673ffffffffffffffffffffffffffffffffffffffff16815260200190815260200160002060008282546110739190612486565b92505081905550816002600083815260200190815260200160002060006101000a81548173ffffffffffffffffffffffffffffffffffffffff021916908373ffffffffffffffffffffffffffffffffffffffff160217905550808273ffffffffffffffffffffffffffffffffffffffff168473ffffffffffffffffffffffffffffffffffffffff167fddf252ad1be2c89b69c2b068fc378daa952ba7f163c4a11628f55a4df523b3ef60405160405180910390a4611132838383611684565b505050565b61113f610d7a565b73ffffffffffffffffffffffffffffffffffffffff1661115d61088a565b73ffffffffffffffffffffffffffffffffffffffff16146111b3576040517f08c379a00000000000000000000000000000000000000000000000000000000081526004016111aa90612337565b60405180910390fd5b565b6000600660009054906101000a900473ffffffffffffffffffffffffffffffffffffffff16905081600660006101000a81548173ffffffffffffffffffffffffffffffffffffffff021916908373ffffffffffffffffffffffffffffffffffffffff1602179055508173ffffffffffffffffffffffffffffffffffffffff168173ffffffffffffffffffffffffffffffffffffffff167f8be0079c531659141344cd1fd0a4f28419497f9722a3daafe3b4186f6b6457e060405160405180910390a35050565b611295828260405180602001604052806000815250611689565b5050565b8173ffffffffffffffffffffffffffffffffffffffff168373ffffffffffffffffffffffffffffffffffffffff161415611308576040517f08c379a00000000000000000000000000000000000000000000000000000000081526004016112ff906122b7565b60405180910390fd5b80600560008573ffffffffffffffffffffffffffffffffffffffff1673ffffffffffffffffffffffffffffffffffffffff16815260200190815260200160002060008473ffffffffffffffffffffffffffffffffffffffff1673ffffffffffffffffffffffffffffffffffffffff16815260200190815260200160002060006101000a81548160ff0219169083151502179055508173ffffffffffffffffffffffffffffffffffffffff168373ffffffffffffffffffffffffffffffffffffffff167f17307eab39ab6107e8899845ad3d59bd9653f200f220920489ca2b5937696c31836040516113f991906121da565b60405180910390a3505050565b611411848484610ed0565b61141d848484846116e4565b61145c576040517f08c379a000000000000000000000000000000000000000000000000000000000815260040161145390612217565b60405180910390fd5b50505050565b606060405180602001604052806000815250905090565b606060008214156114c1576040518060400160405280600181526020017f300000000000000000000000000000000000000000000000000000000000000081525090506115d5565b600082905060005b600082146114f35780806114dc90612667565b915050600a826114ec91906124dc565b91506114c9565b60008167ffffffffffffffff81111561150f5761150e61279d565b5b6040519080825280601f01601f1916602001820160405280156115415781602001600182028036833780820191505090505b5090505b600085146115ce5760018261155a919061250d565b9150600a8561156991906126b0565b60306115759190612486565b60f81b81838151811061158b5761158a61276e565b5b60200101907effffffffffffffffffffffffffffffffffffffffffffffffffffffffffffff1916908160001a905350600a856115c791906124dc565b9450611545565b8093505050505b919050565b60008073ffffffffffffffffffffffffffffffffffffffff166002600084815260200190815260200160002060009054906101000a900473ffffffffffffffffffffffffffffffffffffffff1673ffffffffffffffffffffffffffffffffffffffff1614159050919050565b6000600860006007548152602001908152602001600020905042816002015482600101546116749190612486565b1161167e57600080fd5b50505050565b505050565b611693838361187b565b6116a060008484846116e4565b6116df576040517f08c379a00000000000000000000000000000000000000000000000000000000081526004016116d690612217565b60405180910390fd5b505050565b60006117058473ffffffffffffffffffffffffffffffffffffffff16611a55565b1561186e578373ffffffffffffffffffffffffffffffffffffffff1663150b7a0261172e610d7a565b8786866040518563ffffffff1660e01b8152600401611750949392919061218e565b602060405180830381600087803b15801561176a57600080fd5b505af192505050801561179b57506040513d601f19601f820116820180604052508101906117989190611d84565b60015b61181e573d80600081146117cb576040519150601f19603f3d011682016040523d82523d6000602084013e6117d0565b606091505b50600081511415611816576040517f08c379a000000000000000000000000000000000000000000000000000000000815260040161180d90612217565b60405180910390fd5b805181602001fd5b63150b7a0260e01b7bffffffffffffffffffffffffffffffffffffffffffffffffffffffff1916817bffffffffffffffffffffffffffffffffffffffffffffffffffffffff191614915050611873565b600190505b949350505050565b600073ffffffffffffffffffffffffffffffffffffffff168273ffffffffffffffffffffffffffffffffffffffff1614156118eb576040517f08c379a00000000000000000000000000000000000000000000000000000000081526004016118e290612317565b60405180910390fd5b6118f4816115da565b15611934576040517f08c379a000000000000000000000000000000000000000000000000000000000815260040161192b90612277565b60405180910390fd5b61194060008383611646565b6001600360008473ffffffffffffffffffffffffffffffffffffffff1673ffffffffffffffffffffffffffffffffffffffff16815260200190815260200160002060008282546119909190612486565b92505081905550816002600083815260200190815260200160002060006101000a81548173ffffffffffffffffffffffffffffffffffffffff021916908373ffffffffffffffffffffffffffffffffffffffff160217905550808273ffffffffffffffffffffffffffffffffffffffff16600073ffffffffffffffffffffffffffffffffffffffff167fddf252ad1be2c89b69c2b068fc378daa952ba7f163c4a11628f55a4df523b3ef60405160405180910390a4611a5160008383611684565b5050565b6000808273ffffffffffffffffffffffffffffffffffffffff163b119050919050565b6040518060800160405280600060ff168152602001600060ff16815260200160008152602001600081525090565b6000611ab9611ab484612412565b6123ed565b905082815260208101848484011115611ad557611ad46127d1565b5b611ae08482856125c2565b509392505050565b600081359050611af781612b36565b92915050565b600081359050611b0c81612b4d565b92915050565b600081359050611b2181612b64565b92915050565b600081519050611b3681612b64565b92915050565b600082601f830112611b5157611b506127cc565b5b8135611b61848260208601611aa6565b91505092915050565b600081359050611b7981612b7b565b92915050565b600081359050611b8e81612b92565b92915050565b600060208284031215611baa57611ba96127db565b5b6000611bb884828501611ae8565b91505092915050565b60008060408385031215611bd857611bd76127db565b5b6000611be685828601611ae8565b9250506020611bf785828601611ae8565b9150509250929050565b600080600060608486031215611c1a57611c196127db565b5b6000611c2886828701611ae8565b9350506020611c3986828701611ae8565b9250506040611c4a86828701611b6a565b9150509250925092565b60008060008060808587031215611c6e57611c6d6127db565b5b6000611c7c87828801611ae8565b9450506020611c8d87828801611ae8565b9350506040611c9e87828801611b6a565b925050606085013567ffffffffffffffff811115611cbf57611cbe6127d6565b5b611ccb87828801611b3c565b91505092959194509250565b60008060408385031215611cee57611ced6127db565b5b6000611cfc85828601611ae8565b9250506020611d0d85828601611afd565b9150509250929050565b60008060408385031215611d2e57611d2d6127db565b5b6000611d3c85828601611ae8565b9250506020611d4d85828601611b6a565b9150509250929050565b600060208284031215611d6d57611d6c6127db565b5b6000611d7b84828501611b12565b91505092915050565b600060208284031215611d9a57611d996127db565b5b6000611da884828501611b27565b91505092915050565b600060208284031215611dc757611dc66127db565b5b6000611dd584828501611b6a565b91505092915050565b60008060008060808587031215611df857611df76127db565b5b6000611e0687828801611b7f565b9450506020611e1787828801611b7f565b9350506040611e2887828801611b7f565b9250506060611e3987828801611b6a565b91505092959194509250565b611e4e81612541565b82525050565b611e5d81612553565b82525050565b6000611e6e82612443565b611e788185612459565b9350611e888185602086016125d1565b611e91816127e0565b840191505092915050565b6000611ea78261244e565b611eb1818561246a565b9350611ec18185602086016125d1565b611eca816127e0565b840191505092915050565b6000611ee08261244e565b611eea818561247b565b9350611efa8185602086016125d1565b80840191505092915050565b6000611f1360328361246a565b9150611f1e826127f1565b604082019050919050565b6000611f3660268361246a565b9150611f4182612840565b604082019050919050565b6000611f5960258361246a565b9150611f648261288f565b604082019050919050565b6000611f7c601c8361246a565b9150611f87826128de565b602082019050919050565b6000611f9f60248361246a565b9150611faa82612907565b604082019050919050565b6000611fc260198361246a565b9150611fcd82612956565b602082019050919050565b6000611fe560298361246a565b9150611ff08261297f565b604082019050919050565b6000612008603e8361246a565b9150612013826129ce565b604082019050919050565b600061202b60208361246a565b915061203682612a1d565b602082019050919050565b600061204e60208361246a565b915061205982612a46565b602082019050919050565b600061207160188361246a565b915061207c82612a6f565b602082019050919050565b600061209460218361246a565b915061209f82612a98565b604082019050919050565b60006120b7602e8361246a565b91506120c282612ae7565b604082019050919050565b6080820160008201516120e36000850182612140565b5060208201516120f66020850182612140565b5060408201516121096040850182612122565b50606082015161211c6060850182612122565b50505050565b61212b816125ab565b82525050565b61213a816125ab565b82525050565b612149816125b5565b82525050565b600061215b8285611ed5565b91506121678284611ed5565b91508190509392505050565b60006020820190506121886000830184611e45565b92915050565b60006080820190506121a36000830187611e45565b6121b06020830186611e45565b6121bd6040830185612131565b81810360608301526121cf8184611e63565b905095945050505050565b60006020820190506121ef6000830184611e54565b92915050565b6000602082019050818103600083015261220f8184611e9c565b905092915050565b6000602082019050818103600083015261223081611f06565b9050919050565b6000602082019050818103600083015261225081611f29565b9050919050565b6000602082019050818103600083015261227081611f4c565b9050919050565b6000602082019050818103600083015261229081611f6f565b9050919050565b600060208201905081810360008301526122b081611f92565b9050919050565b600060208201905081810360008301526122d081611fb5565b9050919050565b600060208201905081810360008301526122f081611fd8565b9050919050565b6000602082019050818103600083015261231081611ffb565b9050919050565b600060208201905081810360008301526123308161201e565b9050919050565b6000602082019050818103600083015261235081612041565b9050919050565b6000602082019050818103600083015261237081612064565b9050919050565b6000602082019050818103600083015261239081612087565b9050919050565b600060208201905081810360008301526123b0816120aa565b9050919050565b60006080820190506123cc60008301846120cd565b92915050565b60006020820190506123e76000830184612131565b92915050565b60006123f7612408565b90506124038282612636565b919050565b6000604051905090565b600067ffffffffffffffff82111561242d5761242c61279d565b5b612436826127e0565b9050602081019050919050565b600081519050919050565b600081519050919050565b600082825260208201905092915050565b600082825260208201905092915050565b600081905092915050565b6000612491826125ab565b915061249c836125ab565b9250827fffffffffffffffffffffffffffffffffffffffffffffffffffffffffffffffff038211156124d1576124d06126e1565b5b828201905092915050565b60006124e7826125ab565b91506124f2836125ab565b92508261250257612501612710565b5b828204905092915050565b6000612518826125ab565b9150612523836125ab565b925082821015612536576125356126e1565b5b828203905092915050565b600061254c8261258b565b9050919050565b60008115159050919050565b60007fffffffff0000000000000000000000000000000000000000000000000000000082169050919050565b600073ffffffffffffffffffffffffffffffffffffffff82169050919050565b6000819050919050565b600060ff82169050919050565b82818337600083830152505050565b60005b838110156125ef5780820151818401526020810190506125d4565b838111156125fe576000848401525b50505050565b6000600282049050600182168061261c57607f821691505b602082108114156126305761262f61273f565b5b50919050565b61263f826127e0565b810181811067ffffffffffffffff8211171561265e5761265d61279d565b5b80604052505050565b6000612672826125ab565b91507fffffffffffffffffffffffffffffffffffffffffffffffffffffffffffffffff8214156126a5576126a46126e1565b5b600182019050919050565b60006126bb826125ab565b91506126c6836125ab565b9250826126d6576126d5612710565b5b828206905092915050565b7f4e487b7100000000000000000000000000000000000000000000000000000000600052601160045260246000fd5b7f4e487b7100000000000000000000000000000000000000000000000000000000600052601260045260246000fd5b7f4e487b7100000000000000000000000000000000000000000000000000000000600052602260045260246000fd5b7f4e487b7100000000000000000000000000000000000000000000000000000000600052603260045260246000fd5b7f4e487b7100000000000000000000000000000000000000000000000000000000600052604160045260246000fd5b600080fd5b600080fd5b600080fd5b600080fd5b6000601f19601f8301169050919050565b7f4552433732313a207472616e7366657220746f206e6f6e20455243373231526560008201527f63656976657220696d706c656d656e7465720000000000000000000000000000602082015250565b7f4f776e61626c653a206e6577206f776e657220697320746865207a65726f206160008201527f6464726573730000000000000000000000000000000000000000000000000000602082015250565b7f4552433732313a207472616e736665722066726f6d20696e636f72726563742060008201527f6f776e6572000000000000000000000000000000000000000000000000000000602082015250565b7f4552433732313a20746f6b656e20616c7265616479206d696e74656400000000600082015250565b7f4552433732313a207472616e7366657220746f20746865207a65726f2061646460008201527f7265737300000000000000000000000000000000000000000000000000000000602082015250565b7f4552433732313a20617070726f766520746f2063616c6c657200000000000000600082015250565b7f4552433732313a2061646472657373207a65726f206973206e6f74206120766160008201527f6c6964206f776e65720000000000000000000000000000000000000000000000602082015250565b7f4552433732313a20617070726f76652063616c6c6572206973206e6f7420746f60008201527f6b656e206f776e6572206e6f7220617070726f76656420666f7220616c6c0000602082015250565b7f4552433732313a206d696e7420746f20746865207a65726f2061646472657373600082015250565b7f4f776e61626c653a2063616c6c6572206973206e6f7420746865206f776e6572600082015250565b7f4552433732313a20696e76616c696420746f6b656e2049440000000000000000600082015250565b7f4552433732313a20617070726f76616c20746f2063757272656e74206f776e6560008201527f7200000000000000000000000000000000000000000000000000000000000000602082015250565b7f4552433732313a2063616c6c6572206973206e6f7420746f6b656e206f776e6560008201527f72206e6f7220617070726f766564000000000000000000000000000000000000602082015250565b612b3f81612541565b8114612b4a57600080fd5b50565b612b5681612553565b8114612b6157600080fd5b50565b612b6d8161255f565b8114612b7857600080fd5b50565b612b84816125ab565b8114612b8f57600080fd5b50565b612b9b816125b5565b8114612ba657600080fd5b5056fea26469706673582212205f86a150b23b51696a350395f72845e19efde2300bfd5cd99c6f3b265b9d876e64736f6c63430008070033",
  "linkReferences": {},
  "deployedLinkReferences": {}
}