{
  "_format": "hh-sol-artifact-1",
  "contractName": "Token",
  "sourceName": "contracts/Planets.sol",
  "abi": [
    {
      "inputs": [
        {
          "internalType": "string",
          "name": "name",
          "type": "string"
        },
        {
          "internalType": "string",
          "name": "symbol",
          "type": "string"
        }
      ],
      "stateMutability": "nonpayable",
      "type": "constructor"
    },
    {
      "anonymous": false,
      "inputs": [
        {
          "indexed": true,
          "internalType": "address",
          "name": "owner",
          "type": "address"
        },
        {
          "indexed": true,
          "internalType": "address",
          "name": "approved",
          "type": "address"
        },
        {
          "indexed": true,
          "internalType": "uint256",
          "name": "tokenId",
          "type": "uint256"
        }
      ],
      "name": "Approval",
      "type": "event"
    },
    {
      "anonymous": false,
      "inputs": [
        {
          "indexed": true,
          "internalType": "address",
          "name": "owner",
          "type": "address"
        },
        {
          "indexed": true,
          "internalType": "address",
          "name": "operator",
          "type": "address"
        },
        {
          "indexed": false,
          "internalType": "bool",
          "name": "approved",
          "type": "bool"
        }
      ],
      "name": "ApprovalForAll",
      "type": "event"
    },
    {
      "anonymous": false,
      "inputs": [
        {
          "indexed": true,
          "internalType": "address",
          "name": "previousOwner",
          "type": "address"
        },
        {
          "indexed": true,
          "internalType": "address",
          "name": "newOwner",
          "type": "address"
        }
      ],
      "name": "OwnershipTransferred",
      "type": "event"
    },
    {
      "anonymous": false,
      "inputs": [
        {
          "indexed": true,
          "internalType": "address",
          "name": "from",
          "type": "address"
        },
        {
          "indexed": true,
          "internalType": "address",
          "name": "to",
          "type": "address"
        },
        {
          "indexed": true,
          "internalType": "uint256",
          "name": "tokenId",
          "type": "uint256"
        }
      ],
      "name": "Transfer",
      "type": "event"
    },
    {
      "inputs": [
        {
          "internalType": "address",
          "name": "to",
          "type": "address"
        },
        {
          "internalType": "uint256",
          "name": "tokenId",
          "type": "uint256"
        }
      ],
      "name": "approve",
      "outputs": [],
      "stateMutability": "nonpayable",
      "type": "function"
    },
    {
      "inputs": [
        {
          "internalType": "address",
          "name": "owner",
          "type": "address"
        }
      ],
      "name": "balanceOf",
      "outputs": [
        {
          "internalType": "uint256",
          "name": "",
          "type": "uint256"
        }
      ],
      "stateMutability": "view",
      "type": "function"
    },
    {
      "inputs": [
        {
          "internalType": "uint256",
          "name": "tokenId",
          "type": "uint256"
        }
      ],
      "name": "feed",
      "outputs": [],
      "stateMutability": "nonpayable",
      "type": "function"
    },
    {
      "inputs": [
        {
          "internalType": "address",
          "name": "user",
          "type": "address"
        }
      ],
      "name": "getAllTokensForUser",
      "outputs": [
        {
          "internalType": "uint256[]",
          "name": "",
          "type": "uint256[]"
        }
      ],
      "stateMutability": "view",
      "type": "function"
    },
    {
      "inputs": [
        {
          "internalType": "uint256",
          "name": "tokenId",
          "type": "uint256"
        }
      ],
      "name": "getApproved",
      "outputs": [
        {
          "internalType": "address",
          "name": "",
          "type": "address"
        }
      ],
      "stateMutability": "view",
      "type": "function"
    },
    {
      "inputs": [
        {
          "internalType": "uint256",
          "name": "tokenId",
          "type": "uint256"
        }
      ],
      "name": "getTokenDetails",
      "outputs": [
        {
          "components": [
            {
              "internalType": "uint8",
              "name": "damage",
              "type": "uint8"
            },
            {
              "internalType": "uint8",
              "name": "magic",
              "type": "uint8"
            },
            {
              "internalType": "uint256",
              "name": "lastMeal",
              "type": "uint256"
            },
            {
              "internalType": "uint256",
              "name": "endurance",
              "type": "uint256"
            }
          ],
          "internalType": "struct Token.Planet",
          "name": "",
          "type": "tuple"
        }
      ],
      "stateMutability": "view",
      "type": "function"
    },
    {
      "inputs": [
        {
          "internalType": "address",
          "name": "owner",
          "type": "address"
        },
        {
          "internalType": "address",
          "name": "operator",
          "type": "address"
        }
      ],
      "name": "isApprovedForAll",
      "outputs": [
        {
          "internalType": "bool",
          "name": "",
          "type": "bool"
        }
      ],
      "stateMutability": "view",
      "type": "function"
    },
    {
      "inputs": [
        {
          "internalType": "uint8",
          "name": "damage",
          "type": "uint8"
        },
        {
          "internalType": "uint8",
          "name": "magic",
          "type": "uint8"
        },
        {
          "internalType": "uint8",
          "name": "fastingTime",
          "type": "uint8"
        },
        {
          "internalType": "uint256",
          "name": "endurance",
          "type": "uint256"
        }
      ],
      "name": "mint",
      "outputs": [],
      "stateMutability": "nonpayable",
      "type": "function"
    },
    {
      "inputs": [],
      "name": "name",
      "outputs": [
        {
          "internalType": "string",
          "name": "",
          "type": "string"
        }
      ],
      "stateMutability": "view",
      "type": "function"
    },
    {
      "inputs": [],
      "name": "owner",
      "outputs": [
        {
          "internalType": "address",
          "name": "",
          "type": "address"
        }
      ],
      "stateMutability": "view",
      "type": "function"
    },
    {
      "inputs": [
        {
          "internalType": "uint256",
          "name": "tokenId",
          "type": "uint256"
        }
      ],
      "name": "ownerOf",
      "outputs": [
        {
          "internalType": "address",
          "name": "",
          "type": "address"
        }
      ],
      "stateMutability": "view",
      "type": "function"
    },
    {
      "inputs": [],
      "name": "renounceOwnership",
      "outputs": [],
      "stateMutability": "nonpayable",
      "type": "function"
    },
    {
      "inputs": [
        {
          "internalType": "address",
          "name": "from",
          "type": "address"
        },
        {
          "internalType": "address",
          "name": "to",
          "type": "address"
        },
        {
          "internalType": "uint256",
          "name": "tokenId",
          "type": "uint256"
        }
      ],
      "name": "safeTransferFrom",
      "outputs": [],
      "stateMutability": "nonpayable",
      "type": "function"
    },
    {
      "inputs": [
        {
          "internalType": "address",
          "name": "from",
          "type": "address"
        },
        {
          "internalType": "address",
          "name": "to",
          "type": "address"
        },
        {
          "internalType": "uint256",
          "name": "tokenId",
          "type": "uint256"
        },
        {
          "internalType": "bytes",
          "name": "data",
          "type": "bytes"
        }
      ],
      "name": "safeTransferFrom",
      "outputs": [],
      "stateMutability": "nonpayable",
      "type": "function"
    },
    {
      "inputs": [
        {
          "internalType": "address",
          "name": "operator",
          "type": "address"
        },
        {
          "internalType": "bool",
          "name": "approved",
          "type": "bool"
        }
      ],
      "name": "setApprovalForAll",
      "outputs": [],
      "stateMutability": "nonpayable",
      "type": "function"
    },
    {
      "inputs": [
        {
          "internalType": "bytes4",
          "name": "interfaceId",
          "type": "bytes4"
        }
      ],
      "name": "supportsInterface",
      "outputs": [
        {
          "internalType": "bool",
          "name": "",
          "type": "bool"
        }
      ],
      "stateMutability": "view",
      "type": "function"
    },
    {
      "inputs": [],
      "name": "symbol",
      "outputs": [
        {
          "internalType": "string",
          "name": "",
          "type": "string"
        }
      ],
      "stateMutability": "view",
      "type": "function"
    },
    {
      "inputs": [
        {
          "internalType": "uint256",
          "name": "tokenId",
          "type": "uint256"
        }
      ],
      "name": "tokenURI",
      "outputs": [
        {
          "internalType": "string",
          "name": "",
          "type": "string"
        }
      ],
      "stateMutability": "view",
      "type": "function"
    },
    {
      "inputs": [
        {
          "internalType": "address",
          "name": "from",
          "type": "address"
        },
        {
          "internalType": "address",
          "name": "to",
          "type": "address"
        },
        {
          "internalType": "uint256",
          "name": "tokenId",
          "type": "uint256"
        }
      ],
      "name": "transferFrom",
      "outputs": [],
      "stateMutability": "nonpayable",
      "type": "function"
    },
    {
      "inputs": [
        {
          "internalType": "address",
          "name": "newOwner",
          "type": "address"
        }
      ],
      "name": "transferOwnership",
      "outputs": [],
      "stateMutability": "nonpayable",
      "type": "function"
    }
  ],
  "bytecode": "0x608060405260006007553480156200001657600080fd5b50604051620032e9380380620032e983398181016040528101906200003c919062000296565b818181600090805190602001906200005692919062000168565b5080600190805190602001906200006f92919062000168565b50505062000092620000866200009a60201b60201c565b620000a260201b60201c565b50506200049f565b600033905090565b6000600660009054906101000a900473ffffffffffffffffffffffffffffffffffffffff16905081600660006101000a81548173ffffffffffffffffffffffffffffffffffffffff021916908373ffffffffffffffffffffffffffffffffffffffff1602179055508173ffffffffffffffffffffffffffffffffffffffff168173ffffffffffffffffffffffffffffffffffffffff167f8be0079c531659141344cd1fd0a4f28419497f9722a3daafe3b4186f6b6457e060405160405180910390a35050565b8280546200017690620003b0565b90600052602060002090601f0160209004810192826200019a5760008555620001e6565b82601f10620001b557805160ff1916838001178555620001e6565b82800160010185558215620001e6579182015b82811115620001e5578251825591602001919060010190620001c8565b5b509050620001f59190620001f9565b5090565b5b8082111562000214576000816000905550600101620001fa565b5090565b60006200022f620002298462000344565b6200031b565b9050828152602081018484840111156200024e576200024d6200047f565b5b6200025b8482856200037a565b509392505050565b600082601f8301126200027b576200027a6200047a565b5b81516200028d84826020860162000218565b91505092915050565b60008060408385031215620002b057620002af62000489565b5b600083015167ffffffffffffffff811115620002d157620002d062000484565b5b620002df8582860162000263565b925050602083015167ffffffffffffffff81111562000303576200030262000484565b5b620003118582860162000263565b9150509250929050565b6000620003276200033a565b9050620003358282620003e6565b919050565b6000604051905090565b600067ffffffffffffffff8211156200036257620003616200044b565b5b6200036d826200048e565b9050602081019050919050565b60005b838110156200039a5780820151818401526020810190506200037d565b83811115620003aa576000848401525b50505050565b60006002820490506001821680620003c957607f821691505b60208210811415620003e057620003df6200041c565b5b50919050565b620003f1826200048e565b810181811067ffffffffffffffff821117156200041357620004126200044b565b5b80604052505050565b7f4e487b7100000000000000000000000000000000000000000000000000000000600052602260045260246000fd5b7f4e487b7100000000000000000000000000000000000000000000000000000000600052604160045260246000fd5b600080fd5b600080fd5b600080fd5b600080fd5b6000601f19601f8301169050919050565b612e3a80620004af6000396000f3fe608060405234801561001057600080fd5b506004361061012c5760003560e01c80638da5cb5b116100ad578063c1e0372811610071578063c1e037281461032d578063c87b56dd1461035d578063e985e9c51461038d578063f2fde38b146103bd578063f59dfdfb146103d95761012c565b80638da5cb5b1461029d57806395d89b41146102bb578063a05e9ff8146102d9578063a22cb465146102f5578063b88d4fde146103115761012c565b806342842e0e116100f457806342842e0e146101e75780636352211e1461020357806370a0823114610233578063715018a61461026357806382de8fe91461026d5761012c565b806301ffc9a71461013157806306fdde0314610161578063081812fc1461017f578063095ea7b3146101af57806323b872dd146101cb575b600080fd5b61014b60048036038101906101469190611ee1565b6103f5565b60405161015891906123fc565b60405180910390f35b6101696104d7565b6040516101769190612417565b60405180910390f35b61019960048036038101906101949190611f3b565b610569565b6040516101a69190612373565b60405180910390f35b6101c960048036038101906101c49190611ea1565b6105af565b005b6101e560048036038101906101e09190611d8b565b6106c7565b005b61020160048036038101906101fc9190611d8b565b610727565b005b61021d60048036038101906102189190611f3b565b610747565b60405161022a9190612373565b60405180910390f35b61024d60048036038101906102489190611d1e565b6107f9565b60405161025a91906125f4565b60405180910390f35b61026b6108b1565b005b61028760048036038101906102829190611d1e565b6108c5565b60405161029491906123da565b60405180910390f35b6102a5610a18565b6040516102b29190612373565b60405180910390f35b6102c3610a42565b6040516102d09190612417565b60405180910390f35b6102f360048036038101906102ee9190611f68565b610ad4565b005b61030f600480360381019061030a9190611e61565b610b9b565b005b61032b60048036038101906103269190611dde565b610bb1565b005b61034760048036038101906103429190611f3b565b610c13565b60405161035491906125d9565b60405180910390f35b61037760048036038101906103729190611f3b565b610c8e565b6040516103849190612417565b60405180910390f35b6103a760048036038101906103a29190611d4b565b610cf6565b6040516103b491906123fc565b60405180910390f35b6103d760048036038101906103d29190611d1e565b610d8a565b005b6103f360048036038101906103ee9190611f3b565b610e0e565b005b60007f80ac58cd000000000000000000000000000000000000000000000000000000007bffffffffffffffffffffffffffffffffffffffffffffffffffffffff1916827bffffffffffffffffffffffffffffffffffffffffffffffffffffffff191614806104c057507f5b5e139f000000000000000000000000000000000000000000000000000000007bffffffffffffffffffffffffffffffffffffffffffffffffffffffff1916827bffffffffffffffffffffffffffffffffffffffffffffffffffffffff1916145b806104d057506104cf82610e51565b5b9050919050565b6060600080546104e69061285f565b80601f01602080910402602001604051908101604052809291908181526020018280546105129061285f565b801561055f5780601f106105345761010080835404028352916020019161055f565b820191906000526020600020905b81548152906001019060200180831161054257829003601f168201915b5050505050905090565b600061057482610ebb565b6004600083815260200190815260200160002060009054906101000a900473ffffffffffffffffffffffffffffffffffffffff169050919050565b60006105ba82610747565b90508073ffffffffffffffffffffffffffffffffffffffff168373ffffffffffffffffffffffffffffffffffffffff16141561062b576040517f08c379a000000000000000000000000000000000000000000000000000000000815260040161062290612599565b60405180910390fd5b8073ffffffffffffffffffffffffffffffffffffffff1661064a610f06565b73ffffffffffffffffffffffffffffffffffffffff161480610679575061067881610673610f06565b610cf6565b5b6106b8576040517f08c379a00000000000000000000000000000000000000000000000000000000081526004016106af90612519565b60405180910390fd5b6106c28383610f0e565b505050565b6106d86106d2610f06565b82610fc7565b610717576040517f08c379a000000000000000000000000000000000000000000000000000000000815260040161070e906125b9565b60405180910390fd5b61072283838361105c565b505050565b61074283838360405180602001604052806000815250610bb1565b505050565b6000806002600084815260200190815260200160002060009054906101000a900473ffffffffffffffffffffffffffffffffffffffff169050600073ffffffffffffffffffffffffffffffffffffffff168173ffffffffffffffffffffffffffffffffffffffff1614156107f0576040517f08c379a00000000000000000000000000000000000000000000000000000000081526004016107e790612579565b60405180910390fd5b80915050919050565b60008073ffffffffffffffffffffffffffffffffffffffff168273ffffffffffffffffffffffffffffffffffffffff16141561086a576040517f08c379a0000000000000000000000000000000000000000000000000000000008152600401610861906124f9565b60405180910390fd5b600360008373ffffffffffffffffffffffffffffffffffffffff1673ffffffffffffffffffffffffffffffffffffffff168152602001908152602001600020549050919050565b6108b96112c3565b6108c36000611341565b565b606060006108d2836107f9565b9050600081141561092f57600067ffffffffffffffff8111156108f8576108f76129f8565b5b6040519080825280602002602001820160405280156109265781602001602082028036833780820191505090505b50915050610a13565b60008167ffffffffffffffff81111561094b5761094a6129f8565b5b6040519080825280602002602001820160405280156109795781602001602082028036833780820191505090505b509050600060075490506000805b82811015610a0d578673ffffffffffffffffffffffffffffffffffffffff166109af82610747565b73ffffffffffffffffffffffffffffffffffffffff1614156109fa57808483815181106109df576109de6129c9565b5b60200260200101818152505081806109f6906128c2565b9250505b8080610a05906128c2565b915050610987565b50505050505b919050565b6000600660009054906101000a900473ffffffffffffffffffffffffffffffffffffffff16905090565b606060018054610a519061285f565b80601f0160208091040260200160405190810160405280929190818152602001828054610a7d9061285f565b8015610aca5780601f10610a9f57610100808354040283529160200191610aca565b820191906000526020600020905b815481529060010190602001808311610aad57829003601f168201915b5050505050905090565b610adc6112c3565b60405180608001604052808560ff1681526020018460ff1681526020014281526020018281525060086000600754815260200190815260200160002060008201518160000160006101000a81548160ff021916908360ff16021790555060208201518160000160016101000a81548160ff021916908360ff1602179055506040820151816001015560608201518160020155905050610b7d33600754611407565b60076000815480929190610b90906128c2565b919050555050505050565b610bad610ba6610f06565b8383611425565b5050565b610bc2610bbc610f06565b83610fc7565b610c01576040517f08c379a0000000000000000000000000000000000000000000000000000000008152600401610bf8906125b9565b60405180910390fd5b610c0d84848484611592565b50505050565b610c1b611c02565b600860008381526020019081526020016000206040518060800160405290816000820160009054906101000a900460ff1660ff1660ff1681526020016000820160019054906101000a900460ff1660ff1660ff168152602001600182015481526020016002820154815250509050919050565b6060610c9982610ebb565b6000610ca36115ee565b90506000815111610cc35760405180602001604052806000815250610cee565b80610ccd84611605565b604051602001610cde92919061234f565b6040516020818303038152906040525b915050919050565b6000600560008473ffffffffffffffffffffffffffffffffffffffff1673ffffffffffffffffffffffffffffffffffffffff16815260200190815260200160002060008373ffffffffffffffffffffffffffffffffffffffff1673ffffffffffffffffffffffffffffffffffffffff16815260200190815260200160002060009054906101000a900460ff16905092915050565b610d926112c3565b600073ffffffffffffffffffffffffffffffffffffffff168173ffffffffffffffffffffffffffffffffffffffff161415610e02576040517f08c379a0000000000000000000000000000000000000000000000000000000008152600401610df990612459565b60405180910390fd5b610e0b81611341565b50565b60006008600083815260200190815260200160002090504281600201548260010154610e3a91906126e1565b11610e4457600080fd5b4281600101819055505050565b60007f01ffc9a7000000000000000000000000000000000000000000000000000000007bffffffffffffffffffffffffffffffffffffffffffffffffffffffff1916827bffffffffffffffffffffffffffffffffffffffffffffffffffffffff1916149050919050565b610ec481611766565b610f03576040517f08c379a0000000000000000000000000000000000000000000000000000000008152600401610efa90612579565b60405180910390fd5b50565b600033905090565b816004600083815260200190815260200160002060006101000a81548173ffffffffffffffffffffffffffffffffffffffff021916908373ffffffffffffffffffffffffffffffffffffffff160217905550808273ffffffffffffffffffffffffffffffffffffffff16610f8183610747565b73ffffffffffffffffffffffffffffffffffffffff167f8c5be1e5ebec7d5bd14f71427d1e84f3dd0314c0f7b2291e5b200ac8c7c3b92560405160405180910390a45050565b600080610fd383610747565b90508073ffffffffffffffffffffffffffffffffffffffff168473ffffffffffffffffffffffffffffffffffffffff16148061101557506110148185610cf6565b5b8061105357508373ffffffffffffffffffffffffffffffffffffffff1661103b84610569565b73ffffffffffffffffffffffffffffffffffffffff16145b91505092915050565b8273ffffffffffffffffffffffffffffffffffffffff1661107c82610747565b73ffffffffffffffffffffffffffffffffffffffff16146110d2576040517f08c379a00000000000000000000000000000000000000000000000000000000081526004016110c990612479565b60405180910390fd5b600073ffffffffffffffffffffffffffffffffffffffff168273ffffffffffffffffffffffffffffffffffffffff161415611142576040517f08c379a0000000000000000000000000000000000000000000000000000000008152600401611139906124b9565b60405180910390fd5b61114d8383836117d2565b611158600082610f0e565b6001600360008573ffffffffffffffffffffffffffffffffffffffff1673ffffffffffffffffffffffffffffffffffffffff16815260200190815260200160002060008282546111a89190612768565b925050819055506001600360008473ffffffffffffffffffffffffffffffffffffffff1673ffffffffffffffffffffffffffffffffffffffff16815260200190815260200160002060008282546111ff91906126e1565b92505081905550816002600083815260200190815260200160002060006101000a81548173ffffffffffffffffffffffffffffffffffffffff021916908373ffffffffffffffffffffffffffffffffffffffff160217905550808273ffffffffffffffffffffffffffffffffffffffff168473ffffffffffffffffffffffffffffffffffffffff167fddf252ad1be2c89b69c2b068fc378daa952ba7f163c4a11628f55a4df523b3ef60405160405180910390a46112be83838361180e565b505050565b6112cb610f06565b73ffffffffffffffffffffffffffffffffffffffff166112e9610a18565b73ffffffffffffffffffffffffffffffffffffffff161461133f576040517f08c379a000000000000000000000000000000000000000000000000000000000815260040161133690612559565b60405180910390fd5b565b6000600660009054906101000a900473ffffffffffffffffffffffffffffffffffffffff16905081600660006101000a81548173ffffffffffffffffffffffffffffffffffffffff021916908373ffffffffffffffffffffffffffffffffffffffff1602179055508173ffffffffffffffffffffffffffffffffffffffff168173ffffffffffffffffffffffffffffffffffffffff167f8be0079c531659141344cd1fd0a4f28419497f9722a3daafe3b4186f6b6457e060405160405180910390a35050565b611421828260405180602001604052806000815250611813565b5050565b8173ffffffffffffffffffffffffffffffffffffffff168373ffffffffffffffffffffffffffffffffffffffff161415611494576040517f08c379a000000000000000000000000000000000000000000000000000000000815260040161148b906124d9565b60405180910390fd5b80600560008573ffffffffffffffffffffffffffffffffffffffff1673ffffffffffffffffffffffffffffffffffffffff16815260200190815260200160002060008473ffffffffffffffffffffffffffffffffffffffff1673ffffffffffffffffffffffffffffffffffffffff16815260200190815260200160002060006101000a81548160ff0219169083151502179055508173ffffffffffffffffffffffffffffffffffffffff168373ffffffffffffffffffffffffffffffffffffffff167f17307eab39ab6107e8899845ad3d59bd9653f200f220920489ca2b5937696c318360405161158591906123fc565b60405180910390a3505050565b61159d84848461105c565b6115a98484848461186e565b6115e8576040517f08c379a00000000000000000000000000000000000000000000000000000000081526004016115df90612439565b60405180910390fd5b50505050565b606060405180602001604052806000815250905090565b6060600082141561164d576040518060400160405280600181526020017f30000000000000000000000000000000000000000000000000000000000000008152509050611761565b600082905060005b6000821461167f578080611668906128c2565b915050600a826116789190612737565b9150611655565b60008167ffffffffffffffff81111561169b5761169a6129f8565b5b6040519080825280601f01601f1916602001820160405280156116cd5781602001600182028036833780820191505090505b5090505b6000851461175a576001826116e69190612768565b9150600a856116f5919061290b565b603061170191906126e1565b60f81b818381518110611717576117166129c9565b5b60200101907effffffffffffffffffffffffffffffffffffffffffffffffffffffffffffff1916908160001a905350600a856117539190612737565b94506116d1565b8093505050505b919050565b60008073ffffffffffffffffffffffffffffffffffffffff166002600084815260200190815260200160002060009054906101000a900473ffffffffffffffffffffffffffffffffffffffff1673ffffffffffffffffffffffffffffffffffffffff1614159050919050565b600060086000838152602001908152602001600020905042816002015482600101546117fe91906126e1565b1161180857600080fd5b50505050565b505050565b61181d8383611a05565b61182a600084848461186e565b611869576040517f08c379a000000000000000000000000000000000000000000000000000000000815260040161186090612439565b60405180910390fd5b505050565b600061188f8473ffffffffffffffffffffffffffffffffffffffff16611bdf565b156119f8578373ffffffffffffffffffffffffffffffffffffffff1663150b7a026118b8610f06565b8786866040518563ffffffff1660e01b81526004016118da949392919061238e565b602060405180830381600087803b1580156118f457600080fd5b505af192505050801561192557506040513d601f19601f820116820180604052508101906119229190611f0e565b60015b6119a8573d8060008114611955576040519150601f19603f3d011682016040523d82523d6000602084013e61195a565b606091505b506000815114156119a0576040517f08c379a000000000000000000000000000000000000000000000000000000000815260040161199790612439565b60405180910390fd5b805181602001fd5b63150b7a0260e01b7bffffffffffffffffffffffffffffffffffffffffffffffffffffffff1916817bffffffffffffffffffffffffffffffffffffffffffffffffffffffff1916149150506119fd565b600190505b949350505050565b600073ffffffffffffffffffffffffffffffffffffffff168273ffffffffffffffffffffffffffffffffffffffff161415611a75576040517f08c379a0000000000000000000000000000000000000000000000000000000008152600401611a6c90612539565b60405180910390fd5b611a7e81611766565b15611abe576040517f08c379a0000000000000000000000000000000000000000000000000000000008152600401611ab590612499565b60405180910390fd5b611aca600083836117d2565b6001600360008473ffffffffffffffffffffffffffffffffffffffff1673ffffffffffffffffffffffffffffffffffffffff1681526020019081526020016000206000828254611b1a91906126e1565b92505081905550816002600083815260200190815260200160002060006101000a81548173ffffffffffffffffffffffffffffffffffffffff021916908373ffffffffffffffffffffffffffffffffffffffff160217905550808273ffffffffffffffffffffffffffffffffffffffff16600073ffffffffffffffffffffffffffffffffffffffff167fddf252ad1be2c89b69c2b068fc378daa952ba7f163c4a11628f55a4df523b3ef60405160405180910390a4611bdb6000838361180e565b5050565b6000808273ffffffffffffffffffffffffffffffffffffffff163b119050919050565b6040518060800160405280600060ff168152602001600060ff16815260200160008152602001600081525090565b6000611c43611c3e84612634565b61260f565b905082815260208101848484011115611c5f57611c5e612a2c565b5b611c6a84828561281d565b509392505050565b600081359050611c8181612d91565b92915050565b600081359050611c9681612da8565b92915050565b600081359050611cab81612dbf565b92915050565b600081519050611cc081612dbf565b92915050565b600082601f830112611cdb57611cda612a27565b5b8135611ceb848260208601611c30565b91505092915050565b600081359050611d0381612dd6565b92915050565b600081359050611d1881612ded565b92915050565b600060208284031215611d3457611d33612a36565b5b6000611d4284828501611c72565b91505092915050565b60008060408385031215611d6257611d61612a36565b5b6000611d7085828601611c72565b9250506020611d8185828601611c72565b9150509250929050565b600080600060608486031215611da457611da3612a36565b5b6000611db286828701611c72565b9350506020611dc386828701611c72565b9250506040611dd486828701611cf4565b9150509250925092565b60008060008060808587031215611df857611df7612a36565b5b6000611e0687828801611c72565b9450506020611e1787828801611c72565b9350506040611e2887828801611cf4565b925050606085013567ffffffffffffffff811115611e4957611e48612a31565b5b611e5587828801611cc6565b91505092959194509250565b60008060408385031215611e7857611e77612a36565b5b6000611e8685828601611c72565b9250506020611e9785828601611c87565b9150509250929050565b60008060408385031215611eb857611eb7612a36565b5b6000611ec685828601611c72565b9250506020611ed785828601611cf4565b9150509250929050565b600060208284031215611ef757611ef6612a36565b5b6000611f0584828501611c9c565b91505092915050565b600060208284031215611f2457611f23612a36565b5b6000611f3284828501611cb1565b91505092915050565b600060208284031215611f5157611f50612a36565b5b6000611f5f84828501611cf4565b91505092915050565b60008060008060808587031215611f8257611f81612a36565b5b6000611f9087828801611d09565b9450506020611fa187828801611d09565b9350506040611fb287828801611d09565b9250506060611fc387828801611cf4565b91505092959194509250565b6000611fdb8383612322565b60208301905092915050565b611ff08161279c565b82525050565b600061200182612675565b61200b81856126a3565b935061201683612665565b8060005b8381101561204757815161202e8882611fcf565b975061203983612696565b92505060018101905061201a565b5085935050505092915050565b61205d816127ae565b82525050565b600061206e82612680565b61207881856126b4565b935061208881856020860161282c565b61209181612a3b565b840191505092915050565b60006120a78261268b565b6120b181856126c5565b93506120c181856020860161282c565b6120ca81612a3b565b840191505092915050565b60006120e08261268b565b6120ea81856126d6565b93506120fa81856020860161282c565b80840191505092915050565b60006121136032836126c5565b915061211e82612a4c565b604082019050919050565b60006121366026836126c5565b915061214182612a9b565b604082019050919050565b60006121596025836126c5565b915061216482612aea565b604082019050919050565b600061217c601c836126c5565b915061218782612b39565b602082019050919050565b600061219f6024836126c5565b91506121aa82612b62565b604082019050919050565b60006121c26019836126c5565b91506121cd82612bb1565b602082019050919050565b60006121e56029836126c5565b91506121f082612bda565b604082019050919050565b6000612208603e836126c5565b915061221382612c29565b604082019050919050565b600061222b6020836126c5565b915061223682612c78565b602082019050919050565b600061224e6020836126c5565b915061225982612ca1565b602082019050919050565b60006122716018836126c5565b915061227c82612cca565b602082019050919050565b60006122946021836126c5565b915061229f82612cf3565b604082019050919050565b60006122b7602e836126c5565b91506122c282612d42565b604082019050919050565b6080820160008201516122e36000850182612340565b5060208201516122f66020850182612340565b5060408201516123096040850182612322565b50606082015161231c6060850182612322565b50505050565b61232b81612806565b82525050565b61233a81612806565b82525050565b61234981612810565b82525050565b600061235b82856120d5565b915061236782846120d5565b91508190509392505050565b60006020820190506123886000830184611fe7565b92915050565b60006080820190506123a36000830187611fe7565b6123b06020830186611fe7565b6123bd6040830185612331565b81810360608301526123cf8184612063565b905095945050505050565b600060208201905081810360008301526123f48184611ff6565b905092915050565b60006020820190506124116000830184612054565b92915050565b60006020820190508181036000830152612431818461209c565b905092915050565b6000602082019050818103600083015261245281612106565b9050919050565b6000602082019050818103600083015261247281612129565b9050919050565b600060208201905081810360008301526124928161214c565b9050919050565b600060208201905081810360008301526124b28161216f565b9050919050565b600060208201905081810360008301526124d281612192565b9050919050565b600060208201905081810360008301526124f2816121b5565b9050919050565b60006020820190508181036000830152612512816121d8565b9050919050565b60006020820190508181036000830152612532816121fb565b9050919050565b600060208201905081810360008301526125528161221e565b9050919050565b6000602082019050818103600083015261257281612241565b9050919050565b6000602082019050818103600083015261259281612264565b9050919050565b600060208201905081810360008301526125b281612287565b9050919050565b600060208201905081810360008301526125d2816122aa565b9050919050565b60006080820190506125ee60008301846122cd565b92915050565b60006020820190506126096000830184612331565b92915050565b600061261961262a565b90506126258282612891565b919050565b6000604051905090565b600067ffffffffffffffff82111561264f5761264e6129f8565b5b61265882612a3b565b9050602081019050919050565b6000819050602082019050919050565b600081519050919050565b600081519050919050565b600081519050919050565b6000602082019050919050565b600082825260208201905092915050565b600082825260208201905092915050565b600082825260208201905092915050565b600081905092915050565b60006126ec82612806565b91506126f783612806565b9250827fffffffffffffffffffffffffffffffffffffffffffffffffffffffffffffffff0382111561272c5761272b61293c565b5b828201905092915050565b600061274282612806565b915061274d83612806565b92508261275d5761275c61296b565b5b828204905092915050565b600061277382612806565b915061277e83612806565b9250828210156127915761279061293c565b5b828203905092915050565b60006127a7826127e6565b9050919050565b60008115159050919050565b60007fffffffff0000000000000000000000000000000000000000000000000000000082169050919050565b600073ffffffffffffffffffffffffffffffffffffffff82169050919050565b6000819050919050565b600060ff82169050919050565b82818337600083830152505050565b60005b8381101561284a57808201518184015260208101905061282f565b83811115612859576000848401525b50505050565b6000600282049050600182168061287757607f821691505b6020821081141561288b5761288a61299a565b5b50919050565b61289a82612a3b565b810181811067ffffffffffffffff821117156128b9576128b86129f8565b5b80604052505050565b60006128cd82612806565b91507fffffffffffffffffffffffffffffffffffffffffffffffffffffffffffffffff821415612900576128ff61293c565b5b600182019050919050565b600061291682612806565b915061292183612806565b9250826129315761293061296b565b5b828206905092915050565b7f4e487b7100000000000000000000000000000000000000000000000000000000600052601160045260246000fd5b7f4e487b7100000000000000000000000000000000000000000000000000000000600052601260045260246000fd5b7f4e487b7100000000000000000000000000000000000000000000000000000000600052602260045260246000fd5b7f4e487b7100000000000000000000000000000000000000000000000000000000600052603260045260246000fd5b7f4e487b7100000000000000000000000000000000000000000000000000000000600052604160045260246000fd5b600080fd5b600080fd5b600080fd5b600080fd5b6000601f19601f8301169050919050565b7f4552433732313a207472616e7366657220746f206e6f6e20455243373231526560008201527f63656976657220696d706c656d656e7465720000000000000000000000000000602082015250565b7f4f776e61626c653a206e6577206f776e657220697320746865207a65726f206160008201527f6464726573730000000000000000000000000000000000000000000000000000602082015250565b7f4552433732313a207472616e736665722066726f6d20696e636f72726563742060008201527f6f776e6572000000000000000000000000000000000000000000000000000000602082015250565b7f4552433732313a20746f6b656e20616c7265616479206d696e74656400000000600082015250565b7f4552433732313a207472616e7366657220746f20746865207a65726f2061646460008201527f7265737300000000000000000000000000000000000000000000000000000000602082015250565b7f4552433732313a20617070726f766520746f2063616c6c657200000000000000600082015250565b7f4552433732313a2061646472657373207a65726f206973206e6f74206120766160008201527f6c6964206f776e65720000000000000000000000000000000000000000000000602082015250565b7f4552433732313a20617070726f76652063616c6c6572206973206e6f7420746f60008201527f6b656e206f776e6572206e6f7220617070726f76656420666f7220616c6c0000602082015250565b7f4552433732313a206d696e7420746f20746865207a65726f2061646472657373600082015250565b7f4f776e61626c653a2063616c6c6572206973206e6f7420746865206f776e6572600082015250565b7f4552433732313a20696e76616c696420746f6b656e2049440000000000000000600082015250565b7f4552433732313a20617070726f76616c20746f2063757272656e74206f776e6560008201527f7200000000000000000000000000000000000000000000000000000000000000602082015250565b7f4552433732313a2063616c6c6572206973206e6f7420746f6b656e206f776e6560008201527f72206e6f7220617070726f766564000000000000000000000000000000000000602082015250565b612d9a8161279c565b8114612da557600080fd5b50565b612db1816127ae565b8114612dbc57600080fd5b50565b612dc8816127ba565b8114612dd357600080fd5b50565b612ddf81612806565b8114612dea57600080fd5b50565b612df681612810565b8114612e0157600080fd5b5056fea264697066735822122028637a3446f17542d7287f49c71b99e54a8a37b5453f0bf2b6176767d045052d64736f6c63430008070033",
  "linkReferences": {},
  "deployedLinkReferences": {}
}