{
  "_format": "hh-sol-artifact-1",
  "contractName": "GameContent",
  "sourceName": "contracts/GameContent.sol",
  "abi": [
    {
      "inputs": [
        {
          "internalType": "string[]",
          "name": "characterNames",
          "type": "string[]"
        },
        {
          "internalType": "string[]",
          "name": "characterImageURIs",
          "type": "string[]"
        },
        {
          "internalType": "uint256[]",
          "name": "characterHP",
          "type": "uint256[]"
        },
        {
          "internalType": "uint256[]",
          "name": "characterAttackDmg",
          "type": "uint256[]"
        },
        {
          "internalType": "string",
          "name": "bossName",
          "type": "string"
        },
        {
          "internalType": "string",
          "name": "bossImageURI",
          "type": "string"
        },
        {
          "internalType": "uint256",
          "name": "bossHp",
          "type": "uint256"
        },
        {
          "internalType": "uint256",
          "name": "bossAttackDamage",
          "type": "uint256"
        }
      ],
      "stateMutability": "nonpayable",
      "type": "constructor"
    },
    {
      "anonymous": false,
      "inputs": [
        {
          "indexed": true,
          "internalType": "address",
          "name": "owner",
          "type": "address"
        },
        {
          "indexed": true,
          "internalType": "address",
          "name": "approved",
          "type": "address"
        },
        {
          "indexed": true,
          "internalType": "uint256",
          "name": "tokenId",
          "type": "uint256"
        }
      ],
      "name": "Approval",
      "type": "event"
    },
    {
      "anonymous": false,
      "inputs": [
        {
          "indexed": true,
          "internalType": "address",
          "name": "owner",
          "type": "address"
        },
        {
          "indexed": true,
          "internalType": "address",
          "name": "operator",
          "type": "address"
        },
        {
          "indexed": false,
          "internalType": "bool",
          "name": "approved",
          "type": "bool"
        }
      ],
      "name": "ApprovalForAll",
      "type": "event"
    },
    {
      "anonymous": false,
      "inputs": [
        {
          "indexed": false,
          "internalType": "uint256",
          "name": "newBossHp",
          "type": "uint256"
        },
        {
          "indexed": false,
          "internalType": "uint256",
          "name": "newPlayerHp",
          "type": "uint256"
        }
      ],
      "name": "AttackComplete",
      "type": "event"
    },
    {
      "anonymous": false,
      "inputs": [
        {
          "indexed": false,
          "internalType": "address",
          "name": "sender",
          "type": "address"
        },
        {
          "indexed": false,
          "internalType": "uint256",
          "name": "tokenId",
          "type": "uint256"
        },
        {
          "indexed": false,
          "internalType": "uint256",
          "name": "characterIndex",
          "type": "uint256"
        }
      ],
      "name": "CharacterNFTMinted",
      "type": "event"
    },
    {
      "anonymous": false,
      "inputs": [
        {
          "indexed": true,
          "internalType": "address",
          "name": "from",
          "type": "address"
        },
        {
          "indexed": true,
          "internalType": "address",
          "name": "to",
          "type": "address"
        },
        {
          "indexed": true,
          "internalType": "uint256",
          "name": "tokenId",
          "type": "uint256"
        }
      ],
      "name": "Transfer",
      "type": "event"
    },
    {
      "inputs": [
        {
          "internalType": "address",
          "name": "to",
          "type": "address"
        },
        {
          "internalType": "uint256",
          "name": "tokenId",
          "type": "uint256"
        }
      ],
      "name": "approve",
      "outputs": [],
      "stateMutability": "nonpayable",
      "type": "function"
    },
    {
      "inputs": [
        {
          "internalType": "address",
          "name": "owner",
          "type": "address"
        }
      ],
      "name": "balanceOf",
      "outputs": [
        {
          "internalType": "uint256",
          "name": "",
          "type": "uint256"
        }
      ],
      "stateMutability": "view",
      "type": "function"
    },
    {
      "inputs": [],
      "name": "bossCharacter",
      "outputs": [
        {
          "internalType": "string",
          "name": "name",
          "type": "string"
        },
        {
          "internalType": "string",
          "name": "imageURI",
          "type": "string"
        },
        {
          "internalType": "uint256",
          "name": "hp",
          "type": "uint256"
        },
        {
          "internalType": "uint256",
          "name": "maxHp",
          "type": "uint256"
        },
        {
          "internalType": "uint256",
          "name": "attackDamage",
          "type": "uint256"
        }
      ],
      "stateMutability": "view",
      "type": "function"
    },
    {
      "inputs": [],
      "name": "checkIfUserHasNFT",
      "outputs": [
        {
          "components": [
            {
              "internalType": "uint256",
              "name": "characterIndex",
              "type": "uint256"
            },
            {
              "internalType": "string",
              "name": "name",
              "type": "string"
            },
            {
              "internalType": "string",
              "name": "imageURI",
              "type": "string"
            },
            {
              "internalType": "uint256",
              "name": "hp",
              "type": "uint256"
            },
            {
              "internalType": "uint256",
              "name": "maxHp",
              "type": "uint256"
            },
            {
              "internalType": "uint256",
              "name": "attackDamage",
              "type": "uint256"
            }
          ],
          "internalType": "struct GameContent.CharacterAttributes",
          "name": "",
          "type": "tuple"
        }
      ],
      "stateMutability": "view",
      "type": "function"
    },
    {
      "inputs": [],
      "name": "getAllDefaultCharacters",
      "outputs": [
        {
          "components": [
            {
              "internalType": "uint256",
              "name": "characterIndex",
              "type": "uint256"
            },
            {
              "internalType": "string",
              "name": "name",
              "type": "string"
            },
            {
              "internalType": "string",
              "name": "imageURI",
              "type": "string"
            },
            {
              "internalType": "uint256",
              "name": "hp",
              "type": "uint256"
            },
            {
              "internalType": "uint256",
              "name": "maxHp",
              "type": "uint256"
            },
            {
              "internalType": "uint256",
              "name": "attackDamage",
              "type": "uint256"
            }
          ],
          "internalType": "struct GameContent.CharacterAttributes[]",
          "name": "",
          "type": "tuple[]"
        }
      ],
      "stateMutability": "view",
      "type": "function"
    },
    {
      "inputs": [
        {
          "internalType": "uint256",
          "name": "tokenId",
          "type": "uint256"
        }
      ],
      "name": "getApproved",
      "outputs": [
        {
          "internalType": "address",
          "name": "",
          "type": "address"
        }
      ],
      "stateMutability": "view",
      "type": "function"
    },
    {
      "inputs": [],
      "name": "getBoss",
      "outputs": [
        {
          "components": [
            {
              "internalType": "string",
              "name": "name",
              "type": "string"
            },
            {
              "internalType": "string",
              "name": "imageURI",
              "type": "string"
            },
            {
              "internalType": "uint256",
              "name": "hp",
              "type": "uint256"
            },
            {
              "internalType": "uint256",
              "name": "maxHp",
              "type": "uint256"
            },
            {
              "internalType": "uint256",
              "name": "attackDamage",
              "type": "uint256"
            }
          ],
          "internalType": "struct GameContent.Boss",
          "name": "",
          "type": "tuple"
        }
      ],
      "stateMutability": "view",
      "type": "function"
    },
    {
      "inputs": [
        {
          "internalType": "address",
          "name": "owner",
          "type": "address"
        },
        {
          "internalType": "address",
          "name": "operator",
          "type": "address"
        }
      ],
      "name": "isApprovedForAll",
      "outputs": [
        {
          "internalType": "bool",
          "name": "",
          "type": "bool"
        }
      ],
      "stateMutability": "view",
      "type": "function"
    },
    {
      "inputs": [
        {
          "internalType": "uint256",
          "name": "_characterIndex",
          "type": "uint256"
        }
      ],
      "name": "mintCharacterNFT",
      "outputs": [],
      "stateMutability": "nonpayable",
      "type": "function"
    },
    {
      "inputs": [],
      "name": "name",
      "outputs": [
        {
          "internalType": "string",
          "name": "",
          "type": "string"
        }
      ],
      "stateMutability": "view",
      "type": "function"
    },
    {
      "inputs": [
        {
          "internalType": "uint256",
          "name": "",
          "type": "uint256"
        }
      ],
      "name": "nftHolderAttributes",
      "outputs": [
        {
          "internalType": "uint256",
          "name": "characterIndex",
          "type": "uint256"
        },
        {
          "internalType": "string",
          "name": "name",
          "type": "string"
        },
        {
          "internalType": "string",
          "name": "imageURI",
          "type": "string"
        },
        {
          "internalType": "uint256",
          "name": "hp",
          "type": "uint256"
        },
        {
          "internalType": "uint256",
          "name": "maxHp",
          "type": "uint256"
        },
        {
          "internalType": "uint256",
          "name": "attackDamage",
          "type": "uint256"
        }
      ],
      "stateMutability": "view",
      "type": "function"
    },
    {
      "inputs": [
        {
          "internalType": "address",
          "name": "",
          "type": "address"
        }
      ],
      "name": "nftHolders",
      "outputs": [
        {
          "internalType": "uint256",
          "name": "",
          "type": "uint256"
        }
      ],
      "stateMutability": "view",
      "type": "function"
    },
    {
      "inputs": [
        {
          "internalType": "uint256",
          "name": "tokenId",
          "type": "uint256"
        }
      ],
      "name": "ownerOf",
      "outputs": [
        {
          "internalType": "address",
          "name": "",
          "type": "address"
        }
      ],
      "stateMutability": "view",
      "type": "function"
    },
    {
      "inputs": [
        {
          "internalType": "address",
          "name": "from",
          "type": "address"
        },
        {
          "internalType": "address",
          "name": "to",
          "type": "address"
        },
        {
          "internalType": "uint256",
          "name": "tokenId",
          "type": "uint256"
        }
      ],
      "name": "safeTransferFrom",
      "outputs": [],
      "stateMutability": "nonpayable",
      "type": "function"
    },
    {
      "inputs": [
        {
          "internalType": "address",
          "name": "from",
          "type": "address"
        },
        {
          "internalType": "address",
          "name": "to",
          "type": "address"
        },
        {
          "internalType": "uint256",
          "name": "tokenId",
          "type": "uint256"
        },
        {
          "internalType": "bytes",
          "name": "_data",
          "type": "bytes"
        }
      ],
      "name": "safeTransferFrom",
      "outputs": [],
      "stateMutability": "nonpayable",
      "type": "function"
    },
    {
      "inputs": [
        {
          "internalType": "address",
          "name": "operator",
          "type": "address"
        },
        {
          "internalType": "bool",
          "name": "approved",
          "type": "bool"
        }
      ],
      "name": "setApprovalForAll",
      "outputs": [],
      "stateMutability": "nonpayable",
      "type": "function"
    },
    {
      "inputs": [
        {
          "internalType": "bytes4",
          "name": "interfaceId",
          "type": "bytes4"
        }
      ],
      "name": "supportsInterface",
      "outputs": [
        {
          "internalType": "bool",
          "name": "",
          "type": "bool"
        }
      ],
      "stateMutability": "view",
      "type": "function"
    },
    {
      "inputs": [],
      "name": "symbol",
      "outputs": [
        {
          "internalType": "string",
          "name": "",
          "type": "string"
        }
      ],
      "stateMutability": "view",
      "type": "function"
    },
    {
      "inputs": [
        {
          "internalType": "uint256",
          "name": "_tokenId",
          "type": "uint256"
        }
      ],
      "name": "tokenURI",
      "outputs": [
        {
          "internalType": "string",
          "name": "",
          "type": "string"
        }
      ],
      "stateMutability": "view",
      "type": "function"
    },
    {
      "inputs": [
        {
          "internalType": "address",
          "name": "from",
          "type": "address"
        },
        {
          "internalType": "address",
          "name": "to",
          "type": "address"
        },
        {
          "internalType": "uint256",
          "name": "tokenId",
          "type": "uint256"
        }
      ],
      "name": "transferFrom",
      "outputs": [],
      "stateMutability": "nonpayable",
      "type": "function"
    }
  ],
  "bytecode": "0x60806040523480156200001157600080fd5b506040516200517538038062005175833981810160405281019062000037919062000a76565b6040518060400160405280600581526020017f47656172730000000000000000000000000000000000000000000000000000008152506040518060400160405280600481526020017f47454152000000000000000000000000000000000000000000000000000000008152508160009080519060200190620000bb92919062000809565b508060019080519060200190620000d492919062000809565b50505060005b88518110156200050f5760076040518060c001604052808381526020018b848151811062000131577f4e487b7100000000000000000000000000000000000000000000000000000000600052603260045260246000fd5b602002602001015181526020018a848151811062000178577f4e487b7100000000000000000000000000000000000000000000000000000000600052603260045260246000fd5b60200260200101518152602001898481518110620001bf577f4e487b7100000000000000000000000000000000000000000000000000000000600052603260045260246000fd5b6020026020010151815260200189848151811062000206577f4e487b7100000000000000000000000000000000000000000000000000000000600052603260045260246000fd5b602002602001015181526020018884815181106200024d577f4e487b7100000000000000000000000000000000000000000000000000000000600052603260045260246000fd5b60200260200101518152509080600181540180825580915050600190039060005260206000209060060201600090919091909150600082015181600001556020820151816001019080519060200190620002a992919062000809565b506040820151816002019080519060200190620002c892919062000809565b50606082015181600301556080820151816004015560a08201518160050155505060006007828154811062000326577f4e487b7100000000000000000000000000000000000000000000000000000000600052603260045260246000fd5b90600052602060002090600602016040518060c0016040529081600082015481526020016001820180546200035b9062000df9565b80601f0160208091040260200160405190810160405280929190818152602001828054620003899062000df9565b8015620003da5780601f10620003ae57610100808354040283529160200191620003da565b820191906000526020600020905b815481529060010190602001808311620003bc57829003601f168201915b50505050508152602001600282018054620003f59062000df9565b80601f0160208091040260200160405190810160405280929190818152602001828054620004239062000df9565b8015620004745780601f10620004485761010080835404028352916020019162000474565b820191906000526020600020905b8154815290600101906020018083116200045657829003601f168201915b5050505050815260200160038201548152602001600482015481526020016005820154815250509050620004f76040518060400160405280601d81526020017f446f6e6520696e697469616c697a696e6720257320772f2048502025730000008152508260200151836060015184604001516200071e60201b620018351760201c565b5060018162000507919062000d5c565b9050620000da565b506040518060a0016040528085815260200184815260200183815260200183815260200182815250600960008201518160000190805190602001906200055792919062000809565b5060208201518160010190805190602001906200057692919062000809565b50604082015181600201556060820151816003015560808201518160040155905050620006f96040518060600160405280602c815260200162005149602c913960096000018054620005c89062000df9565b80601f0160208091040260200160405190810160405280929190818152602001828054620005f69062000df9565b8015620006475780601f106200061b5761010080835404028352916020019162000647565b820191906000526020600020905b8154815290600101906020018083116200062957829003601f168201915b505050505060096002015460096001018054620006649062000df9565b80601f0160208091040260200160405190810160405280929190818152602001828054620006929062000df9565b8015620006e35780601f10620006b757610100808354040283529160200191620006e3565b820191906000526020600020905b815481529060010190602001808311620006c557829003601f168201915b50505050506200071e60201b620018351760201c565b620007106006620007ca60201b620018d71760201c565b505050505050505062000f1d565b620007c4848484846040516024016200073b949392919062000c21565b6040516020818303038152906040527f8d142cdd000000000000000000000000000000000000000000000000000000007bffffffffffffffffffffffffffffffffffffffffffffffffffffffff19166020820180517bffffffffffffffffffffffffffffffffffffffffffffffffffffffff8381831617835250505050620007e060201b60201c565b50505050565b6001816000016000828254019250508190555050565b60008151905060006a636f6e736f6c652e6c6f679050602083016000808483855afa5050505050565b828054620008179062000df9565b90600052602060002090601f0160209004810192826200083b576000855562000887565b82601f106200085657805160ff191683800117855562000887565b8280016001018555821562000887579182015b828111156200088657825182559160200191906001019062000869565b5b5090506200089691906200089a565b5090565b5b80821115620008b55760008160009055506001016200089b565b5090565b6000620008d0620008ca8462000cac565b62000c83565b9050808382526020820190508260005b85811015620009145781518501620008f9888262000a32565b845260208401935060208301925050600181019050620008e0565b5050509392505050565b6000620009356200092f8462000cdb565b62000c83565b905080838252602082019050828560208602820111156200095557600080fd5b60005b858110156200098957816200096e888262000a5f565b84526020840193506020830192505060018101905062000958565b5050509392505050565b6000620009aa620009a48462000d0a565b62000c83565b905082815260208101848484011115620009c357600080fd5b620009d084828562000dc3565b509392505050565b600082601f830112620009ea57600080fd5b8151620009fc848260208601620008b9565b91505092915050565b600082601f83011262000a1757600080fd5b815162000a298482602086016200091e565b91505092915050565b600082601f83011262000a4457600080fd5b815162000a5684826020860162000993565b91505092915050565b60008151905062000a708162000f03565b92915050565b600080600080600080600080610100898b03121562000a9457600080fd5b600089015167ffffffffffffffff81111562000aaf57600080fd5b62000abd8b828c01620009d8565b985050602089015167ffffffffffffffff81111562000adb57600080fd5b62000ae98b828c01620009d8565b975050604089015167ffffffffffffffff81111562000b0757600080fd5b62000b158b828c0162000a05565b965050606089015167ffffffffffffffff81111562000b3357600080fd5b62000b418b828c0162000a05565b955050608089015167ffffffffffffffff81111562000b5f57600080fd5b62000b6d8b828c0162000a32565b94505060a089015167ffffffffffffffff81111562000b8b57600080fd5b62000b998b828c0162000a32565b93505060c062000bac8b828c0162000a5f565b92505060e062000bbf8b828c0162000a5f565b9150509295985092959890939650565b600062000bdc8262000d40565b62000be8818562000d4b565b935062000bfa81856020860162000dc3565b62000c058162000ef2565b840191505092915050565b62000c1b8162000db9565b82525050565b6000608082019050818103600083015262000c3d818762000bcf565b9050818103602083015262000c53818662000bcf565b905062000c64604083018562000c10565b818103606083015262000c78818462000bcf565b905095945050505050565b600062000c8f62000ca2565b905062000c9d828262000e2f565b919050565b6000604051905090565b600067ffffffffffffffff82111562000cca5762000cc962000ec3565b5b602082029050602081019050919050565b600067ffffffffffffffff82111562000cf95762000cf862000ec3565b5b602082029050602081019050919050565b600067ffffffffffffffff82111562000d285762000d2762000ec3565b5b62000d338262000ef2565b9050602081019050919050565b600081519050919050565b600082825260208201905092915050565b600062000d698262000db9565b915062000d768362000db9565b9250827fffffffffffffffffffffffffffffffffffffffffffffffffffffffffffffffff0382111562000dae5762000dad62000e65565b5b828201905092915050565b6000819050919050565b60005b8381101562000de357808201518184015260208101905062000dc6565b8381111562000df3576000848401525b50505050565b6000600282049050600182168062000e1257607f821691505b6020821081141562000e295762000e2862000e94565b5b50919050565b62000e3a8262000ef2565b810181811067ffffffffffffffff8211171562000e5c5762000e5b62000ec3565b5b80604052505050565b7f4e487b7100000000000000000000000000000000000000000000000000000000600052601160045260246000fd5b7f4e487b7100000000000000000000000000000000000000000000000000000000600052602260045260246000fd5b7f4e487b7100000000000000000000000000000000000000000000000000000000600052604160045260246000fd5b6000601f19601f8301169050919050565b62000f0e8162000db9565b811462000f1a57600080fd5b50565b61421c8062000f2d6000396000f3fe608060405234801561001057600080fd5b506004361061012c5760003560e01c806398da4c95116100ad578063c87b56dd11610071578063c87b56dd1461035a578063c8cf27f41461038a578063e94a7c57146103a8578063e985e9c5146103ca578063f8b81ef7146103fa5761012c565b806398da4c95146102b1578063a22cb465146102e6578063b88d4fde14610302578063b953084e1461031e578063c76d9e7d1461033c5761012c565b806342842e0e116100f457806342842e0e146101e75780636352211e1461020357806370a08231146102335780637df124a11461026357806395d89b41146102935761012c565b806301ffc9a71461013157806306fdde0314610161578063081812fc1461017f578063095ea7b3146101af57806323b872dd146101cb575b600080fd5b61014b60048036038101906101469190612b6a565b610416565b6040516101589190613389565b60405180910390f35b6101696104f8565b60405161017691906133a4565b60405180910390f35b61019960048036038101906101949190612bbc565b61058a565b6040516101a691906132c9565b60405180910390f35b6101c960048036038101906101c49190612b2e565b61060f565b005b6101e560048036038101906101e09190612a28565b610727565b005b61020160048036038101906101fc9190612a28565b610787565b005b61021d60048036038101906102189190612bbc565b6107a7565b60405161022a91906132c9565b60405180910390f35b61024d600480360381019061024891906129c3565b610859565b60405161025a91906136a3565b60405180910390f35b61027d600480360381019061027891906129c3565b610911565b60405161028a91906136a3565b60405180910390f35b61029b610929565b6040516102a891906133a4565b60405180910390f35b6102cb60048036038101906102c69190612bbc565b6109bb565b6040516102dd969594939291906136be565b60405180910390f35b61030060048036038101906102fb9190612af2565b610b07565b005b61031c60048036038101906103179190612a77565b610b1d565b005b610326610b7f565b6040516103339190613367565b60405180910390f35b610344610d2a565b604051610351919061365f565b60405180910390f35b610374600480360381019061036f9190612bbc565b610e86565b60405161038191906133a4565b60405180910390f35b6103926110a1565b60405161039f9190613681565b60405180910390f35b6103b0611279565b6040516103c1959493929190613420565b60405180910390f35b6103e460048036038101906103df91906129ec565b6113ad565b6040516103f19190613389565b60405180910390f35b610414600480360381019061040f9190612bbc565b611441565b005b60007f80ac58cd000000000000000000000000000000000000000000000000000000007bffffffffffffffffffffffffffffffffffffffffffffffffffffffff1916827bffffffffffffffffffffffffffffffffffffffffffffffffffffffff191614806104e157507f5b5e139f000000000000000000000000000000000000000000000000000000007bffffffffffffffffffffffffffffffffffffffffffffffffffffffff1916827bffffffffffffffffffffffffffffffffffffffffffffffffffffffff1916145b806104f157506104f0826118ed565b5b9050919050565b606060008054610507906139db565b80601f0160208091040260200160405190810160405280929190818152602001828054610533906139db565b80156105805780601f1061055557610100808354040283529160200191610580565b820191906000526020600020905b81548152906001019060200180831161056357829003601f168201915b5050505050905090565b600061059582611957565b6105d4576040517f08c379a00000000000000000000000000000000000000000000000000000000081526004016105cb906135ff565b60405180910390fd5b6004600083815260200190815260200160002060009054906101000a900473ffffffffffffffffffffffffffffffffffffffff169050919050565b600061061a826107a7565b90508073ffffffffffffffffffffffffffffffffffffffff168373ffffffffffffffffffffffffffffffffffffffff16141561068b576040517f08c379a00000000000000000000000000000000000000000000000000000000081526004016106829061361f565b60405180910390fd5b8073ffffffffffffffffffffffffffffffffffffffff166106aa6119c3565b73ffffffffffffffffffffffffffffffffffffffff1614806106d957506106d8816106d36119c3565b6113ad565b5b610718576040517f08c379a000000000000000000000000000000000000000000000000000000000815260040161070f9061357f565b60405180910390fd5b61072283836119cb565b505050565b6107386107326119c3565b82611a84565b610777576040517f08c379a000000000000000000000000000000000000000000000000000000000815260040161076e9061363f565b60405180910390fd5b610782838383611b62565b505050565b6107a283838360405180602001604052806000815250610b1d565b505050565b6000806002600084815260200190815260200160002060009054906101000a900473ffffffffffffffffffffffffffffffffffffffff169050600073ffffffffffffffffffffffffffffffffffffffff168173ffffffffffffffffffffffffffffffffffffffff161415610850576040517f08c379a0000000000000000000000000000000000000000000000000000000008152600401610847906135bf565b60405180910390fd5b80915050919050565b60008073ffffffffffffffffffffffffffffffffffffffff168273ffffffffffffffffffffffffffffffffffffffff1614156108ca576040517f08c379a00000000000000000000000000000000000000000000000000000000081526004016108c19061359f565b60405180910390fd5b600360008373ffffffffffffffffffffffffffffffffffffffff1673ffffffffffffffffffffffffffffffffffffffff168152602001908152602001600020549050919050565b600e6020528060005260406000206000915090505481565b606060018054610938906139db565b80601f0160208091040260200160405190810160405280929190818152602001828054610964906139db565b80156109b15780601f10610986576101008083540402835291602001916109b1565b820191906000526020600020905b81548152906001019060200180831161099457829003601f168201915b5050505050905090565b60086020528060005260406000206000915090508060000154908060010180546109e4906139db565b80601f0160208091040260200160405190810160405280929190818152602001828054610a10906139db565b8015610a5d5780601f10610a3257610100808354040283529160200191610a5d565b820191906000526020600020905b815481529060010190602001808311610a4057829003601f168201915b505050505090806002018054610a72906139db565b80601f0160208091040260200160405190810160405280929190818152602001828054610a9e906139db565b8015610aeb5780601f10610ac057610100808354040283529160200191610aeb565b820191906000526020600020905b815481529060010190602001808311610ace57829003601f168201915b5050505050908060030154908060040154908060050154905086565b610b19610b126119c3565b8383611dc9565b5050565b610b2e610b286119c3565b83611a84565b610b6d576040517f08c379a0000000000000000000000000000000000000000000000000000000008152600401610b649061363f565b60405180910390fd5b610b7984848484611f36565b50505050565b60606007805480602002602001604051908101604052809291908181526020016000905b82821015610d2157838290600052602060002090600602016040518060c001604052908160008201548152602001600182018054610be0906139db565b80601f0160208091040260200160405190810160405280929190818152602001828054610c0c906139db565b8015610c595780601f10610c2e57610100808354040283529160200191610c59565b820191906000526020600020905b815481529060010190602001808311610c3c57829003601f168201915b50505050508152602001600282018054610c72906139db565b80601f0160208091040260200160405190810160405280929190818152602001828054610c9e906139db565b8015610ceb5780601f10610cc057610100808354040283529160200191610ceb565b820191906000526020600020905b815481529060010190602001808311610cce57829003601f168201915b50505050508152602001600382015481526020016004820154815260200160058201548152505081526020019060010190610ba3565b50505050905090565b610d326127ea565b60096040518060a0016040529081600082018054610d4f906139db565b80601f0160208091040260200160405190810160405280929190818152602001828054610d7b906139db565b8015610dc85780601f10610d9d57610100808354040283529160200191610dc8565b820191906000526020600020905b815481529060010190602001808311610dab57829003601f168201915b50505050508152602001600182018054610de1906139db565b80601f0160208091040260200160405190810160405280929190818152602001828054610e0d906139db565b8015610e5a5780601f10610e2f57610100808354040283529160200191610e5a565b820191906000526020600020905b815481529060010190602001808311610e3d57829003601f168201915b505050505081526020016002820154815260200160038201548152602001600482015481525050905090565b60606000600860008481526020019081526020016000206040518060c001604052908160008201548152602001600182018054610ec2906139db565b80601f0160208091040260200160405190810160405280929190818152602001828054610eee906139db565b8015610f3b5780601f10610f1057610100808354040283529160200191610f3b565b820191906000526020600020905b815481529060010190602001808311610f1e57829003601f168201915b50505050508152602001600282018054610f54906139db565b80601f0160208091040260200160405190810160405280929190818152602001828054610f80906139db565b8015610fcd5780601f10610fa257610100808354040283529160200191610fcd565b820191906000526020600020905b815481529060010190602001808311610fb057829003601f168201915b505050505081526020016003820154815260200160048201548152602001600582015481525050905060006110058260600151611f92565b905060006110168360800151611f92565b905060006110278460a00151611f92565b9050600061106d856020015161103c89611f92565b876040015187878760405160200161105996959493929190613202565b60405160208183030381529060405261213f565b905060008160405160200161108291906132a7565b6040516020818303038152906040529050809650505050505050919050565b6110a9612819565b6000600e60003373ffffffffffffffffffffffffffffffffffffffff1673ffffffffffffffffffffffffffffffffffffffff168152602001908152602001600020549050600081111561126857600860008281526020019081526020016000206040518060c00160405290816000820154815260200160018201805461112e906139db565b80601f016020809104026020016040519081016040528092919081815260200182805461115a906139db565b80156111a75780601f1061117c576101008083540402835291602001916111a7565b820191906000526020600020905b81548152906001019060200180831161118a57829003601f168201915b505050505081526020016002820180546111c0906139db565b80601f01602080910402602001604051908101604052809291908181526020018280546111ec906139db565b80156112395780601f1061120e57610100808354040283529160200191611239565b820191906000526020600020905b81548152906001019060200180831161121c57829003601f168201915b505050505081526020016003820154815260200160048201548152602001600582015481525050915050611276565b611270612819565b80925050505b90565b600980600001805461128a906139db565b80601f01602080910402602001604051908101604052809291908181526020018280546112b6906139db565b80156113035780601f106112d857610100808354040283529160200191611303565b820191906000526020600020905b8154815290600101906020018083116112e657829003601f168201915b505050505090806001018054611318906139db565b80601f0160208091040260200160405190810160405280929190818152602001828054611344906139db565b80156113915780601f1061136657610100808354040283529160200191611391565b820191906000526020600020905b81548152906001019060200180831161137457829003601f168201915b5050505050908060020154908060030154908060040154905085565b6000600560008473ffffffffffffffffffffffffffffffffffffffff1673ffffffffffffffffffffffffffffffffffffffff16815260200190815260200160002060008373ffffffffffffffffffffffffffffffffffffffff1673ffffffffffffffffffffffffffffffffffffffff16815260200190815260200160002060009054906101000a900460ff16905092915050565b600061144d60066122fd565b9050611459338261230b565b6040518060c00160405280838152602001600784815481106114a4577f4e487b7100000000000000000000000000000000000000000000000000000000600052603260045260246000fd5b906000526020600020906006020160010180546114c0906139db565b80601f01602080910402602001604051908101604052809291908181526020018280546114ec906139db565b80156115395780601f1061150e57610100808354040283529160200191611539565b820191906000526020600020905b81548152906001019060200180831161151c57829003601f168201915b505050505081526020016007848154811061157d577f4e487b7100000000000000000000000000000000000000000000000000000000600052603260045260246000fd5b90600052602060002090600602016002018054611599906139db565b80601f01602080910402602001604051908101604052809291908181526020018280546115c5906139db565b80156116125780601f106115e757610100808354040283529160200191611612565b820191906000526020600020905b8154815290600101906020018083116115f557829003601f168201915b5050505050815260200160078481548110611656577f4e487b7100000000000000000000000000000000000000000000000000000000600052603260045260246000fd5b9060005260206000209060060201600301548152602001600784815481106116a7577f4e487b7100000000000000000000000000000000000000000000000000000000600052603260045260246000fd5b9060005260206000209060060201600401548152602001600784815481106116f8577f4e487b7100000000000000000000000000000000000000000000000000000000600052603260045260246000fd5b9060005260206000209060060201600501548152506008600083815260200190815260200160002060008201518160000155602082015181600101908051906020019061174692919061284f565b50604082015181600201908051906020019061176392919061284f565b50606082015181600301556080820151816004015560a082015181600501559050506117a86040518060600160405280602e81526020016141b9602e91398284612329565b80600e60003373ffffffffffffffffffffffffffffffffffffffff1673ffffffffffffffffffffffffffffffffffffffff168152602001908152602001600020819055506117f660066118d7565b7f4bc303fd457a97b4691b9af582ce71868a3d258638c8d4f8c60988a0f0bfb8cd33828460405161182993929190613330565b60405180910390a15050565b6118d18484848460405160240161184f94939291906133c6565b6040516020818303038152906040527f8d142cdd000000000000000000000000000000000000000000000000000000007bffffffffffffffffffffffffffffffffffffffffffffffffffffffff19166020820180517bffffffffffffffffffffffffffffffffffffffffffffffffffffffff83818316178352505050506123c8565b50505050565b6001816000016000828254019250508190555050565b60007f01ffc9a7000000000000000000000000000000000000000000000000000000007bffffffffffffffffffffffffffffffffffffffffffffffffffffffff1916827bffffffffffffffffffffffffffffffffffffffffffffffffffffffff1916149050919050565b60008073ffffffffffffffffffffffffffffffffffffffff166002600084815260200190815260200160002060009054906101000a900473ffffffffffffffffffffffffffffffffffffffff1673ffffffffffffffffffffffffffffffffffffffff1614159050919050565b600033905090565b816004600083815260200190815260200160002060006101000a81548173ffffffffffffffffffffffffffffffffffffffff021916908373ffffffffffffffffffffffffffffffffffffffff160217905550808273ffffffffffffffffffffffffffffffffffffffff16611a3e836107a7565b73ffffffffffffffffffffffffffffffffffffffff167f8c5be1e5ebec7d5bd14f71427d1e84f3dd0314c0f7b2291e5b200ac8c7c3b92560405160405180910390a45050565b6000611a8f82611957565b611ace576040517f08c379a0000000000000000000000000000000000000000000000000000000008152600401611ac59061355f565b60405180910390fd5b6000611ad9836107a7565b90508073ffffffffffffffffffffffffffffffffffffffff168473ffffffffffffffffffffffffffffffffffffffff161480611b4857508373ffffffffffffffffffffffffffffffffffffffff16611b308461058a565b73ffffffffffffffffffffffffffffffffffffffff16145b80611b595750611b5881856113ad565b5b91505092915050565b8273ffffffffffffffffffffffffffffffffffffffff16611b82826107a7565b73ffffffffffffffffffffffffffffffffffffffff1614611bd8576040517f08c379a0000000000000000000000000000000000000000000000000000000008152600401611bcf906134df565b60405180910390fd5b600073ffffffffffffffffffffffffffffffffffffffff168273ffffffffffffffffffffffffffffffffffffffff161415611c48576040517f08c379a0000000000000000000000000000000000000000000000000000000008152600401611c3f9061351f565b60405180910390fd5b611c538383836123f1565b611c5e6000826119cb565b6001600360008573ffffffffffffffffffffffffffffffffffffffff1673ffffffffffffffffffffffffffffffffffffffff1681526020019081526020016000206000828254611cae91906138f1565b925050819055506001600360008473ffffffffffffffffffffffffffffffffffffffff1673ffffffffffffffffffffffffffffffffffffffff1681526020019081526020016000206000828254611d059190613810565b92505081905550816002600083815260200190815260200160002060006101000a81548173ffffffffffffffffffffffffffffffffffffffff021916908373ffffffffffffffffffffffffffffffffffffffff160217905550808273ffffffffffffffffffffffffffffffffffffffff168473ffffffffffffffffffffffffffffffffffffffff167fddf252ad1be2c89b69c2b068fc378daa952ba7f163c4a11628f55a4df523b3ef60405160405180910390a4611dc48383836123f6565b505050565b8173ffffffffffffffffffffffffffffffffffffffff168373ffffffffffffffffffffffffffffffffffffffff161415611e38576040517f08c379a0000000000000000000000000000000000000000000000000000000008152600401611e2f9061353f565b60405180910390fd5b80600560008573ffffffffffffffffffffffffffffffffffffffff1673ffffffffffffffffffffffffffffffffffffffff16815260200190815260200160002060008473ffffffffffffffffffffffffffffffffffffffff1673ffffffffffffffffffffffffffffffffffffffff16815260200190815260200160002060006101000a81548160ff0219169083151502179055508173ffffffffffffffffffffffffffffffffffffffff168373ffffffffffffffffffffffffffffffffffffffff167f17307eab39ab6107e8899845ad3d59bd9653f200f220920489ca2b5937696c3183604051611f299190613389565b60405180910390a3505050565b611f41848484611b62565b611f4d848484846123fb565b611f8c576040517f08c379a0000000000000000000000000000000000000000000000000000000008152600401611f83906134bf565b60405180910390fd5b50505050565b60606000821415611fda576040518060400160405280600181526020017f3000000000000000000000000000000000000000000000000000000000000000815250905061213a565b600082905060005b6000821461200c578080611ff590613a3e565b915050600a826120059190613866565b9150611fe2565b60008167ffffffffffffffff81111561204e577f4e487b7100000000000000000000000000000000000000000000000000000000600052604160045260246000fd5b6040519080825280601f01601f1916602001820160405280156120805781602001600182028036833780820191505090505b5090505b600085146121335760018261209991906138f1565b9150600a856120a89190613a87565b60306120b49190613810565b60f81b8183815181106120f0577f4e487b7100000000000000000000000000000000000000000000000000000000600052603260045260246000fd5b60200101907effffffffffffffffffffffffffffffffffffffffffffffffffffffffffffff1916908160001a905350600a8561212c9190613866565b9450612084565b8093505050505b919050565b6060600082519050600081141561216857604051806020016040528060008152509150506122f8565b600060036002836121799190613810565b6121839190613866565b600461218f9190613897565b905060006020826121a09190613810565b67ffffffffffffffff8111156121df577f4e487b7100000000000000000000000000000000000000000000000000000000600052604160045260246000fd5b6040519080825280601f01601f1916602001820160405280156122115781602001600182028036833780820191505090505b5090506000604051806060016040528060408152602001614179604091399050600181016020830160005b868110156122b55760038101905062ffffff818a015116603f8160121c168401518060081b905060ff603f83600c1c1686015116810190508060081b905060ff603f8360061c1686015116810190508060081b905060ff603f831686015116810190508060e01b9050808452600484019350505061223c565b5060038606600181146122cf57600281146122df576122ea565b613d3d60f01b60028303526122ea565b603d60f81b60018303525b508484525050819450505050505b919050565b600081600001549050919050565b612325828260405180602001604052806000815250612592565b5050565b6123c383838360405160240161234193929190613481565b6040516020818303038152906040527f969cdd03000000000000000000000000000000000000000000000000000000007bffffffffffffffffffffffffffffffffffffffffffffffffffffffff19166020820180517bffffffffffffffffffffffffffffffffffffffffffffffffffffffff83818316178352505050506123c8565b505050565b60008151905060006a636f6e736f6c652e6c6f679050602083016000808483855afa5050505050565b505050565b505050565b600061241c8473ffffffffffffffffffffffffffffffffffffffff166125ed565b15612585578373ffffffffffffffffffffffffffffffffffffffff1663150b7a026124456119c3565b8786866040518563ffffffff1660e01b815260040161246794939291906132e4565b602060405180830381600087803b15801561248157600080fd5b505af19250505080156124b257506040513d601f19601f820116820180604052508101906124af9190612b93565b60015b612535573d80600081146124e2576040519150601f19603f3d011682016040523d82523d6000602084013e6124e7565b606091505b5060008151141561252d576040517f08c379a0000000000000000000000000000000000000000000000000000000008152600401612524906134bf565b60405180910390fd5b805181602001fd5b63150b7a0260e01b7bffffffffffffffffffffffffffffffffffffffffffffffffffffffff1916817bffffffffffffffffffffffffffffffffffffffffffffffffffffffff19161491505061258a565b600190505b949350505050565b61259c8383612610565b6125a960008484846123fb565b6125e8576040517f08c379a00000000000000000000000000000000000000000000000000000000081526004016125df906134bf565b60405180910390fd5b505050565b6000808273ffffffffffffffffffffffffffffffffffffffff163b119050919050565b600073ffffffffffffffffffffffffffffffffffffffff168273ffffffffffffffffffffffffffffffffffffffff161415612680576040517f08c379a0000000000000000000000000000000000000000000000000000000008152600401612677906135df565b60405180910390fd5b61268981611957565b156126c9576040517f08c379a00000000000000000000000000000000000000000000000000000000081526004016126c0906134ff565b60405180910390fd5b6126d5600083836123f1565b6001600360008473ffffffffffffffffffffffffffffffffffffffff1673ffffffffffffffffffffffffffffffffffffffff16815260200190815260200160002060008282546127259190613810565b92505081905550816002600083815260200190815260200160002060006101000a81548173ffffffffffffffffffffffffffffffffffffffff021916908373ffffffffffffffffffffffffffffffffffffffff160217905550808273ffffffffffffffffffffffffffffffffffffffff16600073ffffffffffffffffffffffffffffffffffffffff167fddf252ad1be2c89b69c2b068fc378daa952ba7f163c4a11628f55a4df523b3ef60405160405180910390a46127e6600083836123f6565b5050565b6040518060a0016040528060608152602001606081526020016000815260200160008152602001600081525090565b6040518060c001604052806000815260200160608152602001606081526020016000815260200160008152602001600081525090565b82805461285b906139db565b90600052602060002090601f01602090048101928261287d57600085556128c4565b82601f1061289657805160ff19168380011785556128c4565b828001600101855582156128c4579182015b828111156128c35782518255916020019190600101906128a8565b5b5090506128d191906128d5565b5090565b5b808211156128ee5760008160009055506001016128d6565b5090565b600061290561290084613752565b61372d565b90508281526020810184848401111561291d57600080fd5b612928848285613999565b509392505050565b60008135905061293f8161411c565b92915050565b60008135905061295481614133565b92915050565b6000813590506129698161414a565b92915050565b60008151905061297e8161414a565b92915050565b600082601f83011261299557600080fd5b81356129a58482602086016128f2565b91505092915050565b6000813590506129bd81614161565b92915050565b6000602082840312156129d557600080fd5b60006129e384828501612930565b91505092915050565b600080604083850312156129ff57600080fd5b6000612a0d85828601612930565b9250506020612a1e85828601612930565b9150509250929050565b600080600060608486031215612a3d57600080fd5b6000612a4b86828701612930565b9350506020612a5c86828701612930565b9250506040612a6d868287016129ae565b9150509250925092565b60008060008060808587031215612a8d57600080fd5b6000612a9b87828801612930565b9450506020612aac87828801612930565b9350506040612abd878288016129ae565b925050606085013567ffffffffffffffff811115612ada57600080fd5b612ae687828801612984565b91505092959194509250565b60008060408385031215612b0557600080fd5b6000612b1385828601612930565b9250506020612b2485828601612945565b9150509250929050565b60008060408385031215612b4157600080fd5b6000612b4f85828601612930565b9250506020612b60858286016129ae565b9150509250929050565b600060208284031215612b7c57600080fd5b6000612b8a8482850161295a565b91505092915050565b600060208284031215612ba557600080fd5b6000612bb38482850161296f565b91505092915050565b600060208284031215612bce57600080fd5b6000612bdc848285016129ae565b91505092915050565b6000612bf183836130c4565b905092915050565b612c0281613925565b82525050565b6000612c1382613793565b612c1d81856137c1565b935083602082028501612c2f85613783565b8060005b85811015612c6b5784840389528151612c4c8582612be5565b9450612c57836137b4565b925060208a01995050600181019050612c33565b50829750879550505050505092915050565b612c8681613937565b82525050565b6000612c978261379e565b612ca181856137d2565b9350612cb18185602086016139a8565b612cba81613b74565b840191505092915050565b6000612cd0826137a9565b612cda81856137e3565b9350612cea8185602086016139a8565b612cf381613b74565b840191505092915050565b6000612d09826137a9565b612d1381856137f4565b9350612d238185602086016139a8565b612d2c81613b74565b840191505092915050565b6000612d42826137a9565b612d4c8185613805565b9350612d5c8185602086016139a8565b80840191505092915050565b6000612d75600b83613805565b9150612d8082613b85565b600b82019050919050565b6000612d986032836137f4565b9150612da382613bae565b604082019050919050565b6000612dbb6025836137f4565b9150612dc682613bfd565b604082019050919050565b6000612dde601c836137f4565b9150612de982613c4c565b602082019050919050565b6000612e01600e83613805565b9150612e0c82613c75565b600e82019050919050565b6000612e246024836137f4565b9150612e2f82613c9e565b604082019050919050565b6000612e476019836137f4565b9150612e5282613ced565b602082019050919050565b6000612e6a602c836137f4565b9150612e7582613d16565b604082019050919050565b6000612e8d6038836137f4565b9150612e9882613d65565b604082019050919050565b6000612eb0602a836137f4565b9150612ebb82613db4565b604082019050919050565b6000612ed36029836137f4565b9150612ede82613e03565b604082019050919050565b6000612ef6606283613805565b9150612f0182613e52565b606282019050919050565b6000612f19600483613805565b9150612f2482613eed565b600482019050919050565b6000612f3c6020836137f4565b9150612f4782613f16565b602082019050919050565b6000612f5f602c836137f4565b9150612f6a82613f3f565b604082019050919050565b6000612f82600a83613805565b9150612f8d82613f8e565b600a82019050919050565b6000612fa56021836137f4565b9150612fb082613fb7565b604082019050919050565b6000612fc8601d83613805565b9150612fd382614006565b601d82019050919050565b6000612feb6031836137f4565b9150612ff68261402f565b604082019050919050565b600061300e603d83613805565b91506130198261407e565b603d82019050919050565b6000613031602d83613805565b915061303c826140cd565b602d82019050919050565b600060a08301600083015184820360008601526130648282612cc5565b9150506020830151848203602086015261307e8282612cc5565b915050604083015161309360408601826131e4565b5060608301516130a660608601826131e4565b5060808301516130b960808601826131e4565b508091505092915050565b600060c0830160008301516130dc60008601826131e4565b50602083015184820360208601526130f48282612cc5565b9150506040830151848203604086015261310e8282612cc5565b915050606083015161312360608601826131e4565b50608083015161313660808601826131e4565b5060a083015161314960a08601826131e4565b508091505092915050565b600060c08301600083015161316c60008601826131e4565b50602083015184820360208601526131848282612cc5565b9150506040830151848203604086015261319e8282612cc5565b91505060608301516131b360608601826131e4565b5060808301516131c660808601826131e4565b5060a08301516131d960a08601826131e4565b508091505092915050565b6131ed8161398f565b82525050565b6131fc8161398f565b82525050565b600061320d82612f75565b91506132198289612d37565b915061322482612d68565b91506132308288612d37565b915061323b82612ee9565b91506132478287612d37565b915061325282613001565b915061325e8286612d37565b915061326982612df4565b91506132758285612d37565b915061328082613024565b915061328c8284612d37565b915061329782612f0c565b9150819050979650505050505050565b60006132b282612fbb565b91506132be8284612d37565b915081905092915050565b60006020820190506132de6000830184612bf9565b92915050565b60006080820190506132f96000830187612bf9565b6133066020830186612bf9565b61331360408301856131f3565b81810360608301526133258184612c8c565b905095945050505050565b60006060820190506133456000830186612bf9565b61335260208301856131f3565b61335f60408301846131f3565b949350505050565b600060208201905081810360008301526133818184612c08565b905092915050565b600060208201905061339e6000830184612c7d565b92915050565b600060208201905081810360008301526133be8184612cfe565b905092915050565b600060808201905081810360008301526133e08187612cfe565b905081810360208301526133f48186612cfe565b905061340360408301856131f3565b81810360608301526134158184612cfe565b905095945050505050565b600060a082019050818103600083015261343a8188612cfe565b9050818103602083015261344e8187612cfe565b905061345d60408301866131f3565b61346a60608301856131f3565b61347760808301846131f3565b9695505050505050565b6000606082019050818103600083015261349b8186612cfe565b90506134aa60208301856131f3565b6134b760408301846131f3565b949350505050565b600060208201905081810360008301526134d881612d8b565b9050919050565b600060208201905081810360008301526134f881612dae565b9050919050565b6000602082019050818103600083015261351881612dd1565b9050919050565b6000602082019050818103600083015261353881612e17565b9050919050565b6000602082019050818103600083015261355881612e3a565b9050919050565b6000602082019050818103600083015261357881612e5d565b9050919050565b6000602082019050818103600083015261359881612e80565b9050919050565b600060208201905081810360008301526135b881612ea3565b9050919050565b600060208201905081810360008301526135d881612ec6565b9050919050565b600060208201905081810360008301526135f881612f2f565b9050919050565b6000602082019050818103600083015261361881612f52565b9050919050565b6000602082019050818103600083015261363881612f98565b9050919050565b6000602082019050818103600083015261365881612fde565b9050919050565b600060208201905081810360008301526136798184613047565b905092915050565b6000602082019050818103600083015261369b8184613154565b905092915050565b60006020820190506136b860008301846131f3565b92915050565b600060c0820190506136d360008301896131f3565b81810360208301526136e58188612cfe565b905081810360408301526136f98187612cfe565b905061370860608301866131f3565b61371560808301856131f3565b61372260a08301846131f3565b979650505050505050565b6000613737613748565b90506137438282613a0d565b919050565b6000604051905090565b600067ffffffffffffffff82111561376d5761376c613b45565b5b61377682613b74565b9050602081019050919050565b6000819050602082019050919050565b600081519050919050565b600081519050919050565b600081519050919050565b6000602082019050919050565b600082825260208201905092915050565b600082825260208201905092915050565b600082825260208201905092915050565b600082825260208201905092915050565b600081905092915050565b600061381b8261398f565b91506138268361398f565b9250827fffffffffffffffffffffffffffffffffffffffffffffffffffffffffffffffff0382111561385b5761385a613ab8565b5b828201905092915050565b60006138718261398f565b915061387c8361398f565b92508261388c5761388b613ae7565b5b828204905092915050565b60006138a28261398f565b91506138ad8361398f565b9250817fffffffffffffffffffffffffffffffffffffffffffffffffffffffffffffffff04831182151516156138e6576138e5613ab8565b5b828202905092915050565b60006138fc8261398f565b91506139078361398f565b92508282101561391a57613919613ab8565b5b828203905092915050565b60006139308261396f565b9050919050565b60008115159050919050565b60007fffffffff0000000000000000000000000000000000000000000000000000000082169050919050565b600073ffffffffffffffffffffffffffffffffffffffff82169050919050565b6000819050919050565b82818337600083830152505050565b60005b838110156139c65780820151818401526020810190506139ab565b838111156139d5576000848401525b50505050565b600060028204905060018216806139f357607f821691505b60208210811415613a0757613a06613b16565b5b50919050565b613a1682613b74565b810181811067ffffffffffffffff82111715613a3557613a34613b45565b5b80604052505050565b6000613a498261398f565b91507fffffffffffffffffffffffffffffffffffffffffffffffffffffffffffffffff821415613a7c57613a7b613ab8565b5b600182019050919050565b6000613a928261398f565b9150613a9d8361398f565b925082613aad57613aac613ae7565b5b828206905092915050565b7f4e487b7100000000000000000000000000000000000000000000000000000000600052601160045260246000fd5b7f4e487b7100000000000000000000000000000000000000000000000000000000600052601260045260246000fd5b7f4e487b7100000000000000000000000000000000000000000000000000000000600052602260045260246000fd5b7f4e487b7100000000000000000000000000000000000000000000000000000000600052604160045260246000fd5b6000601f19601f8301169050919050565b7f202d2d204e465420233a20000000000000000000000000000000000000000000600082015250565b7f4552433732313a207472616e7366657220746f206e6f6e20455243373231526560008201527f63656976657220696d706c656d656e7465720000000000000000000000000000602082015250565b7f4552433732313a207472616e736665722066726f6d20696e636f72726563742060008201527f6f776e6572000000000000000000000000000000000000000000000000000000602082015250565b7f4552433732313a20746f6b656e20616c7265616479206d696e74656400000000600082015250565b7f2c20226d61785f76616c7565223a000000000000000000000000000000000000600082015250565b7f4552433732313a207472616e7366657220746f20746865207a65726f2061646460008201527f7265737300000000000000000000000000000000000000000000000000000000602082015250565b7f4552433732313a20617070726f766520746f2063616c6c657200000000000000600082015250565b7f4552433732313a206f70657261746f7220717565727920666f72206e6f6e657860008201527f697374656e7420746f6b656e0000000000000000000000000000000000000000602082015250565b7f4552433732313a20617070726f76652063616c6c6572206973206e6f74206f7760008201527f6e6572206e6f7220617070726f76656420666f7220616c6c0000000000000000602082015250565b7f4552433732313a2062616c616e636520717565727920666f7220746865207a6560008201527f726f206164647265737300000000000000000000000000000000000000000000602082015250565b7f4552433732313a206f776e657220717565727920666f72206e6f6e657869737460008201527f656e7420746f6b656e0000000000000000000000000000000000000000000000602082015250565b7f222c20226465736372697074696f6e223a20225468697320697320616e204e4660008201527f542074686174206c6574732070656f706c6520706c617920696e20746865206760208201527f616d65204d657461766572736520536c6179657221222c2022696d616765223a60408201527f2022000000000000000000000000000000000000000000000000000000000000606082015250565b7f7d205d7d00000000000000000000000000000000000000000000000000000000600082015250565b7f4552433732313a206d696e7420746f20746865207a65726f2061646472657373600082015250565b7f4552433732313a20617070726f76656420717565727920666f72206e6f6e657860008201527f697374656e7420746f6b656e0000000000000000000000000000000000000000602082015250565b7f7b226e616d65223a202200000000000000000000000000000000000000000000600082015250565b7f4552433732313a20617070726f76616c20746f2063757272656e74206f776e6560008201527f7200000000000000000000000000000000000000000000000000000000000000602082015250565b7f646174613a6170706c69636174696f6e2f6a736f6e3b6261736536342c000000600082015250565b7f4552433732313a207472616e736665722063616c6c6572206973206e6f74206f60008201527f776e6572206e6f7220617070726f766564000000000000000000000000000000602082015250565b7f222c202261747472696275746573223a205b207b202274726169745f7479706560008201527f223a20224865616c746820506f696e7473222c202276616c7565223a20000000602082015250565b7f7d2c207b202274726169745f74797065223a202241747461636b2044616d616760008201527f65222c202276616c7565223a2000000000000000000000000000000000000000602082015250565b61412581613925565b811461413057600080fd5b50565b61413c81613937565b811461414757600080fd5b50565b61415381613943565b811461415e57600080fd5b50565b61416a8161398f565b811461417557600080fd5b5056fe4142434445464748494a4b4c4d4e4f505152535455565758595a6162636465666768696a6b6c6d6e6f707172737475767778797a303132333435363738392b2f4d696e746564204e465420772f20746f6b656e496420257320616e6420636861726163746572496e646578202573a264697066735822122032fca86b0fc2a890dd596d0e0fa21accdad90668fb714d64c2628c00a405ed1464736f6c63430008010033446f6e6520696e697469616c6973696e6720626f737320257320776974682048502025732c20696d67202573",
  "linkReferences": {},
  "deployedLinkReferences": {}
}